:100000000C94D8010C941F020C941F020C941F0234
:100010000C941F020C941F020C941F020C941F02DC
:100020000C941F020C941F020C94E51E0C94B81F34
:100030000C9474150C941F020C941F020C941F0254
:100040000C941F020C941F020C941F020C941F02AC
:100050000C941F020C94DC150C941F020C941F02CC
:100060000C941F020C941F020C941F020C941F028C
:100070000C941F020C941F020C941F020C941F027C
:100080000C941F020C941F020C941F020C941F026C
:100090000C941F020C941F020C941F020C941F025C
:1000A0000C941F020C941F020C941F020000F0A17C
:1000B00035002B000151E100E00000001E0014009B
:1000C00004001D00010001001F001A0016001B00A3
:1000D0000100E20020000800070006000100E30024
:1000E0002100150009001900290001002200170055
:1000F0000A000500000001002300015100002F004C
:100100000000010024004C00000030000000A500A9
:1001100025001C000B001100000001002600180043
:100120000D0010000100010027000C000E00360039
:1001300001002C002D0012000F00370001002A00E2
:100140002E0013003300380001004C002A0031005B
:100150002800340001000000010001000100E1005E
:10016000E00000003A000100010001000100010070
:100170003B000100E10001000100E2003C00010041
:10018000E00001000100E3003D000100010001006A
:10019000010001003E00010001000100000001001B
:1001A0003F000100000001000000010040000100CC
:1001B000000001000000A5004100A8005000AC00B4
:1001C000000001004200AA005100AB000100010044
:1001D0004300A9005200010001002C004400AE00C1
:1001E0004F00010001002A0045000100010001004C
:1001F00001004C00010001000100010001000000AD
:1002000016034500720067006F0044006F0078001D
:10021000200045005A0000001603450072006700E8
:100220006F0044006F007800200045005A00000075
:100230000403090409026D00040100A0FA09040086
:100240000001030101000921110100012240000702
:1002500005810308000A09040100010301020009E5
:100260002111010001224D000705820308000A093F
:1002700004020001030000000921110100012236DF
:10028000000705830308000A0904030001030000B6
:100290000009211101000122390007058403200013
:1002A000011201100100000008EDFE07130100011A
:1002B00002000105010906A101050719E029E7155A
:1002C0000025019508750181020508190129059588
:1002D0000575019102950175039101050719002922
:1002E000F71500250195F875018102C00501098007
:1002F000A101850216810026B7001A81002AB700E5
:10030000751095018100C0050C0901A10185031636
:100310000100269C021A01002A9C02751095018199
:1003200000C005010902A1010901A1000509190187
:1003300029051500250195057501810295017503B3
:1003400081010501093009311581257F9502750864
:10035000810609381581257F950175088106050CF0
:100360000A38021581257F950175088106C0C005F0
:10037000010906A101050719E029E71500250195E6
:100380000875018102950175088101050819012987
:1003900005950575019102950175039101050719F0
:1003A0000029FF150026FF00950675088100C00092
:1003B00011241FBECFEFDAE0DEBFCDBF04B603FECF
:1003C00027C08091570290915802A0915902B09194
:1003D0005A028730904BA740B04BD1F4109257028D
:1003E000109258021092590210925A0214BE84B709
:1003F000877F84BF0FB6F894A895809160008861CC
:1004000080936000109260000FBEE0E0FFE309956A
:1004100011E0A0E0B1E0EEEFF5E402C005900D922E
:10042000A433B107D9F722E0A4E3B1E001C01D92E3
:10043000A735B207E1F70E94371C0C94FD220C94FB
:1004400000001092B9008AE08093B800089594EA01
:100450009093BC009091BC0097FFFCCF9091B900A5
:10046000987F983021F0903111F081E008958093C9
:10047000BB0084E88093BC008091BC0087FFFCCF68
:100480008091B900887F883111F0803471F780E065
:10049000089584E98093BC008091BC0084FDFCCF6A
:1004A00008958093BB0084E88093BC008091BC00D9
:1004B00087FFFCCF9091B900987F81E0983209F4D2
:1004C00080E0089584E88093BC008091BC0087FFA1
:1004D000FCCF8091BB00089580B38C7080BB81B34A
:1004E000836F81BB089580910101811115C080E463
:1004F0000E9427028093010181110CC082E10E94B9
:10050000510280930101811105C08FEF0E945102B9
:10051000809301010E94490284B1807F84B985B132
:10052000807F85B98AB1837F8AB98BB1837F8BB98C
:100530003E98469808950C94CD030E94EB07809353
:1005400001010E9473020E946C02E3E4F1E0A5E362
:10055000B1E011921D9281E0E135F807D1F70C94DA
:10056000D5070E94EB07809301010E9473020E944D
:100570006C02E3E4F1E0A5E3B1E011921D9281E0A9
:10058000E135F807D1F70895AF92BF92CF92DF928D
:10059000EF92FF920F931F93CF93DF93809101010E
:1005A000882379F0809134018F5F80933401811129
:1005B00008C00E94EB0780930101811102C00E94D4
:1005C0007D0785E3C82E81E0D82E760100E010E09B
:1005D000AA24A394B12CD2E0C02F073008F072C037
:1005E0008091010181111BC080E40E942702809349
:1005F0000101811112C082E10E9451028093010128
:1006000081110BC0C501002E01C0880F0A94EAF7C2
:1006100080950E945102809301010E94490280EA64
:100620008A95F1F7C73008F06DC0C0910101C11182
:100630008EC080E40E94270280930101811112C0C4
:1006400083E10E9451028093010181110BC081E47A
:100650000E94270280930101811104C00E9462025E
:10066000C82FC0950E944902D7018C918C1719F0B0
:10067000CC93D09300010E9473020F5F1F4FBFEF16
:10068000EB1AFB0A0E30110509F0A6CF809100018C
:10069000882351F0815080930001882309F459C0C8
:1006A000E5E0EA95F1F700000E94040581E0DF91A2
:1006B000CF911F910F91FF90EF90DF90CF90BF905F
:1006C000AF9008950A30B1F038F4083069F009307D
:1006D00071F0209A2898A3CF0C3091F070F00D3073
:1006E000C1F73E9A46989BCF219A299898CF229A93
:1006F0002A9895CF239A2B9892CF529A5B988FCFB6
:10070000539AFCCFCFB1C095C170799B18C080E0DF
:10071000C82B7C9B16C080E0C82B7D9B14C080E05A
:10072000C82B7E9B12C080E0C82B8FB18095881F9C
:100730008827881F8295880F807EC82B95CF82E0FE
:10074000E7CF84E0E9CF88E0EBCF80E1EDCFC0E0F8
:100750008BCFE3E4F1E0D6018D916D018193B3E499
:10076000CB16B1E0DB06B9F79FCFE82FF0E0ED5BE9
:10077000FE4F808108950895611107C0FC018281B8
:10078000882331F085EE0E94EB0980E090E0089527
:1007900085EE0E94D20AF9CF08956091E801709128
:1007A000E9018091EA019091EB010E94A81456980A
:1007B0005E9825982D9826982E9827982F98813006
:1007C00019F0823021F00895259A2D9A0895269ADD
:1007D0002E9A089581E0089581E008950C94EC0329
:1007E0000E948F0D2FEF84E39CE0215080409040C9
:1007F000E1F700C000000C940116FF920F931F93C5
:10080000CF93DF938C01FC01C081D181809178016D
:1008100081112DC08281882329F1CE010E941313FA
:10082000F82E682FCE010E94BB12BE018F2D0E94B0
:100830009806EC01B8010E94EE03882361F0B8012C
:10084000CE010E942E07882331F0B801CE010E940C
:10085000A6088111AAC080E0DF91CF911F910F916E
:10086000FF900895CE010E94E712F82EDECFCE0150
:100870000E941313BE01DBCFF8018281882359F354
:100880000E94F003E8CFF8018281882321F3809150
:100890001502816080931502DECFF80182818823E2
:1008A00009F49AC00E941115811102C00E94F71428
:1008B0000E94241590E09093490280934802FE0123
:1008C000E350F047E231F105C0F4E559FB4F809168
:1008D00048020C94AD2289048B0496048D048F0485
:1008E00091049304950498049A049C04A7049E041C
:1008F000A004A204A404A604A90480914802816073
:1009000080934802809148020E9428150E948F0D12
:10091000A2CF8260F5CF8460F3CF8061F1CF806297
:10092000EFCF8064EDCF8068EBCF84608860E8CF44
:100930008E7FE6CF8D7FE4CF8B7FE2CF8F7EE0CFBF
:100940008F7DDECF8F7BDCCF8F77DACF8B7F877F7A
:10095000D7CF87FB992790F921E0922790FB87F961
:10096000CFCFF8018281882331F01092510182E0CB
:100970000E94210B70CF80915101811106C086E247
:100980000E94EB0986E20E94D20A82E00E94280BB4
:1009900062CF80915201811106C087E20E94EB096B
:1009A00087E20E94D20A80E2F1CFC531F0E7DF078B
:1009B000D8F4C23080E7D80708F06FCFC115E0E760
:1009C000DE0709F459CFC130D04709F45CCF81E08C
:1009D0008093510180935201C801DF91CF911F9103
:1009E0000F91FF900C94EA03CC3380E7D80709F409
:1009F000B8CFCD33D04759F7F8018281882349F227
:100A00001092520180E2B4CF0C949B0208950C9492
:100A100006050C940705972F70E026E0929F600D65
:100A2000711D1124FB0144E5849FE00DF11D11248B
:100A3000EE0FFF1FE055FF4F859194910E94AC0689
:100A4000811520E4920708F08DC0811540E39407DA
:100A500008F0EFC0803E910508F071C0803C910520
:100A600008F0CBC0883A910580F4853A910508F0EA
:100A7000CCC08130910509F46EC020F0843091051E
:100A800008F069C080E090E008958D3B9105D0F7B3
:100A9000883A910509F40CC1893A910509F40BC112
:100AA0008A3A910509F40AC18B3A910509F409C102
:100AB0008C3A910509F408C18B3B910509F407C1F3
:100AC0008C3B910509F406C18D3A910509F405C1E5
:100AD000803B910509F404C18E3A910509F403C1E4
:100AE0008F3A910509F402C1813B910509F401C1D6
:100AF000823B910509F400C1833B910509F4FFC0D5
:100B0000843B910509F4FEC0853B910509F4FDC0C5
:100B1000863B910509F4FCC0873B910509F4FBC0B5
:100B2000883B910509F4FAC0893B910509F4F9C0A5
:100B30008A3B910509F4F8C080E094E408958F3F62
:100B4000910509F048F4803F910508F069C0883E9E
:100B5000910508F097CF0895811520E2920708F0DB
:100B600061C00895811543E5940760F5811522E57C
:100B7000920708F069C0811541E5940708F05FC04D
:100B8000811520E5920708F457C09C0154E0369582
:100B900027955A95E1F7922F9370482F437021E0E3
:100BA00030E002C0220F331F4A95E2F73C68392B30
:100BB00086958695837040E2849FC0011124822B24
:100BC000932B0895811545E5940750F4811524E58C
:100BD000920708F44DC0982F8827846F906A089573
:100BE000811546E5940708F457C09C01305621153D
:100BF000304108F047CF9F7053C0FC01EE0FFF1F3C
:100C0000E45DF040859194910895853A910509F449
:100C100049C0863A910509F048C082E890E40895F9
:100C200090650895FC01FF70EE0FFF1FE455FF4F24
:100C3000E9CF9927906C08959F70906A0895982F36
:100C40008827816F906A08959C0123703327E1E023
:100C5000F0E002C0EE0FFF1F2A95E2F78695869519
:100C600020E2829FC00111248E2B9F2B9C68089547
:100C70009C0123703327E1E0F0E002C0EE0FFF1F7C
:100C80002A95E2F78695869540E2849FC00111245B
:100C90008E2B9F2B9A680895982F882788279F71FD
:100CA0009062089581E890E4089583E890E40895BF
:100CB00082EE94E4089589EE94E408958AEE94E433
:100CC000089585EB94E4089586EB94E4089583EB0E
:100CD00094E4089584EB94E4089587EB94E40895F4
:100CE0008CEC94E408958DEC94E4089583E895E405
:100CF00008958AE895E4089582E995E4089584E9E1
:100D000095E4089581E296E4089583E296E40895D7
:100D100084E296E4089585E296E4089586E296E4F6
:100D2000089587E296E408958AE296E414CF089540
:100D3000972F70E026E0929F600D711D1124FB013A
:100D400094E5899FE00DF11D1124EE0FFF1FE05582
:100D5000FF4F8591949108958238910549F1B0F43F
:100D60008133910509F45AC048F48932910509F498
:100D700050C08A32910509F456C008958533910513
:100D800009F442C08933910599F00895833E910595
:100D900021F138F4803E910581F0823E9105A1F069
:100DA0000895863E910501F1873E910531F1089540
:100DB000209148022370E1F508952091480220FF18
:100DC00012C089E390E008952091480222FF0BC0F1
:100DD00024FF31C080E090E008952091480222FD78
:100DE0002DC024FDF7CF08952091480223FFFBCFAB
:100DF00024FDF0CF87EE90E008952091480223FF74
:100E0000F0CF86EE90E008952091480225FD19C0AC
:100E100008952091480225FD17C0089520914802A9
:100E200026FD15C008952091480226FD13C008959F
:100E300080EE90E0089583EE90E0089582EE90E0D9
:100E4000089589E290E0089585E390E008958AE2AC
:100E500090E0089581E390E0C6CF08950F931F932B
:100E6000CF938C01FB018281811106C0C1E08C2FE0
:100E7000CF911F910F910895C0916001C11125C0BC
:100E80000531104799F70E942D0781E0809360019A
:100E90000E94A61590935F0180935E01109253010A
:100EA0001092550110925401109257011092560160
:100EB000109259011092580110925B0110925A0140
:100EC00010925D0110925C01D2CF80915E019091F1
:100ED0005F010E94B215883C910540F68091530154
:100EE000E82FF0E0EE0FFF1FEC5AFE4F1183008356
:100EF0008F5F80935301C0E0BACF56985E982598D3
:100F00002D9826982E9827982F988FEF90E0909301
:100F100089008093880090938B0080938A0090933F
:100F20008D0080938C00259A2D9A2FEF80E792E018
:100F3000215080409040E1F700C00000269A2E9A90
:100F40002FEF80E792E0215080409040E1F700C011
:100F50000000279A2F9A2FEF80E792E021508040DF
:100F60009040E1F700C0000025982D982FEF80E712
:100F700092E0215080409040E1F700C000002698A8
:100F80002E982FEF80E792E0215080409040E1F7CB
:100F900000C0000027982F9856985E9825982D98A5
:100FA00026982E9827982F98089589EA8093800094
:100FB00089E08093810024982C983F988AB18F749F
:100FC0008AB96E98479A8BB1806B8BB9769A0E94DA
:100FD0007D070C94CC0380E2809301018091610134
:100FE00081110EC00E94210281E0809361012FEFE8
:100FF00083ED90E3215080409040E1F700C0000075
:1010000080E40E9427028093010181112EC00E947A
:10101000510280930101811128C00E9451028093E6
:101020000101811122C08FE30E94510280930101CE
:1010300081111BC00E94490280E40E942702809314
:101040000101811112C08CE00E94510280930101C4
:1010500081110BC00E94510280930101811105C0D2
:101060008FE30E945102809301010E944902809106
:1010700001010895882339F090E08A3010F44D96EC
:1010800008950697089587E290E00895809162019F
:10109000813071F048F08230F1F08FE39CE90197E4
:1010A000F1F700C00000089582EE0E94EB09F5CF31
:1010B00080EE0E94EB0981EE0E94EB0988E10E941C
:1010C000EB0988E10E94D20A81EE0E94D20A80EEEA
:1010D0000E94D20AE2CF82EE0E94EB0987E50E94CD
:1010E000EB0987E5F5CF80916201813031F010F096
:1010F000823041F482EE0C94D20A8CE20E94EB0919
:101100008CE2F9CF0895EF92FF921F93CF93DF9374
:101110007C01CCE0D0E0C7010C2E02C096958795EB
:101120000A94E2F78F700E943A08182F0E94EB0988
:10113000812F0E94D20A2497CC3F8FEFD80759F70E
:10114000DF91CF911F91FF90EF900895CF93DF93A0
:10115000EC01C13080E8D80760F0FB018281882370
:1011600041F00E944608CE019F770E9483080E94AA
:10117000730881E0DF91CF91089590936801809387
:1011800067010895E0916701F0916801309721F0BF
:101190000190F081E02D099480E00895E0916701CD
:1011A000F0916801309721F00280F381E02D0994DD
:1011B0000895E0916701F0916801309721F0048073
:1011C000F581E02D09940895209165013091660123
:1011D0002817390771F09093660180936501E091BB
:1011E0006701F0916801309721F00680F781E02DCA
:1011F00009940895209163013091640128173907FB
:1012000071F09093640180936301E0916701F09124
:101210006801309721F00084F185E02D099408954C
:1012200008950C9410090E949D150E949D020C9433
:101230002316BF92CF92DF92EF92FF920F931F93EC
:10124000CF93DF93CDB7DEB72A970FB6F894DEBF02
:101250000FBECDBF0E94C4028AE6C82E81E0D82E00
:1012600000E010E0B02E802F0E94B503E82EF601BA
:10127000F1906F018F1116C00F5F1F4F0E301105D7
:1012800089F78FEF89838A831B820E94A61581606C
:10129000782F9D838C8349815A816B818D810E9437
:1012A000BD0938C08091150281FD0E94BB0380E01A
:1012B00090E0FE242F2D30E0482FB901082E02C007
:1012C000759567950A94E2F760FF41C08E83BF82EF
:1012D00081E090E06C0102C0CC0CDD1C4A95E2F785
:1012E0002E2D30E02C213D21232B09F480E088872E
:1012F0000E94A6158160782F9A8789874E815F8129
:1013000068858A850E94BD09F801E659FE4F8081F3
:101310008C2580830E94B2170E94C20890916901B7
:101320008917D9F00E94C208809369012A960FB6E6
:10133000F894DEBF0FBECDBFDF91CF911F910F910B
:10134000FF90EF90DF90CF90BF900C94090501962D
:101350008630910509F0B0CF8FCF2A960FB6F8945A
:10136000DEBF0FBECDBFDF91CF911F910F91FF90D8
:10137000EF90DF90CF90BF900895CF93DF93CDB7DC
:10138000DEB72B970FB6F894DEBF0FBECDBF4F83ED
:10139000588769877A878B87DE01119686E0FD0181
:1013A00011928A95E9F785E0FE01379601900D923A
:1013B0008A95E1F749815A816B817C818D819E817B
:1013C0000E9458102B960FB6F894DEBF0FBECDBF0B
:1013D000DF91CF910895CF93C82F882309F4E0C0FF
:1013E000823879F40E94C20881FDDAC089E30E9444
:1013F000B4130E94791489E30E94F013CF910C94E6
:101400007914833859F40E94C20880FDC9C083E56D
:101410000E94B4130E94791483E5EECF843859F406
:101420000E94C20882FDBCC087E40E94B4130E94DF
:10143000791487E4E1CF8CEF8C0F813A48F48C2F3C
:101440000E94EE198111ACC08C2F0E94B413D6CF2C
:1014500080E28C0F883048F4C77081E001C0880FAB
:10146000CA95EAF70E943014C9CF8BE58C0F833000
:1014700078F4C53A39F0C63A41F083E890E0CF916C
:101480000C94E40881E890E0FACF82E890E0F7CF8E
:1014900088E58C0F853108F083C0C83A09F441C053
:1014A000C93A09F441C0CA3A09F441C0CB3A09F437
:1014B00041C0CC3A09F441C0CB3B09F441C0CC3B1C
:1014C00009F441C0CD3A09F441C0C03B09F441C020
:1014D000CE3A09F441C0CF3A09F441C0C13B09F406
:1014E00041C0C23B09F441C0C33B09F441C0C43B05
:1014F00009F441C0C53B09F441C0C63B09F441C0F1
:10150000C73B09F441C0C83B09F441C0C93B09F4D9
:1015100041C0CA3B09F441C080E090E0CF910C94F7
:10152000FA0882EE90E0FACF89EE90E0F7CF8AEEEB
:1015300090E0F4CF85EB90E0F1CF86EB90E0EECF3A
:1015400083EB90E0EBCF84EB90E0E8CF87EB90E08B
:10155000E5CF8CEC90E0E2CF8DEC90E0DFCF83E83C
:1015600091E0DCCF8AE891E0D9CF82E991E0D6CF53
:1015700084E991E0D3CF81E292E0D0CF83E292E0A0
:10158000CDCF84E292E0CACF85E292E0C7CF86E277
:1015900092E0C4CF87E292E0C1CF8AE292E0BECF70
:1015A000CF910895882309F44BC0823871F40E94CA
:1015B000C20881FF45C089E30E94B4130E947914D8
:1015C00089E30E94F0130C947914833859F40E9433
:1015D000C20880FF35C083E50E94B4130E947914CD
:1015E00083E5EFCF843859F40E94C20882FF28C0F7
:1015F00087E40E94B4130E94791487E4E2CF9CEF41
:10160000980F913AF0F290E2980F983050F487706A
:1016100091E001C0990F8A95EAF7892F0E9436144C
:10162000D2CF9BE5980F933020F480E090E00C94AB
:10163000E408885A853120F480E090E00C94FA08A0
:101640000895882321F00E9430140C947914089591
:10165000882321F00E9436140C94791408958F92F7
:101660009F92AF92BF92DF92EF92FF920F931F93E0
:10167000CF93DF937C01D62FC72FFC010581029504
:101680000F70128111110E944F140E94AD13D82EB9
:10169000882371F0112331F180E28D0F883010F131
:1016A00082E00E9496130E94AD1391E0D82ED926B5
:1016B000EC2FE295EF708E2F90E0FC01EE59F44F85
:1016C0000C94AD22740B740BC50BC50BFD0B1B0CDE
:1016D000A20BA20B260CA20BC10CC10C320DA20B4B
:1016E000A20B3B0DD12CE4CF8C2F807FCF708823B1
:1016F00011F0C295C07F1123A9F0CC2359F080E2EC
:101700008D0F883010F0D11109C08C2F0E94301439
:101710000E9479148D2F0E94EB0914C08C2F0E9417
:101720004114F6CF8D2F0E94D20ACC2359F080E2CB
:101730008D0F883010F0D11124C08C2F0E943614E8
:101740000E947914DD2009F49DC10E94891380FD57
:1017500099C1F70112820E9483130E94FF11C701F1
:101760000E944E0D0E948313DF91CF911F910F9124
:10177000FF90EF90DF90BF90AF909F908F900C9470
:1017800020128C2F0E944714DBCF8C2F807FCF70CC
:10179000803211F0C295C07FDD2339F0D130F1F0F5
:1017A000112329F1002329F0B5CF112361F0011194
:1017B00004C08C2F0E94210BC5CF8C2F0130D1F794
:1017C0000E946314BFCF011106C00E9466148C2FC3
:1017D0000E94280BB7CF0130C1F7B4CF112321F0FD
:1017E000023008F0AFCFE5CF0111ACCFF0CF00232E
:1017F00071F38D2F0E94D20AA5CF8C2F86958695E6
:10180000837059F0813009F09DCF112389F08D2F1D
:101810009C2F93700E94FA0895CF112331F08D2FE1
:101820009C2F93700E94E4088DCF80E090E0FACF67
:1018300080E090E0EFCF8D2F112329F00E94BB169E
:101840000E94A7177FCF0E942317FACF8C2F837097
:1018500009F048C0111176CF2D2F229526952770BB
:10186000220F220F6D2F6F70862E912CA12CB12C80
:10187000022E04C0880C991CAA1CBB1C0A94D2F727
:10188000D4FF1EC06FE070E080E090E004C0660FFF
:10189000771F881F991F2A95D2F7609570958095BC
:1018A0009095C695C695C370C23071F0A0F46829B2
:1018B00079298A299B29C13091F00E94A81142CF31
:1018C00060E070E0CB01EDCF682979298A299B2956
:1018D0000E94C41137CF0E94A811C501B4010E9413
:1018E0008C1130CF1123C9F18C2F8170882309F41A
:1018F00029CF2D2F229526952770220F220F6D2F8D
:101900006F70862E912CA12CB12C022E04C0880C55
:10191000991CAA1CBB1C0A94D2F7D4FF20C06FE00C
:1019200070E080E090E004C0660F771F881F991F69
:101930002A95D2F76095709580959095C695C69535
:10194000C370C23081F0B0F4682979298A299B29B3
:10195000C130A1F00E948212F5CE8695C7CF60E01B
:1019600070E0CB01EBCF682979298A299B290E9455
:101970009E12E8CE0E948212C501B4010E94661236
:10198000E1CE8D2F90E0FC01E05EF109E531F1053B
:1019900008F060C0E253F34F0C94AD22E30CE30C6B
:1019A000E30CE30CE30CE30CE30CE30CE30CE30CBF
:1019B000E30CE30CE30CE30CE30CE30CF00CFD0C88
:1019C000040D0B0D150DDF708C2F8F71112321F07D
:1019D0000E94FF118D2FEECE0E9420128D2FF8CE87
:1019E000112339F00111AECE8C2F8F710E94451258
:1019F000A9CE023008F0A6CEF7CF112339F08C2FF4
:101A00008F710E94FF119ECE1123C9F38C2F8F710D
:101A10000E94201297CE112329F08C2F8F710E94E3
:101A2000EA1190CE0E94E0118DCE112349F0CF71C2
:101A30008C2F0E94FF1163E08C2F0E948D1382CEA9
:101A400081E00E949613023008F47CCE82E00E946E
:101A5000961378CE112319F0002389F25BCE002370
:101A6000A9F2C7CE4C2F4F706D2FC7010E94BC0347
:101A70000E94061167CE4C2F4F706D2FC7010E9438
:101A8000970660CEDF91CF911F910F91FF90EF905D
:101A9000DF90BF90AF909F908F9008950F931F930A
:101AA000CF93DF93EC01988189812B813C81232B9B
:101AB00039F08F3F19F481E09F3F19F080E001C0B9
:101AC00081E080FD13C0CE010E94FD03882371F0E8
:101AD000688179818A810E9460138C010E94BA1208
:101AE0000E948111B801CE010E942F0BDF91CF918E
:101AF0001F910F9108950E944F140E9460140E943C
:101B000022140E9479140E9455180E94A71780E0A1
:101B100090E00E94E40880E090E00C94FA080E94B3
:101B20003E140C947B0D0E945513E92FE295EF7043
:101B30004E2F50E0FA013297EE30F105D8F4ED5512
:101B4000F24F0C94AD22B10DB10DBA0DBA0DBC0D12
:101B5000BA0DBA0DBA0DB10DB10DC10DBA0DBA0D58
:101B6000C10D803F19F020F4803E20F481E00895FB
:101B7000843FE1F380E00895803EC0F3813FD1F7D8
:101B8000F5CF93FB882780F90895CF93DF9300D09A
:101B900000D01F92CDB7DEB70F900F900F900F902F
:101BA0000F90DF91CF910895CF93DF9300D000D0B5
:101BB00000D0CDB7DEB726960FB6F894DEBF0FBEC5
:101BC000CDBFDF91CF9108951F93CF93DF93C09145
:101BD000790116E080917A01C81304C0DF91CF919A
:101BE0001F910895D0E01C9FF0011D9FF00D11245E
:101BF000E558FE4F408151816281738184819581D6
:101C00000E94D40D2196C770E5CF4091AB01509151
:101C1000AC016091AD017091AE018091AF019091E6
:101C2000B0010C94D40D1F93CF93DF938091B0013A
:101C300082958F70D1F48091AD018823B1F08091AD
:101C40007901D0917A01B091AB01C091AC01409182
:101C5000AE015091AF01A1E0BF3F09F0A0E0BA0191
:101C60006095709516E08D1304C0DF91CF911F91A0
:101C7000089541155105D9F1CF3FD9F120E090E009
:101C800020FD3CC0189FF001199FF00D1124E5586C
:101C9000FE4F21812C1332C020812B132FC02281B3
:101CA00021112CC0238134812417350720F1241BF6
:101CB000350B283C310510F52091B0012F702061C3
:101CC0002093B00126E0289FF001299FF00D1124F8
:101CD000E058FE4F80818F70806180838BEA91E0B5
:101CE0000E944E0DDF91CF911F910C94E40D21E0E5
:101CF000C6CF2A2FC4CF260F371FDBCF01968770A0
:101D0000B2CFAF92BF92CF92DF92EF92FF920F933A
:101D10001F93CF93DF93CDB7DEB761970FB6F894DB
:101D2000DEBF0FBECDBF8C0185E0F801DE011D9640
:101D300001900D928A95E1F7D8014C9111965C9132
:101D400011971296EC903091AB016091AC018091AB
:101D5000AE019091AF01009739F06F3F19F421E087
:101D60003F3F19F020E001C021E0B22FB170BB2E3F
:101D700020FD90C1F801C380D480A090AD01AA20BD
:101D800009F432C12091B001C816D90610F1D6016C
:101D9000A81BB90BCD01FF24F394883C9105F0F00A
:101DA000F12C207F09F0E9C07C2DD98AC88A6E2DDC
:101DB00089890E94C50D8BEA91E00E944E0DEBEAE5
:101DC000F1E086E0DF011D928A95E9F70E94050E99
:101DD0001EC0809590958C0D9D1DDDCF822F807F3C
:101DE00009F084C0651325C0341323C0FE2CE11014
:101DF00020C02F7020612093B0010E94050E8BEA55
:101E000091E00E944E0D8091B001F80185838F2DE5
:101E100061960FB6F894DEBF0FBECDBFDF91CF91B4
:101E20001F910F91FF90EF90DF90CF90BF90AF90F8
:101E30000895CD2839F05F3F19F481E04F3F19F044
:101E400080E001C081E080FD24C081E08E25F82F74
:101E5000F170FF2E80FF3FC08091790120917A01BF
:101E600036E0821318C04D875E878D859E850E945F
:101E70005513292F22952F70223008F1243030F588
:101E80009F7009F1D80115969C91907FE1F4FB2C8D
:101E9000BECF80E0DCCF90E0389FF001399FF00D9D
:101EA0001124E558FE4F6181561306C0608164130A
:101EB00003C06281E6120FC001968770D2CF9F7077
:101EC00011F0882321F3805E883008F3C8010E9456
:101ED0004E0DBF2CDCCFFE2CEE2009F498CF809164
:101EE000B00181608093B001F12C91CF651314C0D3
:101EF000341312C0E11010C08091B001F801858345
:101F0000C8010E944E0D86E0F801ABEAB1E00190F5
:101F10000D928A95E1F75ACF4D875E878D859E8514
:101F20000E94930D882309F4BFC0EE2009F4BCC0C1
:101F30002091B001822F82958F7090E0029774F00B
:101F40008091AB019091AC0198878F831986DB86D5
:101F5000CA862C87CE0107960E944E0D86E0F801B6
:101F6000ABEAB1E001900D928A95E1F70E94130E61
:101F70000E94050EFF24F3944ACF651314C0341356
:101F800012C0E11010C08091B001F8018583C80132
:101F90000E944E0D86E0EBEAF1E0DF011D928A958A
:101FA000E9F7FA2C34CF4D875E878D859E850E9498
:101FB000930D882309F478C0EE2009F475C02091B0
:101FC000B001822F82958F7090E002973CF2809151
:101FD000AB019091AC019A8389831B82DD82CC8214
:101FE0002E83CE010196B8CFC816D90680F0F6012F
:101FF000E81BF90BCF01883C910570F0F12C7C2D8A
:10200000D98AC88A6E2D89890E94C50DD8CE80953F
:1020100090958C0D9D1DEFCFFE2CEE2009F444C051
:10202000651327C0341325C08091B00180FD18C00E
:10203000982F92959F70292F30E02115310581F05E
:10204000D80115968C9315972F30310509F458CF88
:102050009F5F9295907F8F70892B15968C9350CFB0
:1020600086E0F801ABEAB1E001900D928A95E1F7C4
:10207000CECE4D875E878D859E850E94930D811102
:102080006DCF8091B00181608093B001C8010E9442
:102090004E0DBDCEEE2041F04D875E878D859E852D
:1020A0000E94930D81115ACFC8010E944E0D62CF3C
:1020B0001F93CF93DF93CDB7DEB72C970FB6F8946D
:1020C000DEBF0FBECDBF4F83588769877A878B8766
:1020D0009C87CE0107960E94810E882349F19F813B
:1020E00088852A853B85232B39F08F3F19F481E0C1
:1020F0009F3F19F080E001C081E080FD08C04F8162
:10210000588569857A858B859C850E94D40D16E05B
:102110008091790190917A01891348C02C960FB66D
:10212000F894DEBF0FBECDBFDF91CF911F91089510
:1021300086E0FE013796DE01119601900D928A9598
:10214000E1F7FF81E8856A857B856115710539F0C6
:10215000EF3F19F481E0FF3F19F080E001C081E01A
:1021600080FDD5CF20917A0130E0C90101968770BA
:1021700099274091790150E084179507C9F1F983B7
:10218000EA837D836C8396E0929FD001939FB00D8C
:102190001124A558BE4FFE01319601900D929A95DB
:1021A000E1F780937A010E94E40DB1CF819FC001D5
:1021B000112485589E4F0E94810E882309F4AECFCA
:1021C000E09179011E9FF0011124E558FE4F4081F6
:1021D000518162817381848195810E94D40D8091A7
:1021E000790190E00196877099278093790190CFCB
:1021F0000E948F0D10927A0110927901EBEAF1E0C2
:1022000086E0DF011D928A95E9F788CFEF92FF9271
:102210000F931F93CF93DF938C01892B81F0F12CC7
:10222000EE24E394E8012196F8018491843770F458
:10223000843008F062C08130B1F08230B1F1DF91BA
:10224000CF911F910F91FF90EF900895853709F47A
:102250004FC008F43FC09CE7980F903780F78F7706
:102260000E94D20A4CC00E5F1F4FFE01849190E283
:10227000980F983060F48770FE2D01C0FF0F8A958B
:10228000EAF78F2F0E9452140E94791402C00E9414
:10229000EB098F2D882309F4C5CFEFE9FFE03197D3
:1022A000F1F700C000008150F5CF0E5F1F4FFE0117
:1022B000849190E2980F983050F48770FE2D01C001
:1022C000FF0F8A95EAF78F2F0E945814DDCF0E94E6
:1022D000D20ADFCF0E5F1F4FFE01C491CC23C9F29B
:1022E0008FE99FE00197F1F700C00000C150F6CFE1
:1022F0000E5F1F4FFE01F490CCCF0E94EB098E01C0
:10230000C8CF08956093EC017093ED018093EE01C6
:102310009093EF010C947B0D0F931F930091EC01B0
:102320001091ED012091EE013091EF01DC01CB0124
:10233000802B912BA22BB32B8093EC019093ED017A
:10234000A093EE01B093EF011F910F910C947B0DC0
:102350000F931F930091EC011091ED012091EE017C
:102360003091EF01DC01CB0180239123A223B32321
:102370008093EC019093ED01A093EE01B093EF01F7
:102380001F910F910C947B0D0F931F930091EC0103
:102390001091ED012091EE013091EF01DC01CB01B4
:1023A00080279127A227B3278093EC019093ED011A
:1023B000A093EE01B093EF011F910F910C947B0D50
:1023C0001092E8011092E9011092EA011092EB01DB
:1023D0000C947B0D41E050E060E070E004C0440FDD
:1023E000551F661F771F8A95D2F74093E8015093D7
:1023F000E9016093EA017093EB010C947B0D41E0DD
:1024000050E060E070E004C0440F551F661F771F66
:102410008A95D2F78091E8019091E901A091EA01B3
:10242000B091EB01842B952BA62BB72B8093E80161
:102430009093E901A093EA01B093EB010C947B0D1A
:1024400041E050E060E070E004C0440F551F661F9B
:10245000771F8A95D2F74095509560957095809139
:10246000E8019091E901A091EA01B091EB01842388
:102470009523A623B7238093E8019093E901A093C5
:10248000EA01B093EB010C947B0D41E050E060E079
:1024900070E004C0440F551F661F771F8A95D2F75E
:1024A0008091E8019091E901A091EA01B091EB01DE
:1024B00084279527A627B7278093E8019093E90101
:1024C000A093EA01B093EB010C947B0D0F931F9343
:1024D0000091E8011091E9012091EA013091EB01AE
:1024E000DC01CB01802B912BA22BB32B8093E80135
:1024F0009093E901A093EA01B093EB011F910F9132
:102500000C947B0D0F931F930091E8011091E9014A
:102510002091EA013091EB01DC01CB018023912372
:10252000A223B3238093E8019093E901A093EA01E9
:10253000B093EB011F910F910C947B0D0F931F93A0
:102540000091E8011091E9012091EA013091EB013D
:10255000DC01CB0180279127A227B3278093E801D4
:102560009093E901A093EA01B093EB011F910F91C1
:102570000C947B0D0895E92FEE0FE90FEE0F8E0FEF
:10258000982F977041E001C0440F9A95EAF786951D
:102590008695869595E0899FF0011124EF54FE4FB2
:1025A00020E030E070E05081CB01022E02C0969511
:1025B00087950A94E2F78170819585278423852782
:1025C00081932F5F3F4F2530310569F70895292FFB
:1025D000220F290F220F820F982F977086958695CC
:1025E000869545E0849F9001112460E070E080E0D2
:1025F000F901E60FF71FEF54FE4F408150E0092E1E
:1026000002C0569547950A94E2F741705527062E69
:1026100001C0440F0A94EAF7842B6F5F7F4F653047
:10262000710531F70895BF92CF92DF92EF92FF923A
:102630000F931F93CF93DF938C01C090E801D0904C
:10264000E901E090EA01F090EB018091EC019091BA
:10265000ED01A091EE01B091EF01C82AD92AEA2A32
:10266000FB2ACFE1D0E0BC2ED701C6010C2E04C05E
:10267000B695A795979587950A94D2F780FD0EC0D9
:10268000219788F7B12C8B2DDF91CF911F910F915E
:10269000FF90EF90DF90CF90BF900895B8018C2FFE
:1026A0000E940B05019761F3EECFCF93DF93EC010E
:1026B0000E941313BE010E940B05DF91CF91089574
:1026C0001F93CF93DF93EB0190917801992339F019
:1026D000CB010E945513DF91CF911F91089588235C
:1026E00069F0CB010E941313182F682FCE010E94AE
:1026F000BB12BE01812F0E940B05EDCFCB010E94C2
:10270000E712182FF6CF8091F00185958595859574
:1027100008958091F0018770089598E0899F900155
:102720001124622B6093F0010C94FF112091F001B1
:10273000809582238093F001982F977069F430E0A0
:10274000482F082E000C550B2417350729F08595C6
:10275000859585950C94201208959091F0019770BD
:1027600081E009F480E00895909114019923D9F053
:102770009091480297FF17C0982F96959695969539
:102780009F3131F1E0910201F0910301E90FF11D58
:10279000877021E030E001C0220F8A95EAF781813D
:1027A000822B818308952091020130910301F90168
:1027B00032969FEF40E05191851751F09F3F19F4F9
:1027C000511101C0942F4F5F4E31A9F79F3F09F47B
:1027D0000895290F311D97FD3A95F90182830895D7
:1027E000909114019923E9F09091480297FF19C044
:1027F000982F9695969596959F3119F1E091020143
:10280000F0910301E90FF11D282F277081E090E07E
:1028100001C0880F2A95EAF78095918189238183E9
:1028200008952091020130910301F9013296205E52
:102830003F4F9081891301C010823196E217F30750
:10284000C1F7089581E090E0E0910201F091030169
:10285000E80FF91F1082019680329105A9F70895BB
:1028600090911402892B809314020895982F9095CB
:102870008091140289238093140208951092140207
:10288000089590911302892B809313020895982F35
:1028900090958091130289238093130208951092DA
:1028A0001302089590911202892B809312020895C9
:1028B000982F909580911202892380931202089597
:1028C0001092120208958093F10108951092F1017F
:1028D00008952091020130910301F9013196205EA3
:1028E0003F4F80E0919191118F5FE217F307D1F78D
:1028F0000895E0910201F091030180911402808318
:10290000E0910201F0910301808190911302892BE3
:102910008083E0910201F091030180819091120285
:10292000892B80839091F101992361F0E09102015C
:10293000F09103018081892B80830E9469148111A9
:102940001092F10180910201909103010C94CE0844
:10295000CF92DF92EF92FF926C01EE24FF24C1141C
:10296000D104E104F10409F440C0C701B60120E13B
:10297000C72ED82EE92EFF24C114D104E104F1049E
:1029800019F0285FC701B6016B017C0154E0F69491
:10299000E794D794C7945A95D1F7C114D104E104B0
:1029A000F10419F02C5FC701B6016B017C0142E014
:1029B000F694E794D794C7944A95D1F7C114D104FB
:1029C000E104F10419F02E5FC701B60196958795D1
:1029D00077956795672B682B692B09F02F5F822FFE
:1029E000FF90EF90DF90CF90089520E0C1CF6DEE83
:1029F0007EEF80E090E00E94E72260E082E090E0DD
:102A00000E94D52260E083E090E00E94D52260E041
:102A100084E090E00E94D52260E085E090E00C9494
:102A2000D52280E090E00E94CF2221E08D3E9E4F93
:102A300009F020E0822F089582E090E00C94C722F4
:102A400083E090E00C94C72284E090E00C94C722CD
:102A5000682F84E090E00C94D52280914E0284305F
:102A600039F11092160220E488E190E00FB6F89454
:102A7000A895809360000FBE2093600080E00E94C4
:102A8000090583B7817F846083BF83B7816083BF7B
:102A90007894889583B78E7F83BF0FB6F894A895F6
:102AA00080916000886180936000109260000FBE8A
:102AB00008950895CF930E94B1020E94C4020E941B
:102AC0005915C0E08C2F0E94B503811105C0CF5F5E
:102AD000CE30C1F7CF91089581E0FCCF0E948F0DD9
:102AE0000E94C2080C9409051F920F920FB60F9214
:102AF00011248F939F93AF93BF93809116028111FE
:102B000013C08091170290911802A0911902B09100
:102B10001A024196A11DB11D8093170290931802CD
:102B2000A0931902B0931A02BF91AF919F918F9118
:102B30000F900FBE0F901F90189582E084BD93E018
:102B400095BD9AEF97BD80936E0008952FB7F894C6
:102B50008091170290911802A0911902B0911A0267
:102B60002FBF0895CF92DF92EF92FF920F931F93A2
:102B70002FB7F894409117025091180260911902F2
:102B800070911A022FBF6A017B01EE24FF248C0191
:102B900020E030E0C016D106E206F30650F0481BF4
:102BA000590BCA011F910F91FF90EF90DF90CF90CA
:102BB000089541505109F3CF1F920F920FB60F9213
:102BC00011248F939F93AF93BF938091170290919D
:102BD0001802A0911902B0911A020196A11DB11D0F
:102BE0008093170290931802A0931902B0931A02CF
:102BF000BF91AF919F918F910F900FBE0F901F903B
:102C000018950E946A1EF8942FEF87EA91E62150EA
:102C100080409040E1F700C0000087E090EBDC01CD
:102C20008093570290935802A0935902B0935A028E
:102C30009CE088E10FB6F894A895809360000FBEE1
:102C400090936000FFCF0E941115811102C00E9475
:102C5000F7140E941C15809315020E94241590E021
:102C600090934902809348020E942015682F70E0DB
:102C700080E090E00C94821180911D0280FF12C0D0
:102C80006091070185E0689FB001112475956795F3
:102C90007595679560387105A8F56115710581F521
:102CA00081E0089581FF09C06091070185E0689F78
:102CB000B001112475956795EDCF82FF07C0609133
:102CC000070185E0689FB0011124E4CF90911E02B6
:102CD0009923A1F060910601961788F720910701CA
:102CE00085E0289F90011124929FA001939F500D91
:102CF000112470E0CA010E949922CCCF65E070E0F7
:102D0000862F08958FE7089580911D0280FF0CC0E3
:102D10006091050170E075956795759567956115EA
:102D2000710539F581E0089581FF06C060910501C4
:102D300070E075956795F3CF82FF08C0609105013B
:102D400070E06038710558F38FE7089580911E0296
:102D5000882369F060910401861780F7909105013E
:102D6000899FC001112470E00E949922EACF61E09E
:102D700070E0862F0895803F31F40E943C168195C3
:102D8000809321020895813F19F40E943C16F8CFE8
:102D9000823F31F40E943C16819580932002089571
:102DA000833F19F40E943C16F8CF893F29F40E9412
:102DB00084168093220208958A3F21F40E9484168B
:102DC0008195F7CF8B3F31F40E94841681958093D3
:102DD000230208958C3F19F40E948416F8CF843F93
:102DE00031F480911F02816080931F020895853F16
:102DF00021F480911F028260F7CF863F21F48091F9
:102E00001F028460F1CF873F21F480911F02886008
:102E1000EBCF883F21F480911F028061E5CF8D3F89
:102E200031F480911D02816080931D0208958E3FD0
:102E300021F480911D028260F7CF8F3FB9F7809116
:102E40001D028460F1CF803FC1F48091210287FD93
:102E5000109221028091200281110EC080912102E6
:102E600081110AC080912202811106C08091230243
:102E7000811102C010921E020895813F29F48091B1
:102E8000210218162CF3E6CF90912002823F29F4FC
:102E900097FFE0CF10922002DDCF833F19F419167F
:102EA000CCF3D8CF893F39F480912202181694F6DA
:102EB00010922202CFCF8A3F29F48091220287FF0D
:102EC000C9CFF6CF8B3F39F48091230287FFC2CF61
:102ED00010922302BFCF8C3F29F480912302181651
:102EE000BCF3B8CF843F31F480911F028E7F809372
:102EF0001F02B0CF853F21F480911F028D7FF7CF55
:102F0000863F21F480911F028B7FF1CF873F21F410
:102F100080911F02877FEBCF883F21F480911F02B1
:102F20008F7EE5CF8D3F31F480911D028E7F80939F
:102F30001D0290CF8E3F21F480911D028D7FF7CF2F
:102F40008F3F09F087CF80911D028B7FF0CF8FE1FB
:102F500092E00E94D9080E94A61590931C028093CB
:102F60001B0208951F93CF93DF9380911B029091D2
:102F70001C020E94B215AC0190911E029923D1F05F
:102F80002091080130E04217530780F08091200221
:102F9000C0912102D091220210912302811111C00F
:102FA000C1117FC0D1117DC011117BC0DF91CF91C4
:102FB0001F910895209109018AE0289F9001112412
:102FC000E2CF9F3F19F09F5F90931E02181624F4E2
:102FD0000E943C16809320028091200287FF05C04A
:102FE0000E943C168195809320021C1624F40E94B6
:102FF0003C16809321028091210287FF05C00E9428
:103000003C1681958093210260912002662331F164
:10301000C0912102CC2311F1062E000C770B880BF6
:10302000990B0E94A02123E333E343E35FE30E9473
:1030300004220E946821609320026C2FCC0F770B32
:10304000880B990B0E94A02123E333E343E35FE362
:103050000E9404220E946821609321021D1624F41C
:103060000E948416809322028091220287FF05C06D
:103070000E948416819580932202111624F40E94E6
:103080008416809323028091230287FF05C00E944B
:103090008416819580932302DF91CF911F910C9428
:1030A000A7179F3F09F08FCFA0CFEFE1F2E085E0B7
:1030B000DF011D928A95E9F710921E0210921D02FF
:1030C0000895833081F128F4813059F08230D1F0B5
:1030D0000895853009F449C0B8F1863009F456C026
:1030E000089580910901262F30E0280F311D2F3FD0
:1030F000310524F4680F6093090108958FEF8093E0
:103100000901089580910801262F30E0280F311D14
:103110002F3F310524F4680F6093080108958FEF65
:1031200080930801089580910701262F30E0280F31
:10313000311D2F3F310524F4680F60930701089576
:103140008FEF80930701089580910601262F30E0CC
:10315000280F311D2F3F310524F4680F60930601BD
:1031600008958FEF80930601089580910501262F21
:1031700030E0280F311D2F3F310524F4680F609394
:10318000050108958FEF80930501089520910401B2
:10319000862F90E0820F911D8F3F910524F4620FDE
:1031A0006093040108958FEF8093040108958330A4
:1031B00011F128F4813049F0823091F00895853082
:1031C00081F120F18630C1F10895809109016817DD
:1031D00020F4861B80930901089510920901089537
:1031E00080910801681720F4861B809308010895D8
:1031F00010920801089580910701681720F4861B3A
:1032000080930701089510920701089580910601A7
:10321000681720F4861B809306010895109206011A
:10322000089580910501681720F4861B809305019D
:10323000089510920501089580910401681720F403
:10324000861B8093040108951092040108950F9342
:103250001F9341E050E060E070E08A019B0104C0F0
:10326000000F111F221F331F8A95D2F7C901B80121
:103270000E9482111F910F910C948F0D873208F0DC
:103280004CC08E3108F099C0803109F488C0E0F458
:10329000873009F474C028F4863009F466C080E0F1
:1032A00008958B3009F45FC08E30C9F78091150204
:1032B00082FB992790F921E0922790FB82F9809375
:1032C000150282FD26C04FC0863109F44CC080F43F
:1032D000813129F70E948F0D8091480287FB992741
:1032E00090F921E0922790FB87F9809348023BC038
:1032F0008931C9F18B3199F68091150281FB9927AB
:1033000090F921E0922790FB81F98093150281FFCB
:103310002AC08091150281603CC0883321F148F4B5
:10332000893229F0853319F0873209F0B8CF80E06F
:1033300007C08334E1F338F48A3308F4B0CF8953FB
:103340000E94271910C0883409F0A9CF0E948F0D60
:103350002FEF83ED90E3215080409040E1F700C0D3
:1033600000000E94011681E0089580911502817F7E
:103370008E7F8093150281E08093250208958091CD
:103380001502982F909590FB80F980FF05C086600C
:10339000886080931502E7CF897F877FFACF80917D
:1033A000150283FB992790F921E0922790FB83F97E
:1033B0008093150283FDADCFD6CF8D51C1CF80E074
:1033C00008950C94DF198E518A3030F4E82FF0E024
:1033D000EB5EFE4F8081089580E00895CF93C82F63
:1033E000809125028130E1F038F0823009F43FC04D
:1033F0001092250280E012C0E0910201F0910301D9
:103400008081813111F08232A9F78C2F0E94E1195D
:1034100081111DC08C2F0E943E198170CF9108959B
:10342000E0910201F09103018081813171F38232D8
:1034300061F38C2F0E94DF19811110C0C43181F01B
:1034400048F4CB3059F0C03171F080E0E6CF81E034
:1034500090E0E3CFC93221F0C833B9F781E0DDCF86
:1034600010922502F2CF82E080932502F7CFC93275
:1034700019F188F4C43101F120F4C73081F181E001
:10348000CDCF82EE8C0F8630D0F78C2F0E94E319BF
:1034900080932402F4CFCE3401F120F4CB3479F7B9
:1034A0006AE005C0C13599F0C23549F761E0809105
:1034B00024020E946118E3CF80912402882319F02E
:1034C00010922402DCCF81E080932502A7CF61E037
:1034D000809124020E94D718D2CF6AE0F9CF8AE007
:1034E0008093090194E19093080193E09093070180
:1034F0008093060188E08093050188E280930401AF
:10350000BECF809146020895CF93DF9300D01F92E3
:10351000CDB7DEB79C0180914E02843019F593E05F
:1035200099833B832A839093E9008FEF9091E80081
:10353000815095FD06C095ED9A95F1F70000811137
:10354000F5CF8091E80085FF0DC040E050E063E0DA
:1035500070E0CE0101960E94DD1C8091E8008E771C
:103560008093E8000F900F900F90DF91CF91089516
:10357000CF93DF9300D01F92CDB7DEB720914E02DC
:10358000243021F522E029839B838A8383E0809382
:10359000E9008FEF9091E800815095FD06C095ED10
:1035A0009A95F1F700008111F5CF8091E80085FF31
:1035B0000DC040E050E063E070E0CE0101960E9453
:1035C000DD1C8091E8008E778093E8000F900F90CB
:1035D0000F90DF91CF9108959C0180914E0284302D
:1035E000F9F482E08093E9009FEF8091E800915028
:1035F00085FD06C085ED8A95F1F700009111F5CFA4
:103600008091E80085FF0CC040E050E065E070E08C
:10361000C9010E94DD1C8091E8008E778093E8004C
:103620000895CF93DF93EC0180914E02843071F5C1
:1036300090911401992369F19091480297FF29C054
:103640008093E9008FEF9091E800815095FD06C0CE
:1036500095E19A95F1F700008111F5CF8091E8008E
:1036600085FF14C040E050E060E270E0CE010E94AF
:10367000DD1C8091E8008E778093E80080E2FE01F7
:10368000A6E2B2E001900D928A95E1F7DF91CF9129
:10369000089581E08093E9008FEF9091E8008150D8
:1036A00095FD06C095ED9A95F1F700008111F5CFD3
:1036B0008091E80085FFEACF40E050E068E070E0EC
:1036C000D5CF80914D02811109C00E946A1E0E94CF
:1036D000C71E8091E20084608093E20008951092FA
:1036E0004D020895089508950C946E1542E061EC22
:1036F00081E00E94E71D42E061EC82E00E94E71D4C
:1037000042E061EC83E00E94E71D42E261EC84E06C
:103710000C94E71D80915002833009F455C030F4B9
:10372000813071F1823009F491C008958A3009F432
:103730007DC08B3009F463C0893009F044C08091AA
:103740004F02813209F03FC08091530290915402A0
:10375000009711F00397B9F58091E800877F809377
:10376000E8008091E80082FF2AC08091F1008093F8
:1037700046028091E8008B778093E8000C941C1E31
:1037800080914F02813AF9F48091E800877F80931D
:10379000E8008091530290915402892B61F460E219
:1037A00086E292E070E00E942C1D8091E8008B7709
:1037B0008093E800089560E080E090E0F3CF80918E
:1037C0004E028111CECF089580914F02813AD9F7F0
:1037D0008091530290915402892BA9F78091E800BF
:1037E000877F8093E8008091E80080FFFCCF809184
:1037F00014018093F1008091E8008E77BDCF809115
:103800004F02813201F78091530290915402892B2B
:10381000D1F68091E800877F8093E8000E941C1E0B
:1038200080915102809314010C948F0D80914F026E
:10383000813249F68091E800877F8093E8000E94FA
:103840001C1E8091520280934702089580914F027E
:10385000813A09F0B8CF8091E800877F8093E80033
:103860008091E80080FFFCCF80914702C2CF84B7EF
:10387000877F84BF0FB6F894A89580916000886117
:1038800080936000109260000FBE80E8809361001A
:10389000109261000E9411090E946A1E0E94C71EB8
:1038A0008091E20084608093E20078940E944C2131
:1038B0000E9413098AE091E00E94BD0880914E02A7
:1038C000853019F00E941909F9CF0E942D158091B9
:1038D0004C02882399F30E945A15882379F30E9499
:1038E000C71CECCF292F33272330310579F158F449
:1038F00021303105F1F02230310519F180E090E0FE
:1039000020E030E01AC02132310599F12232310530
:10391000A9F7643098F770E0FB01EE0FFF1FED5D33
:10392000FE4F20813181615E7E4FFB01808190E0FE
:1039300004C082E190E021EA32E0FA013183208381
:1039400008958DE690E024E332E0F7CF99278130A7
:10395000910561F028F0029789F6E0E0F2E002C0FC
:10396000E0E3F2E0849190E09F01E7CFE8E1F2E04C
:10397000F9CF643008F0C2CFE62FF0E0EE0FFF1F62
:10398000E55DFE4F2081318189E090E0D6CF80E176
:1039900089BD82E189BD09B400FEFDCF8091D800C8
:1039A0008F7D8093D8008091E00082608093E0005A
:1039B0008091E00081FDFCCF0895AF92BF92DF922D
:1039C000EF92FF920F931F93CF93DF93EC018B0144
:1039D0007A010E943B1ED82E811124C0E114F1040B
:1039E00039F0F70180819181081B190BC80FD91F8D
:1039F000A12CB12C01151105A9F08091E80085FDDD
:103A000022C08091E8008E778093E800E114F104F1
:103A1000A1F0F70180819181A80EB91EB182A08228
:103A200085E0D82E8D2DDF91CF911F910F91FF90C2
:103A3000EF90DF90BF90AF9008950E943B1E8823C7
:103A4000C9F2D82EEFCF89918093F100015011096E
:103A5000FFEFAF1ABF0ACECF209155023091560228
:103A600026173707A8F06115710529F42091E800A1
:103A70002E772093E800FC0120E06115710551F4D8
:103A8000211108C08091E80082FF33C080E00895D2
:103A9000B901F1CF80914E028823B9F18530B9F197
:103AA0008091E80083FD2FC08091E80082FDEACF7D
:103AB0008091E80080FFE1CF2091F3008091F20037
:103AC00090E0922B6115710519F08830910550F046
:103AD00021E0089709F020E08091E8008E7780933C
:103AE000E800CBCF21912093F1006150710901963C
:103AF000E9CF80914E02882341F0853041F08091DA
:103B0000E80083FFBFCF81E0089582E0089583E05D
:103B10000895209155023091560226173707A8F0D4
:103B20006115710529F42091E8002E772093E800B3
:103B3000FC0120E06115710551F4211108C080914C
:103B4000E80082FF34C080E00895B901F1CF809190
:103B50004E028823C1F18530C1F18091E80083FDD8
:103B600030C08091E80082FDEACF8091E80080FFBC
:103B7000E1CF2091F3008091F20090E0922B61154B
:103B8000710519F08830910550F021E0089709F08F
:103B900020E08091E8008E778093E800CBCF2491DD
:103BA0002093F1003196615071090196E8CF809120
:103BB0004E02882341F0853041F08091E80083FF78
:103BC000BECF81E0089582E0089583E00895982FA4
:103BD000973028F08F708093E90081E008959093EA
:103BE000E900981751F07091EC002091ED00509190
:103BF000F00021FD06C09F5FEBCF242F762F50E011
:103C0000F8CF3091EB003E7F3093EB003091ED0028
:103C10003D7F3093ED003091EB0031603093EB004D
:103C20007093EC002093ED005093F0002091EE0093
:103C300027FDE1CF80E0089580914F0287FF13C0F8
:103C40008091E80082FF06C08091E8008B77809326
:103C5000E80004C080914E028111F2CF0895809156
:103C60004E028823D9F38091E80080FFF8CF80913D
:103C7000E8008E77ECCF2091E4003091E50085E6F6
:103C80009091EC0090FD20C09091E80092FD20C042
:103C900090914E02992391F0953091F09091EB0024
:103CA00095FD10C04091E4005091E5004217530784
:103CB00039F381509A0121F784E0089582E0089554
:103CC00083E0089581E008959091E80090FFE0CFAF
:103CD00080E008950E94D81E0E94E01EE0EEF0E011
:103CE000808181608083E8EDF0E080818F77808340
:103CF00019BCA7EDB0E08C918E7F8C9380818F7E74
:103D0000808310924D0208950F931F93CF93DF93FA
:103D10000E94D81E0E94E01EC8EDD0E088818F77F7
:103D2000888388818068888388818F7D888319BC97
:103D300010924E0210924A0210924C0210924B02C4
:103D400000EE10E0F80180818B7F808388818160A4
:103D5000888342E060E080E00E94E71DE1EEF0E051
:103D600080818E7F8083E2EEF0E0808181608083BD
:103D7000808188608083F80180818E7F8083888144
:103D800080618883DF91CF911F910F910895E8EDB5
:103D9000F0E080818F7E8083E7EDF0E080818160BC
:103DA000808384E082BF81E080934D020C94841E66
:103DB000E8EDF0E080818E7F80831092E20008952C
:103DC0001092DA001092E10008951F920F920FB640
:103DD0000F9211242F933F934F935F936F937F9391
:103DE0008F939F93AF93BF93EF93FF938091E100E5
:103DF00082FF0BC08091E20082FF07C08091E1004A
:103E00008B7F8093E1000E944B218091DA0080FF3C
:103E100019C08091D80080FF15C08091DA008E7F94
:103E20008093DA008091D90080FF94C080E189BD41
:103E300082E189BD09B400FEFDCF81E080934E028E
:103E40000E94611B8091E10080FF19C08091E20017
:103E500080FF15C08091E2008E7F8093E200809108
:103E6000E20080618093E2008091D80080628093BC
:103E7000D80019BC85E080934E020E94731B80918C
:103E8000E10084FF29C08091E20084FF25C080E129
:103E900089BD82E189BD09B400FEFDCF8091D800C3
:103EA0008F7D8093D8008091E1008F7E8093E10028
:103EB0008091E2008F7E8093E2008091E200816039
:103EC0008093E20080914A02882309F449C084E08B
:103ED00080934E020E94741B8091E10083FF29C0F1
:103EE0008091E20083FF25C08091E100877F80936D
:103EF000E10082E080934E0210924A028091E1003C
:103F00008E7F8093E1008091E2008E7F8093E200BB
:103F10008091E20080618093E20042E060E080E016
:103F20000E94E71D8091F00088608093F0000E945D
:103F3000721BFF91EF91BF91AF919F918F917F91F4
:103F40006F915F914F913F912F910F900FBE0F9006
:103F50001F90189519BC10924E020E946F1B72CFD1
:103F60008091E30087FD02C081E0B2CF83E0B0CF53
:103F70001F920F920FB60F9211242F933F934F93DE
:103F80005F936F937F938F939F93AF93BF93CF93E1
:103F9000EF93FF93C091E900CF708091EC001092F5
:103FA000E9008091F000877F8093F00078940E9470
:103FB000F41F1092E9008091F00088608093F00077
:103FC000C093E900FF91EF91CF91BF91AF919F9185
:103FD0008F917F916F915F914F913F912F910F90B2
:103FE0000FBE0F901F9018951F93CF93DF93CDB7FF
:103FF000DEB7AA970FB6F894DEBF0FBECDBFEFE4D1
:10400000F2E08091F100819322E0E735F207C9F7F1
:104010000E948A1B8091E80083FF44C080914F0278
:1040200090915002492F50E04A30510508F03AC0B3
:10403000FA01E35EFF4D0C94AD2227204B20522065
:104040004B205220A620C92052201E212B2180382F
:1040500079F0823839F5809153028F708093E900AE
:104060008091EB0085FB882780F91092E90006C05B
:1040700080914B0290914C02911182609091E800E6
:10408000977F9093E8008093F1001092F100809167
:10409000E8008E772DC0282F2D7F21F48823D1F0C2
:1040A000823059F18091E80083FF0AC08091E800D6
:1040B000877F8093E8008091EB0080628093EB0023
:1040C000AA960FB6F894DEBF0FBECDBFDF91CF9199
:1040D0001F91089580915102813021F7933009F0AA
:1040E00080E080934C021092E9008091E800877F85
:1040F0008093E8000E941C1ED5CF8091510281114F
:10410000F2CF809153028F7069F28093E900209181
:10411000EB0020FFE8CF933031F48091EB00806218
:104120008093EB00E0CF9091EB0090619093EB00D7
:1041300021E030E001C0220F8A95EAF72093EA00DF
:104140001092EA008091EB008860EACF8111AACF3B
:10415000109151021F778091E3008078812B80932A
:10416000E3008091E800877F8093E8000E941C1E96
:104170008091E80080FFFCCF8091E300806880930D
:10418000E300111104C082E080934E028BCF83E0E4
:10419000FBCF8058823008F085CF809151029091FA
:1041A00052028C3D23E09207A1F583E08A838AE2E4
:1041B00089834FB7F894DE01139620E03EE051E288
:1041C000E32FF0E050935700E49120FF03C0E29505
:1041D000EF703F5FEF708E2F90E0EA30C0F0C7962F
:1041E0008D939D932F5F243159F74FBF8091E80045
:1041F000877F8093E8006AE270E0CE0101960E941A
:104200002C1D8091E8008B778093E8004BCFC096FF
:10421000E7CFAE014F5F5F4F609153020E94721C67
:10422000BC01892B09F43ECF9091E800977F9093D1
:10423000E80089819A810E94891DE3CF803809F0C6
:1042400031CF8091E800877F8093E80080914A0217
:104250008093F1001CCF811125CF909151029230B3
:1042600008F020CF8091E800877F8093E80090934A
:104270004A020E941C1E80914A02882311F084E0A9
:1042800005C08091E30087FDFACF81E080934E0264
:104290000E94761B07CF0895CF9380914E0288230A
:1042A00099F0C091E900CF708091EC0080FD0EC0C4
:1042B00080E0C82B1092E9008091E80083FD0E9405
:1042C000F41FCF70C093E900CF91089580E8F1CF3B
:1042D0000E946F216894B1110C94FE2108950E94F0
:1042E000E32188F09F5798F0B92F9927B751B0F084
:1042F000E1F0660F771F881F991F1AF0BA95C9F76A
:1043000014C0B13091F00E94FD21B1E008950C94E9
:10431000FD21672F782F8827B85F39F0B93FCCF39C
:10432000869577956795B395D9F73EF490958095E6
:10433000709561957F4F8F4F9F4F0895E89409C006
:1043400097FB3EF490958095709561957F4F8F4FC8
:104350009F4F9923A9F0F92F96E9BB279395F695DE
:10436000879577956795B795F111F8CFFAF4BB0F5C
:1043700011F460FF1BC06F5F7F4F8F4F9F4F16C0C0
:10438000882311F096E911C0772321F09EE8872F4A
:10439000762F05C0662371F096E8862F70E060E006
:1043A0002AF09A95660F771F881FDAF7880F96957F
:1043B000879597F9089557FD9058440F551F59F068
:1043C0005F3F71F04795880F97FB991F61F09F3F02
:1043D00079F087950895121613061406551FF2CF2B
:1043E0004695F1DF08C0161617061806991FF1CF7B
:1043F00086957105610508940895E894BB276627A2
:104400007727CB0197F908950E9417220C948822F0
:104410000E947A2238F00E94812220F0952311F028
:104420000C9471220C94772211240C94FE210E948A
:10443000DB2170F3959FC1F3950F50E0551F629FEC
:10444000F001729FBB27F00DB11D639FAA27F00DED
:10445000B11DAA1F649F6627B00DA11D661F829F14
:104460002227B00DA11D621F739FB00DA11D621FF9
:10447000839FA00D611D221F749F3327A00D611D16
:10448000231F849F600D211D822F762F6A2F1124F8
:104490009F5750409AF0F1F088234AF0EE0FFF1F2B
:1044A000BB1F661F771F881F91505040A9F79E3F82
:1044B000510580F00C9471220C94FE215F3FE4F3CF
:1044C000983ED4F3869577956795B795F795E795D8
:1044D0009F5FC1F7FE2B880F911D9695879597F9E1
:1044E000089597F99F6780E870E060E008959FEF76
:1044F00080EC089500240A9416161706180609067B
:10450000089500240A941216130614060506089549
:10451000092E0394000C11F4882352F0BB0F40F4D1
:10452000BF2B11F460FF04C06F5F7F4F8F4F9F4F11
:10453000089597FB072E16F4009407D077FD09D055
:104540000E94B32207FC05D03EF4909581959F4FC1
:104550000895709561957F4F0895EE0FFF1F0590A8
:10456000F491E02D0994AA1BBB1B51E107C0AA1FBF
:10457000BB1FA617B70710F0A61BB70B881F991F04
:104580005A95A9F780959095BC01CD010895F999A8
:10459000FECF92BD81BDF89A992780B50895A8E114
:1045A000B0E042E050E00C94EF22262FF999FECFC4
:1045B00092BD81BDF89A019700B4021639F01FBA76
:1045C00020BD0FB6F894FA9AF99A0FBE0895019695
:1045D000272F0E94D6220C94D522DC01CB01FC01AE
:1045E000F999FECF06C0F2BDE1BDF89A319600B44C
:0E45F0000D9241505040B8F70895F894FFCF57
:1045FE000220F20128080A03140A811A111BEC1A70
:10460E00B81A841A010102030405060708090040BE
:10461E004D36396F032203EC02B30246025F027875
:04462E0002910200F3
:00000001FF
