:100000000C9426020C946A020C946A020C946A0204
:100010000C946A020C946A020C946A020C946A02B0
:100020000C946A020C946A020C941E0D0C94F00D50
:100030000C946A020C946A020C946A020C946A0290
:100040000C946A020C9476220C946A020C946A0254
:100050000C946A020C94091C0C946A020C946A02B7
:100060000C946A020C946A020C946A020C946A0260
:100070000C946A020C946A020C946A020C946A0250
:100080000C946A020C946A020C946A020C946A0240
:100090000C946A020C946A020C946A020C946A0230
:1000A0000C946A020C946A020C946A025D0E7F0E34
:1000B0006D0F7F0E6D0FC40EE70E6D0F3C0F4F0FCF
:1000C0001E121E124D124D128312A312D413D413FA
:1000D000AE12D4135E135E13C513D413D413CE1310
:1000E0006B136B136B136B136B136B136B136B1320
:1000F0006B136B136B136B136B136B136B136B1310
:100100007D138A1391139813A2130000F0A13500F8
:100110002B000152E100E00000001E00140004006A
:100120001D00010001001F001A0016001B00010045
:10013000E20020000800070006000100E3002100A3
:1001400015000900190029000100220017000A000B
:100150000500000001002300015200002F000000F4
:10016000010024004C0000003000000001002500C8
:100170001C000B00110000000100260018000D00FB
:1001800010000100010027000C000E0036000100E5
:100190002C002D0012000F00370001002A002E0055
:1001A00013003300380001004C002A003100280001
:1001B000340001000000010001000100E100E00046
:1001C00000003A00010001000100010001003B00B5
:1001D0000100E10001000100E2003C000100E0003C
:1001E00001000100E3003D000100010001000100E9
:1001F00001003E00010001000100000001003F007D
:1002000001000000010000000100400001000000AA
:100210000100000001004100A8005000AC000000F7
:1002200001004200AA005100AB00010001004300A0
:10023000A9005200010001002C004400AE004F0054
:10024000010001002A004500010001000100010039
:100250004C00010001000100010001000000160334
:100260004500720067006F0044006F0078002000B6
:1002700045005A00000016034500720067006F0039
:1002800044006F007800200045005A00000004037D
:10029000090409026D00040100A0FA09040000012C
:1002A00003010100092111010001223F000705811E
:1002B0000308000A090401000103010200092111D9
:1002C000010001224D000705820308000A0904020B
:1002D000000103000000092111010001223600077E
:1002E00005830308000A0904030001030000000954
:1002F00021110100012239000705840310000112B9
:1003000001100100000008EDFE07130100010200CA
:100310000105010906A101050719E029E7150025D6
:1003200001950875018102050819012905950575D2
:1003300001910295017503910105071900297715AF
:10034000002501957875018102C005010980A10190
:10035000850216010026B7001A01002AB7007510A1
:1003600095018100C0050C0901A10185031601005A
:10037000269C021A01002A9C02751095018100C07A
:1003800005010902A1010901A100050919012905B9
:1003900015002501950575018102950175038101FF
:1003A0000501093009311581257F950275088106FF
:1003B00009381581257F950175088106050C0A38D5
:1003C000021581257F950175088106C0C0050109C8
:1003D00006A101050719E029E71500250195087513
:1003E000018102950175088101050819012905950A
:1003F0000575019102950175039101050719002901
:10040000FF150025FF950675088100C0000000005B
:1004100000000000000000010204060A0F17202C53
:100420003A4A5D71879DB3C7DAE9F5FCFFFCF5E94F
:10043000DAC7B39D87715D4A3A2C20170F0A06046C
:1004400002010000000000000000000011241FBE97
:10045000CFEFDAE0DEBFCDBF04B603FE24C080914B
:10046000330290913402A0913502B0913602873068
:10047000904BA740B04BB9F4109233021092340263
:10048000109235021092360214BE84B7877F84BF63
:1004900088E10FB6F89480936000109260000FBE60
:1004A000E0E0FFE3099511E0A0E0B1E0EAE7F8E45D
:1004B00002C005900D92A433B107D9F712E0A4E36E
:1004C000B1E001C01D92A333B107E1F70E94620AB7
:1004D0000C943B240C94000061110BC0FC01828140
:1004E000882321F085EE0E94C21003C085EE0E9491
:1004F0008A1180E090E0089508956091F50170916F
:10050000F6018091F7019091F8010E943B1B5698EB
:100510005E9825982D9826982E9827982F988130A8
:1005200019F0823021F00895259A2D9A0895269A7F
:100530002E9A08950C947D0256985E9825982D98D1
:1005400026982E9827982F988FEF90E09093890007
:100550008093880090938B0080938A0090938D0005
:1005600080938C00259A2D9A2FEF80E792E02150FE
:1005700080409040E1F700C00000269A2E9A2FEFAD
:1005800080E792E0215080409040E1F700C00000F9
:10059000279A2F9A2FEF80E792E0215080409040D9
:1005A000E1F700C0000025982D982FEF80E792E03A
:1005B000215080409040E1F700C0000026982E981E
:1005C0002FEF80E792E0215080409040E1F700C09B
:1005D000000027982F9856985E9825982D98269871
:1005E0002E9827982F98089589EA8093800089E0B3
:1005F0008093810024982C983F988AB18F748AB98F
:100600006E98479A8BB1806B8BB9769A0E949C0248
:100610000C947C0280E2809300018091340181116E
:100620000EC00E94590381E0809334012FEF83EDC7
:1006300090E3215080409040E1F700C0000080E44A
:100640000E945F038093000181112EC00E948903E4
:1006500080930001811128C00E94890380930001CA
:10066000811122C08FE30E948903809300018111D0
:100670001BC00E94810380E40E945F0380930001FD
:10068000811112C08CE00E948903809300018111C6
:100690000BC00E94890380930001811105C08FE384
:1006A0000E948903809300010E94810380910001D0
:1006B00008951092B9008AE08093B800089594EAF2
:1006C0009093BC009091BC0097FFFCCF9091B90033
:1006D000987F983021F0903111F081E00895809357
:1006E000BB0084E88093BC008091BC0087FFFCCFF6
:1006F0008091B900887F883111F0803471F780E0F3
:10070000089584E98093BC008091BC0084FDFCCFF7
:1007100008958093BB0084E88093BC008091BC0066
:1007200087FFFCCF9091B900987F81E0983209F45F
:1007300080E0089584E88093BC008091BC0087FF2E
:10074000FCCF8091BB00089580910001811115C0FC
:1007500080E40E945F038093000181110CC082E15C
:100760000E94890380930001811105C08FEF0E94D0
:100770008903809300010E94810384B1807F84B942
:1007800085B1807F85B98AB1837F8AB98BB1837F38
:100790008BB93E98469808950E940A038093000101
:1007A0000E94A40380B38C7080BB81B3836F81BB34
:1007B000A6E3B1E0E4E4F1E08EE08E0F11921D9229
:1007C0008E13FCCF0C94F402BF92CF92DF92EF9283
:1007D000FF920F931F93CF93DF93809100018823A3
:1007E00079F0809135018F5F80933501811108C0C8
:1007F0000E940A0380930001811102C00E949C02A2
:1008000006E311E0C0E0D0E0DD24D39482E0C82EFE
:10081000EE24E394F12CC730D10500F5809100015E
:10082000811164C080E40E945F0380930001811104
:1008300012C082E10E9489038093000181110BC0E4
:10084000C7010C2E01C0880F0A94EAF780950E9418
:100850008903809300010E94810348C0CA30A1F03F
:1008600028F4C83059F0C93061F005C0CC3089F0A7
:1008700070F0CD3089F0209A289810C0219A2998DC
:100880000DC0229A2A980AC0239A2B9807C0529A20
:1008900001C0539A5B9802C03E9A469890EA9A9596
:1008A000F1F79FB1799902C082E001C080E09170B8
:1008B0009D25982B7C9902C084E001C080E0892BA3
:1008C0007D9902C038E001C030E0832B7E9902C0E0
:1008D00020E101C020E0822B9FB19095991F9927BC
:1008E000991F9295990F907E892B0FC080910001DE
:1008F000811149C080E40E945F0380930001882336
:1009000079F1B12C0E9481038B2DF8019081981709
:1009100019F08083C09201010E94A40321960F5F09
:100920001F4FCE30D10509F076CF80910101882389
:1009300061F1815080930101882339F08FE99FE0B4
:100940000197F1F700C0000020C0A4E4B1E0E6E3A5
:10095000F1E0CF01825F91919D938E13FCCF15C082
:1009600083E10E948903809300018111CACF81E451
:100970000E945F03809300018111C3CF0E949A03FC
:10098000B82EB094BFCF80E0C0CF0E949A0281E021
:10099000DF91CF911F910F91FF90EF90DF90CF905B
:1009A000BF900895E82FF0E0EC5BFE4F8081089542
:1009B00008950F931F93CF93DF93C4E4D1E010E029
:1009C0000C2F025F899190E00E942F1B180F0C13CF
:1009D000F9CF812FDF91CF911F910F91089581E081
:1009E000089581E008950C94F1040895FF920F9307
:1009F0001F93CF93DF938C01FC01C081D181828151
:100A0000882349F0CE010E949519F82E682FCE0157
:100A10000E94381904C0CE010E946819F82EBE0148
:100A20008F2D0E94B005EC01B8010E94F3048823C9
:100A300009F48EC0F8018281882309F44AC08091AC
:100A40005D0181111FC0C431F0E5DF0709F051C01D
:100A50000E94F50481E080935D010E94D31B909376
:100A60005C0180935B011092540110925601109228
:100A70005501109258011092570110925A0110928C
:100A8000590166C080915B0190915C010E94DF1B5F
:100A9000883C910570F480915401E82FF0E0EE0F4E
:100AA000FF1FEB5AFE4FD183C0838F5F80935401A9
:100AB0004FC0C43880E5D80721F0C538D04501F1D2
:100AC0003AC0F8018281882341F01092520182E0FD
:100AD0001EC0C438E0E5DE0759F58091520181114E
:100AE00006C086E20E94C21086E20E948A1182E05D
:100AF0001CC0C438F0E5DF0741F3C538D045D9F450
:100B0000F8018281882331F01092530180E20E9423
:100B1000D9111EC080915301811106C087E20E9445
:100B2000C21087E20E948A1180E20E94E01110C088
:100B3000C538D04529F381E0809352018093530159
:100B4000C801DF91CF911F910F91FF900C94EF049A
:100B500080E0DF91CF911F910F91FF90089508954C
:100B600096E0799FF001112494E5899FE00DF11D35
:100B70001124E60FF11DEE0FFF1FE25FFE4F85917E
:100B800094910895880F991FFC01E657F0408591D4
:100B900094910895880F991FFC01E65FFE4F85919F
:100BA000949108950F931F93CF93DF93EC018115D8
:100BB000904350F5C11580E2D80708F0C3C0CB3B85
:100BC000D10590F4C83AD10508F06AC0C53AD105FC
:100BD00008F05BC0C430D10508F0D0C1219709F0FE
:100BE000CAC101E010E00AC2CF3FD10511F008F000
:100BF000C5C1C03FD10508F0A2C0CE01805E9109F9
:100C0000089708F4BBC1B7C1C13090E5D90709F412
:100C1000A2C020F5C0318FE4D80770F4C11590E46C
:100C2000D90708F094C0C11521E3D20708F0A3C189
:100C3000DD278E01106CE2C1C115D04509F09BC1C2
:100C40000E943F148FEF94E32CE0815090402040AD
:100C5000E1F700C000000E942E1CD0C1C11597E52D
:100C6000D90758F4C03121E5D20708F01CC1C431BE
:100C700080E5D80708F475C07EC1CE019057811574
:100C8000904108F078C1DF7073C1C53AD10509F40D
:100C900077C1C63AD10509F076C102E810E4AEC1C9
:100CA000C83AD10509F472C1C93AD10509F471C134
:100CB000CA3AD10509F470C1CB3AD10509F46FC124
:100CC000CC3AD10509F46EC1CD3AD10509F46DC114
:100CD000C03BD10509F46CC1CE3AD10509F46BC112
:100CE000CF3AD10509F46AC1C13BD10509F469C104
:100CF000C23BD10509F468C1C33BD10509F467C102
:100D0000C43BD10509F466C1C53BD10509F465C1F1
:100D1000C63BD10509F464C1C73BD10509F463C1E1
:100D2000C83BD10509F462C1C93BD10509F461C1D1
:100D3000CA3BD10509F460C100E014E45FC18E0133
:100D400010655CC1CE019F700E94CA0558C1DF705A
:100D50008E01106A53C18091120281608093120249
:100D60004DC10E94D31D811102C00E94B91D0E9475
:100D7000F01D90E09093330280933202C23080E500
:100D8000D80721F480913202816086C0C43090E59A
:100D9000D90721F48091320282607EC0C63020E5FE
:100DA000D20721F480913202846076C0C83080E599
:100DB000D80719F48091320227C0CA3090E5D907CC
:100DC00021F480913202806167C0CC3020E5D207E7
:100DD00021F48091320280625FC0CE3080E5D80776
:100DE00021F480913202806457C0C03190E5D90768
:100DF00021F48091320280684FC0C23120E5D207D1
:100E000029F4809132028460886046C0C33080E556
:100E1000D80721F4809132028E7F3EC0C53090E524
:100E2000D90721F4809132028D7F36C0C73020E58A
:100E3000D20721F4809132028B7F2EC0C93080E529
:100E4000D80719F48091320226C0CB3090E5D9073B
:100E500021F4809132028F7E1FC0CD3020E5D20771
:100E600021F4809132028F7D17C0CF3080E5D80702
:100E700021F4809132028F7B0FC0C13190E5D907F8
:100E800021F4809132028F7707C0C331D04531F40D
:100E9000809132028B7F877F809332028091320271
:100EA0000E94F41DABC08D2F99278F709927813038
:100EB0009105D9F49E012370332702C0880F991F32
:100EC0002A95E2F79C688E0144E0000F111F4A95B5
:100ED000E1F700271370802B912B53E0CC0FDD1F1F
:100EE0005A95E1F7C076DD272FC08230910531F4A5
:100EF000DC2FCC278E01016F106A80C083309105F2
:100F000069F4CE018370992701E010E002C0000F60
:100F1000111F8A95E2F7C8019C680FC084309105C3
:100F2000B9F4CE018370992701E010E002C0000FF0
:100F3000111F8A95E2F7C8019A6823E0CC0FDD1FE4
:100F40002A95E1F7C07ED7708C010C2B1D2B56C063
:100F50008530910531F4DC2FCC278E01046F106AA7
:100F60004DC0069709F04AC0CF71DD27DC2FCC2792
:100F70008E01106243C000E010E040C08E013EC010
:100F800001E810E43BC003E810E438C002EE14E4CA
:100F900035C009EE14E432C00AEE14E42FC005EBAC
:100FA00014E42CC006EB14E429C007EB14E426C0BB
:100FB0000CEC14E423C00DEC14E420C003E815E4A9
:100FC0001DC00AE815E41AC002E915E417C004E9D7
:100FD00015E414C001E216E411C003E216E40EC0E9
:100FE00004E216E40BC005E216E408C006E216E4CB
:100FF00005C007E216E402C00AE216E4C801DF9168
:10100000CF911F910F91089596E0799FF0011124DF
:1010100094E5899FE00DF11D1124E60FF11DEE0FFF
:10102000FF1FE25FFE4F85919491803E9105E0F4B1
:10103000803C910558F58133910509F46FC048F45F
:101040008932910509F463C08A32910509F46DC0B3
:1010500072C089339105E9F082389105D1F085336A
:10106000910509F44DC067C0833E910581F138F4C4
:10107000803E9105B9F0823E9105D9F05CC0863E74
:10108000910561F1873E9105A1F155C00E94C2050D
:1010900008952091320220FD02C021FF4CC080EE55
:1010A00090E049C08091320280FFF9CF89E390E05F
:1010B00042C08091320282FF0EC08091320284FFD2
:1010C00003C080E090E037C083EE90E034C08091B0
:1010D000320282FFF2CF82EE90E02DC08091320288
:1010E00083FF0BC08091320284FDEBCF87EE90E04E
:1010F00022C08091320283FFF5CF86EE90E01BC0C4
:101100008091320285FF07C089E290E014C080918F
:10111000320285FFF9CF85E390E00DC08091320265
:1011200086FF07C08AE290E006C08091320286FF07
:10113000F9CF81E390E00E94D205089508950C94C0
:101140009E0880916E010895CF93DF9300D01F9287
:10115000CDB7DEB79C0180912902843019F593E068
:1011600099833B832A839093E9008FEF9091E80065
:10117000815095FD06C095ED9A95F1F7000081111B
:10118000F5CF8091E80085FF0DC040E050E063E0BE
:1011900070E0CE0101960E940E0B8091E8008E77E0
:1011A0008093E8000F900F900F90DF91CF910895FA
:1011B000CF93DF9300D01F92CDB7DEB720912902E5
:1011C000243021F522E029839B838A8383E0809366
:1011D000E9008FEF9091E800815095FD06C095EDF4
:1011E0009A95F1F700008111F5CF8091E80085FF15
:1011F0000DC040E050E063E070E0CE0101960E9437
:101200000E0B8091E8008E778093E8000F900F908E
:101210000F90DF91CF910895209129022430F1F4AD
:1012200022E02093E9002FEF3091E800215035FDB6
:1012300006C035ED3A95F1F700002111F5CF209168
:10124000E80025FF0BC040E050E065E070E00E9440
:101250000E0B8091E8008E778093E8000895CF937D
:10126000DF93EC0190912902943009F046C08091FF
:101270000C018823D9F080910D018823B9F0909357
:10128000E9008FEF9091E800815095FD06C095E14F
:101290009A95F1F700008111F5CF8091E80085FF64
:1012A0002CC040E050E060E170E017C081E0809326
:1012B000E9008FEF9091E800815095FD06C095ED13
:1012C0009A95F1F700008111F5CF8091E80085FF34
:1012D00014C040E050E068E070E0CE010E940E0BC8
:1012E0008091E8008E778093E80080E1FE01AEE512
:1012F000B1E001900D928A95E1F7DF91CF910895C9
:1013000080912802811109C00E94A30C0E94000D47
:101310008091E20084608093E20008951092280298
:10132000089508950C9463220E94C41B0E946922B0
:101330000E94A60F0C949F0842E061EC81E00E949D
:101340001D0C42E061EC82E00E941D0C42E061EC69
:1013500083E00E941D0C42E161EC84E00C941D0CC2
:1013600080912B02833009F455C030F4813071F044
:10137000823009F48EC008958A3009F47AC08B3027
:1013800009F460C0893009F09CC020C080912A0215
:10139000813A09F096C08091E800877F8093E80049
:1013A00080912E0290912F02892B21F460E18EE52D
:1013B00091E003C060E080E090E070E00E94590B93
:1013C0008091E8008B778093E800089580912A024D
:1013D000813209F076C080912E0290912F02009701
:1013E00019F0039709F06DC08091E800877F809322
:1013F000E8008091E80082FD05C0809129028111FA
:10140000F8CF5FC08091F10080936E018091E80079
:101410008B7753C080912A02813A09F052C08091A3
:101420002E0290912F02892B09F04BC08091E80089
:10143000877F8093E8008091E80080FFFCCF809157
:101440000C0136C080912A028132D9F580912E029A
:1014500090912F02892BA9F58091E800877F8093D6
:10146000E8000E94520C80912C0280930C010C9495
:101470003F1480912A02813221F58091E800877F14
:101480008093E8000E94520C80912D0280936F019E
:10149000089580912A02813AA1F48091E800877F23
:1014A0008093E8008091E80080FFFCCF80916F017D
:1014B0008093F1008091E8008E778093E8000C948F
:1014C000520C089584B7877F84BF88E10FB6F894E3
:1014D00080936000109260000FBE90E080E80FB62D
:1014E000F89480936100909361000FBE0E94F50F05
:1014F0000E94A30C0E94000D8091E2008460809302
:10150000E20078940E94860F0E94F70F82E091E03B
:101510000E94A10F0E94512280912902853069F416
:101520000E948B1B809127028823B1F30E94B61B77
:10153000882391F30E94F80AEFCF0E94FD0FECCFB1
:10154000292F332723303105C9F064F421303105C8
:1015500081F02230310509F043C08DE690E022E9A8
:1015600032E042C021323105F1F02232310541F141
:1015700037C082E190E02FEF32E036C0992781300A
:10158000910541F08230910541F0892B49F5EEE853
:10159000F2E005C0E6E7F2E002C0EEE5F2E0849199
:1015A00090E09F0121C06430D8F4E62FF0E0EE0F08
:1015B000FF1FEE5DFE4F2081318189E090E014C075
:1015C000643070F470E0FB01EE0FFF1FE65EFE4F2B
:1015D00020813181FB01EA5EFE4F808190E004C0F2
:1015E00080E090E020E030E0FA013183208308952C
:1015F00080E189BD82E189BD09B400FEFDCF809103
:10160000D8008F7D8093D8008091E0008260809325
:10161000E0008091E00081FDFCCF0895CF92DF9241
:10162000EF92FF920F931F93CF93DF93EC018B0107
:101630006A010E94710C811133C0C114D10439F0C8
:10164000F60180819181081B190BC80FD91FE12C6D
:10165000F12C0115110519F18091E80085FD16C0E6
:101660008091E8008E778093E800C114D10449F09E
:10167000F60180819181E80EF91EF182E08285E019
:101680000FC00E94710C882321F30AC089918093B6
:10169000F10001501109FFEFEF1AFF0ADACF80E0E5
:1016A000DF91CF911F910F91FF90EF90DF90CF903E
:1016B000089520913002309131022617370748F003
:1016C0006115710539F42091E8002E772093E80028
:1016D00001C0B90140E061157105A9F1209129020D
:1016E000222309F443C0253009F442C02091E800C8
:1016F00023FD40C02091E80022FD32C02091E80087
:1017000020FFE9CF4091F3002091F20030E0342B2C
:10171000FC01CF016115710559F02830310540F405
:1017200081918093F100615071092F5F3F4FF1CF9C
:1017300041E02830310509F040E02091E8002E77A3
:101740002093E800C8CF4111C9CF0AC08091290277
:10175000882361F0853061F08091E80083FD0AC044
:101760008091E80082FFF2CF80E0089582E0089542
:1017700083E0089581E00895209130023091310294
:101780002617370748F06115710539F42091E800F4
:101790002E772093E80001C0B901FC0120E061151B
:1017A000710591F180912902882309F440C08530A8
:1017B00009F43FC08091E80083FD3DC08091E800BE
:1017C00082FD2FC08091E80080FFE9CF2091F300D7
:1017D0008091F20090E0922B6115710559F08830EC
:1017E000910540F424912093F100319661507109E4
:1017F0000196F2CF21E0089709F020E08091E800FF
:101800008E778093E800CBCF2111CCCF0AC0809196
:101810002902882361F0853061F08091E80083FD22
:101820000AC08091E80082FFF2CF80E0089582E054
:10183000089583E0089581E00895982F973058F532
:101840009093E900981739F07091EC002091ED0029
:101850005091F00003C0242F762F50E021FF19C0D3
:101860003091EB003E7F3093EB003091ED003D7FF7
:101870003093ED003091EB0031603093EB007093CA
:10188000EC002093ED005093F0002091EE0027FF34
:1018900007C09F5FD3CF8F708093E90081E00895E8
:1018A00080E0089580912A0287FF11C08091E800AE
:1018B00082FD05C0809129028111F8CF11C080916D
:1018C000E8008B770BC080912902882349F0809132
:1018D000E80080FFF8CF8091E8008E778093E800E1
:1018E00008952091E4003091E50095E64091EC00E8
:1018F000842F817040FF22C08091E80080FD1CC0D1
:1019000080912902882391F0853091F08091EB003D
:1019100085FD10C04091E4005091E5004217530747
:1019200029F39A01915011F784E0089582E0089517
:1019300083E0089581E0089580E008954091E800F3
:1019400042FFDECF08950E94110D0E94190DE0EEB6
:10195000F0E0808181608083E8EDF0E080818F7726
:10196000808319BCA7EDB0E08C918E7F8C93808131
:101970008F7E80831092280208950F931F93CF9338
:10198000DF930E94110D0E94190DC8EDD0E08881EF
:101990008F77888388818068888388818F7D88831A
:1019A00019BC10922902109225021092270210925F
:1019B000260200EE10E0F80180818B7F8083888111
:1019C0008160888342E060E080E00E941D0CE1EECF
:1019D000F0E080818E7F8083E2EEF0E080818160A4
:1019E0008083808188608083F80180818E7F8083FE
:1019F000888180618883DF91CF911F910F91089535
:101A0000E8EDF0E080818F7E8083E7EDF0E080817B
:101A10008160808384E082BF81E0809328020C94FF
:101A2000BD0CE8EDF0E080818E7F80831092E200B3
:101A300008951092DA001092E10008951F920F921B
:101A40000FB60F9211242F933F934F935F936F9391
:101A50007F938F939F93AF93BF93EF93FF93809167
:101A6000E10082FF0BC08091E20082FF07C08091FD
:101A7000E1008B7F8093E1000E94850F8091DA0066
:101A800080FF1FC08091D80080FF1BC08091DA00CA
:101A90008E7F8093DA008091D90080FF0DC080E1B5
:101AA00089BD82E189BD09B400FEFDCF81E080934C
:101AB00029020E94800905C019BC109229020E94C7
:101AC0008E098091E10080FF19C08091E20080FFC3
:101AD00015C08091E2008E7F8093E2008091E20049
:101AE00080618093E2008091D80080628093D8006A
:101AF00019BC85E0809329020E9492098091E1003F
:101B000084FF30C08091E20084FF2CC080E189BD59
:101B100082E189BD09B400FEFDCF8091D8008F7DA0
:101B20008093D8008091E1008F7E8093E1008091C6
:101B3000E2008F7E8093E2008091E20081608093DA
:101B4000E20080912502882311F084E007C0809193
:101B5000E30087FD02C081E001C083E08093290299
:101B60000E9494098091E10083FF29C08091E200E6
:101B700083FF25C08091E100877F8093E10082E0B0
:101B800080932902109225028091E1008E7F80933C
:101B9000E1008091E2008E7F8093E2008091E2007C
:101BA00080618093E20042E060E080E00E941D0CD2
:101BB0008091F00088608093F0000E949109FF916D
:101BC000EF91BF91AF919F918F917F916F915F91B5
:101BD0004F913F912F910F900FBE0F901F9018952E
:101BE0001F920F920FB60F9211242F933F934F9392
:101BF0005F936F937F938F939F93AF93BF93CF9395
:101C0000DF93EF93FF93C091E900CF708091EC00D8
:101C1000D82FD17080FDD0E81092E9008091F000BB
:101C2000877F8093F00078940E94340E1092E90030
:101C30008091F00088608093F000CD2BCF70C0932E
:101C4000E900FF91EF91DF91CF91BF91AF919F910B
:101C50008F917F916F915F914F913F912F910F9055
:101C60000FBE0F901F9018951F93CF93DF93CDB7A2
:101C7000DEB7AA970FB6F894DEBF0FBECDBFEAE27B
:101C8000F2E088E08E0F9091F10091938E13FBCFDC
:101C90000E94B0098091E80083FF1FC180912A0251
:101CA00090912B02492F50E04A30510508F015C1A0
:101CB000FA01EA5AFF4F0C94EB23803881F0823806
:101CC00009F00BC180912E028F708093E900809102
:101CD000EB0085FB882780F91092E90006C080910F
:101CE000260290912702911182609091E800977FDF
:101CF0009093E8008093F1001092F100C8C0282F63
:101D00002D7F09F0EAC0882319F0823061F0E5C028
:101D100080912C02813009F0E0C0933009F080E01E
:101D2000809327022BC080912C02811127C08091C3
:101D30002E028F7009F4D1C08093E9002091EB004E
:101D400020FF1CC0933021F48091EB00806214C00E
:101D50009091EB0090619093EB0021E030E0A901BD
:101D600002C0440F551F8A95E2F74093EA00109293
:101D7000EA008091EB0088608093EB001092E9000C
:101D80008091E800877F86C08111A7C010912C0246
:101D90001F778091E3008078812B8093E30080910E
:101DA000E800877F8093E8000E94520C8091E80051
:101DB00080FFFCCF8091E30080688093E3001111E5
:101DC00002C082E001C083E08093290286C080586F
:101DD000823008F082C080912C0290912D028C3DBF
:101DE00053E0950779F583E08A838AE289834FB7C8
:101DF000F894DE01139620E03EE051E2E32FF0E09C
:101E000050935700E49120FF03C0E295EF703F5FCD
:101E1000EF708E2F90E0EA3010F0C79601C0C096A8
:101E20008D939D932F5F243149F74FBF8091E80038
:101E3000877F8093E8006AE270E0CE0101960E94FD
:101E4000590B14C0AE014F5F5F4F60912E020E948C
:101E5000A00ABC01892B09F440C09091E800977F4B
:101E60009093E80089819A810E94BC0B8091E800E0
:101E70008B778093E80031C0803879F58091E80055
:101E8000877F8093E800809125028093F100809104
:101E9000E8008E778093E8000E94520C1EC08111EA
:101EA0001CC090912C029230C0F48091E800877F92
:101EB0008093E800909325020E94520C80912502A5
:101EC000811106C08091E30087FD02C081E001C05E
:101ED00084E0809329020E949C098091E80083FF9E
:101EE0000AC08091E800877F8093E8008091EB0032
:101EF00080628093EB00AA960FB6F894DEBF0FBE07
:101F0000CDBFDF91CF911F9108950895CF93809118
:101F100029028823A1F0C091E900CF709091EC00D4
:101F2000892F817090FD80E8C82B1092E900809184
:101F3000E80083FD0E94340ECF70C093E900CF917A
:101F4000089590937501809374010895E091740150
:101F5000F0917501309721F00190F081E02D099406
:101F600080E00895E0917401F0917501309721F0BF
:101F70000280F381E02D09940895E0917401F091BD
:101F80007501309721F00480F581E02D09940895C2
:101F900020917201309173018217930771F0909331
:101FA000730180937201E0917401F0917501309793
:101FB00021F00680F781E02D0994089520917001A9
:101FC000309171018217930771F0909371018093A2
:101FD0007001E0917401F0917501309721F0008457
:101FE000F185E02D0994089508950C94F40F0E9452
:101FF000CA1B0E94CC030C948C1C9F92AF92BF9280
:10200000CF92DF92EF92FF920F931F93CF93DF93C4
:1020100000D000D000D0CDB7DEB70E94E4030DE0C1
:1020200010E0AA24A394B12C902E802F0E94D204F9
:10203000980129583E4F6901F901F080F826A1F472
:102040000150110988F78FEF89838A831B820E94D0
:10205000D31B8160782F9D838C8349815A816B814A
:102060008D810E9494102FC09091120291FF04C0A4
:102070008E830E94D8048E8125E030E0A501022ED7
:1020800001C0440F0A94EAF7E42E4F21C1F02983DE
:102090009A828E2191E009F490E09B830E94D31BE9
:1020A0008160782F9D838C8349815A816B818D81DA
:1020B0000E949410F6018081E826E08204C021503D
:1020C0003109E0F6BDCF0E94731F109176010E9486
:1020D000A60F1817B9F00E94A60F809376012696D6
:1020E0000FB6F894DEBF0FBECDBFDF91CF911F9129
:1020F0000F91FF90EF90DF90CF90BF90AF909F90A7
:102100000C949F0826960FB6F894DEBF0FBECDBF85
:10211000DF91CF911F910F91FF90EF90DF90CF90C3
:10212000BF90AF909F900895CF93DF93CDB7DEB768
:102130002B970FB6F894DEBF0FBECDBF4F835887E5
:1021400069877A878B87DE01119686E0FD011192FF
:102150008A95E9F785E0FE01379601900D928A9500
:10216000E1F749815A816B817C818D819E810E943A
:10217000DD162B960FB6F894DEBF0FBECDBFDF91F4
:10218000CF910895CF93882309F4C2C0C82F823815
:1021900059F40E94A60F81FDBBC089E30E94331A47
:1021A0000E94001B89E30CC0833879F40E94A60FBB
:1021B00080FDAEC083E50E94331A0E94001B83E5B8
:1021C0000E94751ACF910C94001B843859F40E9418
:1021D000A60F82FD9DC087E40E94331A0E94001B57
:1021E00087E4EECF8CEF8C0F813A48F48C2F0E945D
:1021F000B62181118DC08C2F0E94331AE3CF80E26B
:102200008C0F883048F4C77081E001C0880FCA95F0
:10221000EAF70E94B91AD6CF8BE58C0F833078F499
:10222000C53A29F0C63A31F083E890E005C081E86C
:1022300090E002C082E890E0CF910C94C80F88E54E
:102240008C0F833108F064C0C83A39F1C93A41F1C2
:10225000CA3A49F1CB3A51F1CC3A59F1CD3A61F150
:10226000C03B69F1CE3A71F1CF3A79F1C13B81F1CE
:10227000C23B89F1C33B91F1C43B99F1C53BA1F14C
:10228000C63BA9F1C73BB1F1C83BB9F1C93BC1F1AC
:10229000CA3BC9F180E090E038C082EE90E035C0E2
:1022A00089EE90E032C08AEE90E02FC085EB90E09E
:1022B0002CC086EB90E029C087EB90E026C08CEC28
:1022C00090E023C08DEC90E020C083E891E01DC039
:1022D0008AE891E01AC082E991E017C084E991E0B0
:1022E00014C081E292E011C083E292E00EC084E269
:1022F00092E00BC085E292E008C086E292E005C061
:1023000087E292E002C08AE292E0CF910C94DE0F65
:10231000CF910895882309F44BC0823859F40E9464
:10232000A60F81FF45C089E30E94331A0E94001B5B
:1023300089E30CC0833871F40E94A60F80FF38C077
:1023400083E50E94331A0E94001B83E50E94751AE0
:102350000C94001B843859F40E94A60F82FF28C0F9
:1023600087E40E94331A0E94001B87E4EFCF9CEFA2
:10237000980F913A58F390E2980F983050F4877084
:1023800091E001C0990F8A95EAF7892F0E94BF1A40
:10239000DFCF9BE5980F933020F480E090E00C9421
:1023A000C80F885A833120F480E090E00C94DE0F4F
:1023B0000895882321F00E94B91A0C94001B0895F7
:1023C000882321F00E94BF1A0C94001B08957F926D
:1023D0008F929F92AF92BF92CF92DF92EF92FF9235
:1023E0000F931F93CF93DF931F92CDB7DEB77C017E
:1023F000C62E772EFC01058102950F7012811111F6
:102400000E94D61A0E942C1A882379F0112369F0B1
:1024100080E28C0D883048F082E00E94151A0E94FC
:102420002C1A91E0D82ED92601C0D12CE72DE295A7
:10243000EF70F0E0E05AFF4F0C94EB23872D807F84
:10244000072D0F70882311F00295007F112389F06A
:10245000002309F490C180E28C0D883020F4802F95
:102460000E94B91A03C0802F0E94C91A0E94001B43
:1024700082C18C2D0E948A11002309F495C180E24B
:102480008C0D883020F4802F0E94BF1A03C0802F4B
:102490000E94CF1A0E94001B87C1972D907F872D25
:1024A0008F70903211F08295807FCC2021F0F1E086
:1024B000CF16B1F01EC0112349F0002309F414C156
:1024C000013009F011C10E94E91A6EC1002319F010
:1024D000013009F469C189830E94EC1A89810AC11B
:1024E000112321F0023008F05FC1FEC001115CC170
:1024F00001C1112321F0002309F4F6C03CC10023DF
:1025000009F4F8C03EC1872D86958695837090E0CA
:10251000009719F0019761F047C1112321F08C2D2C
:10252000972D937002C080E090E00E94C80F3CC1DC
:10253000112321F08C2D972D937002C080E090E044
:102540000E94DE0F31C18C2D112319F00E947B1ED9
:1025500002C00E94E31E0E94681F26C1872D83705F
:1025600009F052C0111120C18C2D8295869587707B
:10257000880F880F9C2D9F70892E912CA12CB12C37
:10258000082E04C0880C991CAA1CBB1C0A94D2F704
:10259000C4FE14C00FE010E020E030E0B901A80153
:1025A00004C0440F551F661F771F8A95D2F7CB01D1
:1025B000BA01609570958095909503C060E070E0D9
:1025C000CB01272D26952695237030E0223031054A
:1025D00069F02330310589F0682979298A299B29F6
:1025E0002130310571F00E942518DEC06829792953
:1025F0008A299B290E944118D7C00E942518C5012D
:10260000B4010E940918D0C0112319F0872D8170E0
:1026100001C08695882309F4C7C08C2D82958695C4
:102620008770880F880F9C2D9F70892E912CA12C6C
:10263000B12C082E04C0880C991CAA1CBB1C0A943F
:10264000D2F7C4FE14C00FE010E020E030E0B90182
:10265000A80104C0440F551F661F771F8A95D2F743
:10266000CB01BA01609570958095909503C060E0AC
:1026700070E0CB01272D269526952370422F50E040
:102680004230510569F04330510589F068297929B4
:102690008A299B294130510571F00E94FF1884C09E
:1026A000682979298A299B290E941B197DC00E94CB
:1026B000FF18C501B4010E94E31876C08C2D90E08C
:1026C000FC01E05EF109E531F10508F050C0E05988
:1026D000FF4F0C94EB230C2D0F70872D8F7111235E
:1026E00031F00E947C18802F0E94D9115DC00E9499
:1026F0009D18802F0E94E01157C0112339F001115D
:1027000053C0872D8F710E94C2184EC0023008F04E
:102710004BC0F7CF112339F0872D8F710E947C18A1
:1027200043C01123C9F3872D8F710E949D183CC0AF
:10273000112329F0872D8F710E94671835C00E94E0
:102740005D1832C0112351F0172D1F71812F0E9487
:102750007C1863E0812F0E940C1A26C081E00E9441
:10276000151A023008F182E00E94151A1DC01123CB
:1027700031F0002389F28C2D0E94C21015C0002375
:1027800091F28C2D0E948A110FC0472D4F706C2D35
:10279000C7010E946C020E94811706C0472D4F702E
:1027A0006C2DC7010E94AF05DD20F9F00E94081AC8
:1027B00080FD1BC0F70112820E94021A0E947C1841
:1027C000C7010E9404140E94021A0F90DF91CF915A
:1027D0001F910F91FF90EF90DF90CF90BF90AF903F
:1027E0009F908F907F900C949D180F90DF91CF91C8
:1027F0001F910F91FF90EF90DF90CF90BF90AF901F
:102800009F908F907F9008950F931F93CF93DF93A6
:10281000EC01888199812B813C81232BB9F09F3F6A
:1028200011F48F3F99F0CE010E94F604882371F0D5
:10283000688179818A810E94DF198C010E94371991
:102840000E94FE17B801CE010E94E711DF91CF91DF
:102850001F910F9108950E94D61A0E94E61A0E94B5
:10286000AB1A0E94001B0E9419200E94681F80E082
:1028700090E00E94C80F80E090E00C94DE0F0E9470
:10288000C61A0C942B140E94D419292F22952F704C
:1028900030E02C3031054CF42A3031056CF42250F4
:1028A000310922303105A8F407C02C30310569F018
:1028B0002F30310551F00DC0803F69F018F4803E93
:1028C00040F409C0843F29F406C093FB882780F9AF
:1028D000089580E0089581E00895CF93DF9300D0BC
:1028E00000D01F92CDB7DEB70F900F900F900F90D2
:1028F0000F90DF91CF910895CF93DF9300D000D058
:1029000000D0CDB7DEB726960FB6F894DEBF0FBE67
:10291000CDBFDF91CF9108951F93CF93DF93C091E7
:10292000860116E080918701C81799F0D0E01C9FBE
:10293000F0011D9FF00D1124E857FE4F4081518199
:1029400062817381848195810E947C142196C77075
:10295000E9CFDF91CF911F9108954091B801509137
:10296000B9016091BA017091BB018091BC01909155
:10297000BD010C947C148091BD0182958F7009F08B
:1029800054C08091BA01882309F44FC08091860118
:10299000A09187016091B8017091B9014091BB018C
:1029A0005091BC01B6E08A1709F43FC090E0411590
:1029B0005105C1F17F3F11F46F3FA1F1B89FF001C4
:1029C000B99FF00D1124E857FE4F218172132AC0E0
:1029D0002081621327C02281211124C023813481E8
:1029E0002417350710F421503109241B350B283CDE
:1029F0003105C0F42091BD012F7020612093BD01ED
:102A000026E0289FF001299FF00D1124E357FE4F87
:102A100080818F708061808388EB91E00E94041434
:102A20000C948C1401968770BECF0895CF92DF92DC
:102A3000EF92FF920F931F93CF93DF93CDB7DEB743
:102A400062970FB6F894DEBF0FBECDBF8C0185E054
:102A5000F801DE011D9601900D928A95E1F7D801EB
:102A60004C9111965C91119712966C911297139656
:102A7000CD90DC9014973091B8017091B90180919C
:102A8000BB019091BC01009709F46BC17F3F19F421
:102A90003F3F09F466C1E090BA01EE2009F4C0C0DE
:102AA0002091BD01C816D90628F0F601E81BF90BE4
:102AB000CF0104C0809590958C0D9D1DFF24F3944B
:102AC000883C910578F0F12C207F09F0C6C07C2D60
:102AD000D98AC88A89890E946D1488EB91E00E9486
:102AE0000414B1C0822F807F09F046C0751314C052
:102AF000341312C0611110C02F7020612093BD01EA
:102B00000E94AD1488EB91E00E9404148091BD01F5
:102B1000D80115968C932EC0CD2819F15F3F11F482
:102B20004F3FF9F0F62E61111CC080918601209173
:102B3000870136E0821709F45AC090E0389FF0010F
:102B4000399FF00D1124E857FE4F7181571306C0CD
:102B50007081471303C07281711103C001968770A1
:102B6000E9CFF62E662309F418C18091BD0181607A
:102B70008093BD01F12C11C1751308C0341306C038
:102B8000611104C08091BD01D801C3C04D875E872B
:102B90008D859E856A8B0E9443146A898823E1F1A2
:102BA0006623D1F12091BD01822F82958F7090E034
:102BB000029774F08091B8019091B90198878F8342
:102BC0001986DB86CA862C87CE0107960E940414DC
:102BD00086E0F801A8EBB1E001900D928A95E1F74B
:102BE0000E94BB140E94AD14FF24F394D6C04D87FD
:102BF0005E878D859E850E94D419292F22952F707E
:102C000030E0223031050CF0BCC09F7009F0B6C036
:102C1000805E883008F4C1C0C8010E940414E4CF6B
:102C2000C816D90608F453C0F601E81BF90BCF010A
:102C3000883C910508F450C0F12C7C2DD98AC88AB3
:102C400089890E946D14E8EBF1E086E0DF011D92B6
:102C50008A95E9F70E94AD14A0C0751314C034130F
:102C600012C0611110C08091BD01F8018583C801B7
:102C70000E94041486E0E8EBF1E0DF011D928A95E2
:102C8000E9F7FE2C8AC04D875E878D859E856A8B0D
:102C90000E9443146A89882309F4BECF662309F48D
:102CA000BBCF2091BD01822F82958F7090E002975B
:102CB0000CF48ECF8091B8019091B9019A838983E9
:102CC0001B82DD82CC822E83CE0101967FCF809540
:102CD00090958C0D9D1DACCFF62E662309F49CCFEC
:102CE00075132EC034132CC02091BD0120FD1FC0D0
:102CF000822F82958F70D9F0D80115962C93159755
:102D00008F3049F08F5F982F9295907F822F8F7030
:102D1000892B15968C93C8010E94041486E0F80153
:102D2000A8EBB1E001900D928A95E1F793CF86E090
:102D3000F801A8EBB1E001900D928A95E1F72DC062
:102D40004D875E878D859E850E944314811140CFFB
:102D50008091BD0181608093BD01C8010E9404146F
:102D60001CC0662309F458CF4D875E878D859E85EC
:102D70000E944314882309F44FCF2ACF811148CFF2
:102D80000CC0243031050CF047CF9F7009F440CFC0
:102D9000F8019581907F09F03BCF8F2D62960FB699
:102DA000F894DEBF0FBECDBFDF91CF911F910F9181
:102DB000FF90EF90DF90CF9008951F93CF93DF9314
:102DC000CDB7DEB72C970FB6F894DEBF0FBECDBFE0
:102DD0004F83588769877A878B879C87CE010796B0
:102DE0000E941615882369F08F8198852A853B8576
:102DF000232BF1F19F3F09F063C08F3F09F060C0C2
:102E000037C086E0FE013796DE01119601900D92E3
:102E10008A95E1F76F817885EA85FB85309741F1E6
:102E20007F3F11F46F3F21F12091870130E0C9010C
:102E30000196877099274091860150E08417950785
:102E400009F447C069837A83FD83EC8396E0929FFF
:102E5000D001939FB00D1124A857BE4FFE013196AB
:102E600001900D929A95E1F7809387010E948C144E
:102E700016E080918601909187018917C1F1189F12
:102E8000C001112488579E4F0E941615882379F19E
:102E9000E09186011E9FF0011124E857FE4F40810A
:102EA000518162817381848195810E947C1480911B
:102EB000860190E001968770992780938601D9CF8B
:102EC0004F81588569857A858B859C850E947C1405
:102ED000CFCF0E943F141092870110928601E8EB39
:102EE000F1E086E0DF011D928A95E9F7C1CF2C96CB
:102EF0000FB6F894DEBF0FBECDBFDF91CF911F910B
:102F00000895EF92FF920F931F93CF93DF938C015D
:102F1000892B09F46CC0F12CEE24E394E80121968E
:102F2000F8018491843740F4843008F051C0813036
:102F300081F0823019F15BC0853709F444C0A8F1F3
:102F40009CE7980F903708F052C08F770E948A1143
:102F500041C00E5F1F4FFE01C49180E28C0F88308C
:102F600048F4C7708E2D01C0880FCA95EAF70E94F9
:102F7000D91A14C08C2F0E94C2102DC00E5F1F4F93
:102F8000FE01C49180E28C0F883058F4C7708E2DFA
:102F900001C0880FCA95EAF70E94DF1A0E94001B41
:102FA0001AC08C2F0E948A1116C00E5F1F4FFE019F
:102FB000C491CC2381F08FE99FE00197F1F700C025
:102FC0000000C150F6CF0E5F1F4FFE01F49003C00A
:102FD0000E94C2108E018F2D882309F49FCFEFE944
:102FE000FFE03197F1F700C000008150F5CFDF918D
:102FF000CF911F910F91FF90EF90089508956093E6
:10300000F9017093FA018093FB019093FC010C94F9
:103010002B140F931F930091F9011091FA01209145
:10302000FB013091FC01DC01CB01802B912BA22B09
:10303000B32B8093F9019093FA01A093FB01B09315
:10304000FC011F910F910C942B140F931F9300916F
:10305000F9011091FA012091FB013091FC01DC0192
:10306000CB0180239123A223B3238093F901909372
:10307000FA01A093FB01B093FC011F910F910C94F6
:103080002B140F931F930091F9011091FA012091D5
:10309000FB013091FC01DC01CB0180279127A227A5
:1030A000B3278093F9019093FA01A093FB01B093A9
:1030B000FC011F910F910C942B141092F5011092AA
:1030C000F6011092F7011092F8010C942B1441E0D4
:1030D00050E060E070E004C0440F551F661F771F8A
:1030E0008A95D2F74093F5015093F6016093F7016A
:1030F0007093F8010C942B1441E050E060E070E014
:1031000004C0440F551F661F771F8A95D2F7809120
:10311000F5019091F601A091F701B091F801482BCB
:10312000592B6A2B7B2B4093F5015093F60160934A
:10313000F7017093F8010C942B1441E050E060E02B
:1031400070E004C0440F551F661F771F8A95D2F7A1
:1031500040955095609570958091F5019091F6019C
:10316000A091F701B091F801482359236A237B23EA
:103170004093F5015093F6016093F7017093F801C5
:103180000C942B1441E050E060E070E004C0440F68
:10319000551F661F771F8A95D2F78091F501909190
:1031A000F601A091F701B091F801482759276A2745
:1031B0007B274093F5015093F6016093F7017093DC
:1031C000F8010C942B140F931F930091F5011091AB
:1031D000F6012091F7013091F801DC01CB01802B41
:1031E000912BA22BB32B8093F5019093F601A09322
:1031F000F701B093F8011F910F910C942B140F93CA
:103200001F930091F5011091F6012091F701309183
:10321000F801DC01CB0180239123A223B323809307
:10322000F5019093F601A093F701B093F8011F9177
:103230000F910C942B140F931F930091F501109193
:10324000F6012091F7013091F801DC01CB018027D4
:103250009127A227B3278093F5019093F601A093BD
:10326000F701B093F8011F910F910C942B1408955E
:10327000292F220F920F990F890FA82FA695A69597
:10328000A695877051E001C0550F8A95EAF785E051
:10329000A89FD001112420E030E070E0F901EA0F8E
:1032A000FB1FE254FE4F4081CB01022E02C09695D7
:1032B00087950A94E2F78170992781958427852361
:1032C000842780832F5F3F4F2530310539F70895DC
:1032D000292F220F920F990F890F682F66956695F7
:1032E0006695982F977085E0689FB001112440E0A3
:1032F00050E080E0FA01E60FF71FE254FE4F208114
:1033000030E0092E02C0369527950A94E2F7217025
:103310003327042E01C0220F0A94EAF7822B4F5F55
:103320005F4F4530510531F70895CF92DF92EF920C
:10333000FF920F931F93CF93DF938C01C090F901FD
:10334000D090FA01E090FB01F090FC018091F50132
:103350009091F601A091F701B091F801C82AD92AFD
:10336000EA2AFB2ACFE1D0E0D701C6010C2E04C027
:10337000B695A795979587950A94D2F780FF06C0D2
:10338000B8018C2F0E940408019721F4219760F75F
:1033900080E001C08C2FDF91CF911F910F91FF90A2
:1033A000EF90DF90CF900895CF93DF93EC010E94D0
:1033B0009519BE010E940408DF91CF9108951F93D3
:1033C000CF93DF93EB0190918501992321F0CB01FD
:1033D0000E94D41913C0882349F0CB010E9495198B
:1033E000182F682FCE010E94381904C0CB010E940B
:1033F0006819182FBE01812F0E940408DF91CF9118
:103400001F9108958091FD01859585958595089575
:103410008091FD018770089598E0899F90011124A3
:10342000262B2093FD010C947C182091FD018095A2
:1034300082238093FD01982F977069F430E0482F24
:10344000552747FD50952417350729F08595859513
:1034500085950C949D1808959091FD01977081E0D9
:1034600009F480E0089590910C01992321F0909146
:103470000D01911109C020910E0130910F01F90148
:1034800032969FEF40E01FC0982F9695969596959F
:103490009F3050F5E0910E01F0910F01E90FF11D01
:1034A000877021E030E0A90102C0440F551F8A95C2
:1034B000E2F7CA019181892B818308959F3F39F0FA
:1034C0004F5F4E3041F051915813F8CF0DC051115C
:1034D000F7CF942FF5CF9F3F39F0F901E90FF11D98
:1034E00097FDFA9582830895089590910C01992390
:1034F00021F090910D01911109C020910E013091A0
:103500000F01F9013296205F3F4F1FC0982F96950B
:10351000969596959F30F0F4E0910E01F0910F0191
:10352000E90FF11D877021E030E0A90102C0440FCE
:10353000551F8A95E2F7CA0180959181892381837D
:1035400008953196E217F30729F090819813F9CF87
:103550001082F7CF089581E090E0E0910E01F091A4
:103560000F01E80FF91F1082019680319105A9F72C
:10357000089590911102892B8093110208958095EE
:1035800090911102892380931102089510921102E3
:10359000089590911002892B8093100208958095D0
:1035A00090911002892380931002089510921002C6
:1035B000089590910F02892B80930F0208958095B2
:1035C00090910F02892380930F02089510920F02A9
:1035D00008958093FE0108951092FE010895809150
:1035E0000E0190910F01FC0131969C01205F3F4F2D
:1035F00080E0919191118F5FE217F307D1F7089561
:10360000E0910E01F0910F01809111028083E09111
:103610000E01F0910F01908180911002892B80831F
:10362000E0910E01F0910F01908180910F02892BA2
:1036300080838091FE01882361F0E0910E01F0917A
:103640000F019081892B80830E94EF1A81111092C3
:10365000FE0180910E0190910F010C94B20F20E0B9
:10366000009739F0AC0141505109842395232F5F15
:10367000F7CF822F0895CF92DF92EF92FF926C01E5
:10368000EE24FF24C114D104E104F10421F0C701A8
:10369000B60120E101C020E0C72ED82EE92EFF247C
:1036A000C114D104E104F10419F0285FC701B60187
:1036B0006B017C0154E0F694E794D794C7945A9533
:1036C000D1F7C114D104E104F10419F02C5FC70152
:1036D000B6016B017C0142E0F694E794D794C7945D
:1036E0004A95D1F7C114D104E104F10419F02E5F19
:1036F000C701B601DC01CB01B695A79597958795D3
:10370000892B8A2B8B2B09F02F5F822FFF90EF9054
:10371000DF90CF90089580912902843021F110929A
:10372000130220E488E190E00FB6F894A895809306
:1037300060000FBE2093600080E00E949F0883B766
:10374000817F846083BF83B7816083BF78948895CD
:1037500083B78E7F83BF88E10FB6F89480936000B3
:10376000109260000FBE0895089508950E94B41B42
:103770000E94E4030E94B51B0E94D90491E08111CC
:1037800001C090E0892F08950E943F140E94A60F67
:103790000C949F0882E084BD93E095BD9AEF97BD9D
:1037A00080936E0008952FB7F89480911402909141
:1037B0001502A0911602B09117022FBF0895CF9263
:1037C000DF92EF92FF920F931F932FB7F8944091DF
:1037D00014025091150260911602709117022FBFCA
:1037E0006A017B01EE24FF248C0120E030E0C0164A
:1037F000D106E206F30610F4415051099A01281B44
:10380000390BC9011F910F91FF90EF90DF90CF907E
:1038100008951F920F920FB60F9211248F939F93CA
:10382000AF93BF938091140290911502A09116025C
:10383000B09117020196A11DB11D809314029093BF
:103840001502A0931602B0931702BF91AF919F91FA
:103850008F910F900FBE0F901F9018950E94A30C90
:10386000F8942FEF87EA91E6215080409040E1F7ED
:1038700000C0000087E090EBDC018093330290935E
:103880003402A0933502B09336029CE088E10FB673
:10389000F894A895809360000FBE90936000FFCFCE
:1038A000EF92FF920F931F93CF93DF93D82FCDE02A
:1038B0008C2F0E94D20405E010E0E82EF12CC70105
:1038C000002E02C0959587950A94E2F780FF09C003
:1038D000602F7C2F80E00E94B005D81302C081E0E9
:1038E00006C00150110958F7C15010F780E0DF9170
:1038F000CF911F910F91FF90EF900895CF93C82F14
:103900008CE20E94501C882321F08C2FCF910C94C4
:10391000501C80E0CF910895CF930E94D31D811158
:1039200002C00E94B91DC5E6C15049F00E94E403DF
:103930008FE39CE90197F1F700C00000F5CF89E221
:103940000E947E1C811113C18AE20E947E1C81119B
:103950000E94B91D85E00E947E1C81110E942E1CD0
:103960000E94DE1D8093120287E00E947E1C882345
:10397000A9F18BE10E947E1C882351F080911202F4
:1039800081FB222720F991E0922790FB81F90EC05C
:103990008EE00E947E1C882361F08091120282FBDF
:1039A000222720F991E0922790FB82F9809312025E
:1039B00015C080E10E947E1C90911202882341F084
:1039C00093FB222720F981E0822780FB93F904C032
:1039D000892F809580FB90F99093120280911202BA
:1039E0000E94E21D0E94F01D8093320280EE0E9430
:1039F0007E1C882341F080913202982F909590FB95
:103A000080F98093320289E30E947E1C882359F05A
:103A10008091320281FB222720F991E0922790FBCE
:103A200081F98093320282EE0E947E1C882359F035
:103A30008091320282FB222720F991E0922790FBAD
:103A400082F98093320286EE0E947E1C882359F010
:103A50008091320283FB222720F991E0922790FB8C
:103A600083F98093320283EE0E947E1C882359F0F2
:103A70008091320284FB222720F991E0922790FB6B
:103A800084F98093320285E30E947E1C882359F0DA
:103A90008091320285FB222720F991E0922790FB4A
:103AA00085F98093320281E30E947E1C882359F0BD
:103AB0008091320286FB222720F991E0922790FB29
:103AC00086F98093320281E10E947E1C882359F09E
:103AD0008091320287FB222720F991E0922790FB08
:103AE00087F980933202809132020E94F41D809106
:103AF000320287FB882780F980930D0187E20E94BC
:103B00007E1CC82F8EE10E947E1C8111C2608FE155
:103B10000E947E1C8111C46080E20E947E1C811183
:103B2000C86081E20E947E1C8111C06182E20E9415
:103B30007E1C8111C06283E20E947E1C8111C064E0
:103B400084E20E947E1C882311F0C06802C0CC234E
:103B500029F08C2F0E94EB1D6C2F03C00E94E71DE3
:103B6000682F70E080E090E0CF910C94FF17CF9128
:103B700008956DEE7EEF80E090E00E94252460E0E5
:103B800082E090E00E94132460E083E090E00E94D5
:103B9000132460E084E090E00E94132460E085E05C
:103BA00090E00C94132480E090E00E940D2421E02A
:103BB0008D3E9E4F09F020E0822F089582E090E034
:103BC0000C940524682F82E090E00C94132483E089
:103BD00090E00C940524682F83E090E00C9413246B
:103BE00084E090E00C940524682F84E090E00C942D
:103BF000132480911A0280FF0BC06091130185E0AD
:103C0000689FB001112475956795759567952BC0D0
:103C100081FF09C06091130185E0689FB001112404
:103C20007595679520C082FF07C06091130185E0FC
:103C3000689FB001112417C090911B029923D1F005
:103C400060911201961788F72091130185E0289F53
:103C500090011124929FA001939F500D112470E0B8
:103C6000CA010E94D7236038710540F461157105BF
:103C700039F002C065E070E0862F08958FE708955F
:103C800081E0089580911A0280FF08C060911101BF
:103C900070E0759567957595679521C081FF06C0A1
:103CA0006091110170E07595679519C082FF04C09D
:103CB0006091110170E010C090911B029923C1F036
:103CC000609110019617A0F780911101899FC001A2
:103CD000112470E00E94D7236038710528F4611523
:103CE000710521F0862F08958FE7089581E00895EA
:103CF00061E070E0F4CF803F21F40E94F91D8195CE
:103D000004C0813F29F40E94F91D80931E0208958A
:103D1000823F21F40E94F91D819504C0833F29F45C
:103D20000E94F91D80931D020895893F19F40E9495
:103D3000421E05C08A3F31F40E94421E8195809345
:103D40001F0208958B3F21F40E94421E819504C0FA
:103D50008C3F29F40E94421E809320020895843FE4
:103D600021F480911C02816017C0853F21F480916D
:103D70001C02826011C0863F21F480911C02846085
:103D80000BC0873F21F480911C02886005C0883FEA
:103D900031F480911C02806180931C0208958D3F54
:103DA00021F480911A0281600BC08E3F21F4809132
:103DB0001A02826005C08F3F29F480911A02846044
:103DC00080931A020895803F39F480911E0287FF84
:103DD0006CC010921E0269C0813F29F480911E02BE
:103DE0001816BCF362C090911D02823F29F497FF20
:103DF0005CC010921D0259C0833F19F41916CCF310
:103E000054C0893F41F480911F0218160CF04DC038
:103E100010921F024AC08A3F29F480911F0287FF37
:103E200044C0F6CF8B3F39F48091200287FF3DC01C
:103E3000109220023AC08C3F29F48091200218167B
:103E4000BCF333C0843F21F480911C028E7F17C0E5
:103E5000853F21F480911C028D7F11C0863F21F4A3
:103E600080911C028B7F0BC0873F21F480911C0244
:103E7000877F05C0883F31F480911C028F7E80933C
:103E80001C0213C08D3F21F480911A028E7F0BC05B
:103E90008E3F21F480911A028D7F05C08F3F29F457
:103EA00080911A028B7F80931A0280911D028111EA
:103EB0000EC080911E0281110AC080911F028111E3
:103EC00006C080912002811102C010921B02089549
:103ED0008CE192E00E94BD0F0E94D31B90931902C7
:103EE0008093180208951F93CF93DF938091180257
:103EF000909119020E94DF1BAC0190911B02992343
:103F000021F02091140130E006C0209115018AE0D3
:103F1000289F900111244217530708F486C080910E
:103F20001D02C0911E02D0911F021091200281112A
:103F300007C0C11176C0D11174C0111172C075C013
:103F40009F3F19F09F5F90931B02181624F40E9464
:103F5000F91D80931D0280911D0287FF05C00E94FC
:103F6000F91D819580931D021C1624F40E94F91DF1
:103F700080931E0280911E0287FF05C00E94F91DDA
:103F8000819580931E0260911D02662339F1C091D4
:103F90001E02CC2319F1772767FD7095872F972F85
:103FA0000E94E82223E333E343E35FE30E944C23D0
:103FB0000E94B52260931D026C2F772767FD7095D4
:103FC000872F972F0E94E82223E333E343E35FE345
:103FD0000E944C230E94B52260931E021D1624F4F9
:103FE0000E94421E80931F0280911F0287FF05C01E
:103FF0000E94421E819580931F02111624F40E9494
:10400000421E809320028091200287FF05C00E94FB
:10401000421E819580932002DF91CF911F910C94D5
:10402000681F9F3F09F08ECF96CFDF91CF911F91F0
:104030000895ECE1F2E085E0DF011D928A95E9F751
:1040400010921B0210921A020895833081F128F415
:10405000813059F08230D1F00895853009F449C09B
:10406000B8F1863009F456C0089580911501262FC5
:1040700030E0280F311D2F3F310524F4680F609385
:10408000150108958FEF8093150108958091140113
:10409000262F30E0280F311D2F3F310524F4680F03
:1040A0006093140108958FEF809314010895809117
:1040B0001301262F30E0280F311D2F3F310524F446
:1040C000680F6093130108958FEF80931301089593
:1040D00080911201262F30E0280F311D2F3F31052E
:1040E00024F4680F6093120108958FEF80931201FA
:1040F000089580911101262F30E0280F311D2F3FA8
:10410000310524F4680F6093110108958FEF8093B7
:104110001101089580911001262F30E0280F311DE4
:104120002F3F310524F4680F6093100108958FEF3D
:10413000809310010895833011F128F4813049F003
:10414000823091F00895853081F120F18630C1F1FF
:10415000089580911501681720F4861B809315013E
:10416000089510921501089580911401681720F4A4
:10417000861B809314010895109214010895809174
:104180001301681720F4861B809313010895109281
:104190001301089580911201681720F4861B809303
:1041A000120108951092120108958091110168176B
:1041B00020F4861B80931101089510921101089537
:1041C00080911001681720F4861B809310010895D8
:1041D0001092100108950F931F938D3109F46BC055
:1041E00008F03FC08E3009F47FC0C0F4873009F476
:1041F00069C068F4863009F0B1C080911202817FF5
:104200008E7F8093120281E080932202A8C08830C2
:1042100009F4A2C08B3009F49FC0A0C0863109F414
:104220009BC078F4803109F472C0813109F096C0E6
:104230000E943F1490910D0181E0892780930D0128
:104240008BC0893109F488C08B3109F087C0809117
:10425000120281FB222720F991E0922790FB81F93D
:104260004CC0853309F470C048F4873209F46CC03F
:1042700008F459C0893209F467C070C0833438F437
:104280008A3308F04EC0883309F466C067C08334AF
:1042900009F45AC0883409F061C00E943F140FEF3E
:1042A00013ED20E3015010402040E1F700C0000072
:1042B0000E942E1C51C00E946F220E94A60F0E94D5
:1042C0009F084AC090911202892F8095817080FBCF
:1042D00090F929F0966098609093120240C0997FFF
:1042E000977F9093120238C08091120282FB22279E
:1042F00020F991E0922790FB82F980931202992392
:1043000059F18091120281608093120225C0809140
:10431000120283FB222720F991E0922790FB83F978
:10432000ECCF895301C08D5141E050E060E070E076
:104330008A019B0104C0000F111F221F331F8A95A1
:10434000D2F7C901B80104C061E070E080E090E0FC
:104350000E94FF170E943F1481E001C080E01F917E
:104360000F91089580E0089580E00895CF93C82FBD
:1043700080912202813079F018F08230E9F187C013
:10438000E0910E01F0910F018081813169F082325C
:1043900009F07FC009C0E0910E01F0910F0180810A
:1043A000813111F0823261F48C2F0E94B22181118F
:1043B00004C08C2F0E94EB201DC081E090E01AC049
:1043C0008C2F0E94B421811114C0C43179F048F4BB
:1043D000CB3079F0C03109F060C082E080932202D6
:1043E00008C0C93219F0C83321F057C01092220218
:1043F00054C081E0817053C0C93289F118F5C431CD
:1044000071F1A8F4C73009F046C08AE08093150125
:1044100094E19093140193E090931301809312011F
:1044200088E08093110188E28093100134C0CE515E
:10443000C63088F5EC2FF0E0E65DFE4F808180937A
:10444000210229C0CE34E9F020F4CB3421F56AE012
:1044500013C0C13579F0C235F1F461E00DC080912F
:104460002102882319F01092210215C081E0809367
:10447000220215C061E006C0809121020E94252021
:104480000AC06AE0809121020E949B2004C0109221
:10449000220280E004C081E002C080E0ABCFCF9177
:1044A0000895E1E8F0E08081886080838081816008
:1044B00080838FB7F89493E09093890090ED909368
:1044C00088008FBF0895EFE6F0E0808182608083EE
:1044D0000895EFE6F0E080818D7F80830895EFE618
:1044E000F0E0908182E08927808308951F920F92E7
:1044F0000FB60F9211242F933F934F935F936F93B7
:104500007F938F939F93AF93BF93EF93FF9380918C
:104510002302909124020196909324028093230217
:10452000811103C082E00E949F08E0912402E69579
:10453000E695F0E0E45FFB4FE491809123028E1357
:1045400003C080E00E949F08FF91EF91BF91AF915F
:104550009F918F917F916F915F914F913F912F919B
:104560000F900FBE0F901F90189504D06894B11152
:104570008DC0089570D088F09F5790F0B92F99277B
:10458000B751A0F0D1F0660F771F881F991F1AF05E
:10459000BA95C9F712C0B13081F077D0B1E0089573
:1045A00074C0672F782F8827B85F39F0B93FCCF3F4
:1045B000869577956795B395D9F73EF49095809554
:1045C000709561957F4F8F4F9F4F0895E89409C074
:1045D00097FB3EF490958095709561957F4F8F4F36
:1045E0009F4F9923A9F0F92F96E9BB279395F6954C
:1045F000879577956795B795F111F8CFFAF4BB0FCA
:1046000011F460FF1BC06F5F7F4F8F4F9F4F16C02D
:10461000882311F096E911C0772321F09EE8872FB7
:10462000762F05C0662371F096E8862F70E060E073
:104630002AF09A95660F771F881FDAF7880F9695EC
:10464000879597F9089557FD9058440F551F59F0D5
:104650005F3F71F04795880F97FB991F61F09F3F6F
:1046600079F087950895121613061406551FF2CF98
:104670004695F1DF08C0161617061806991FF1CFE8
:1046800086957105610508940895E894BB2766270F
:104690007727CB0197F908950BD078C069D028F01F
:1046A0006ED018F0952309F05AC05FC01124EECFE8
:1046B000CADFA0F3959FD1F3950F50E0551F629F7D
:1046C000F001729FBB27F00DB11D639FAA27F00D6B
:1046D000B11DAA1F649F6627B00DA11D661F829F92
:1046E0002227B00DA11D621F739FB00DA11D621F77
:1046F000839FA00D611D221F749F3327A00D611D94
:10470000231F849F600D211D822F762F6A2F112475
:104710009F5750408AF0E1F088234AF0EE0FFF1FC8
:10472000BB1F661F771F881F91505040A9F79E3FFF
:10473000510570F014C0AACF5F3FECF3983EDCF354
:10474000869577956795B795F795E7959F5FC1F73C
:10475000FE2B880F911D9695879597F9089597F9E7
:104760009F6780E870E060E008959FEF80EC089517
:1047700000240A9416161706180609060895002440
:104780000A9412161306140605060895092E0394BA
:10479000000C11F4882352F0BB0F40F4BF2B11F42E
:1047A00060FF04C06F5F7F4F8F4F9F4F089597FB4F
:1047B000072E16F4009407D077FD09D00E94F1234C
:1047C00007FC05D03EF4909581959F4F0895709514
:1047D00061957F4F0895EE0FFF1F0590F491E02D36
:1047E0000994AA1BBB1B51E107C0AA1FBB1FA61738
:1047F000B70710F0A61BB70B881F991F5A95A9F78A
:1048000080959095BC01CD010895F999FECF92BD98
:1048100081BDF89A992780B50895A8E1B0E042E0FB
:1048200050E00C942D24262FF999FECF92BD81BD26
:10483000F89A019700B4021639F01FBA20BD0FB6DE
:10484000F894FA9AF99A0FBE08950196272F0E94BC
:1048500014240C941324DC01CB01FC01F999FECF44
:1048600006C0F2BDE1BDF89A319600B40D924150F8
:0A4870005040B8F70895F894FFCF08
:10487A002002A1082F090C09D808A4080101FF0188
:10488A0028080A03140A3F4D3639CD0380034A0328
:10489A001103A402BD02D602EF02010203040506B7
:0448AA0007080900F2
:00000001FF
