:100000000C9427020C946B020C946B020C946B0200
:100010000C946B020C946B020C946B020C946B02AC
:100020000C946B020C946B020C943B1F0C940D20EF
:100030000C94BF150C946B020C946B020C946B0225
:100040000C946B020C946B020C946B020C946B027C
:100050000C946B020C9426160C946B020C946B029D
:100060000C946B020C946B020C946B020C946B025C
:100070000C946B020C946B020C946B020C946B024C
:100080000C946B020C946B020C946B020C946B023C
:100090000C946B020C946B020C946B020C946B022C
:1000A0000C946B020C946B020C946B02B904BF04A9
:1000B000C304C604CA04CE04D204D604DB04DF049D
:1000C000E304E704EA04EE04F204F604FA04FF048D
:1000D000B50BB50BE80BE80B200C420C6A0D6A0D52
:1000E0004D0C6A0DF40CF40C5D0D6A0D6A0D650D76
:1000F000010D010D010D010D010D010D010D010D90
:10010000010D010D010D010D010D010D010D010D7F
:10011000130D210D280D2F0D390DEA0DEA0DFD0DE2
:10012000FD0DF30DFD0DFD0DFD0DEA0DEA0DF90DB3
:10013000FD0DFD0DF90D722094207F2194207F216B
:10014000D620F9207F214E2161210000F0A1350049
:100150002B000151E100E00000001E00140004002B
:100160001D00010001001F001A0016001B00010005
:10017000E20020000800070006000100E300210063
:1001800015000900190029000100220017000A00CB
:1001900005000000010001002D0000002F000000FC
:1001A000010001002E00000030000000A500230027
:1001B0001C000B00110000000100240018000D00BD
:1001C00010000100010025000C000E0036000100A7
:1001D0002C00260012000F00370001002A00270023
:1001E00013003300380001004C002A0031002800C1
:1001F000340001000000010001000100E100E00006
:1002000000003A00010001000100010001003B0074
:100210000100E10001000100E2003C000100E000FB
:1002200001000100E3003D000100010001000100A8
:1002300001003E000100010001000000010001007A
:1002400001000000010000000100010001000000A9
:1002500001000000A5003F00A8005000AC00000015
:1002600001004000AA005100AB0001000100410064
:10027000A9005200010001002C004200AE004F0016
:10028000010001002A0043000100010001000100FB
:100290004C0044004500010001000100000016036D
:1002A0004500720067006F0044006F007800200076
:1002B00045005A00000016034500720067006F00F9
:1002C00044006F007800200045005A00000004033D
:1002D000090409026D00040100A0FA0904000001EC
:1002E00003010100092111010001224000070581DD
:1002F0000308000A09040100010301020009211199
:10030000010001224D000705820308000A090402CA
:10031000000103000000092111010001223600073D
:1003200005830308000A0904030001030000000913
:100330002111010001223900070584032000011268
:1003400001100100000008EDFE071301000102008A
:100350000105010906A101050719E029E715002596
:100360000195087501810205081901290595057592
:100370000191029501750391010507190029F715EF
:1003800000250195F875018102C005010980A101D0
:10039000850216810026B7001A81002AB700751061
:1003A00095018100C0050C0901A10185031601001A
:1003B000269C021A01002A9C02751095018100C03A
:1003C00005010902A1010901A10005091901290579
:1003D00015002501950575018102950175038101BF
:1003E0000501093009311581257F950275088106BF
:1003F00009381581257F950175088106050C0A3895
:10040000021581257F950175088106C0C005010987
:1004100006A101050719E029E715002501950875D2
:1004200001810295017508810105081901290595C9
:1004300005750191029501750391010507190029C0
:10044000FF150026FF00950675088100C0001124E5
:100450001FBECFEFDAE0DEBFCDBF04B603FE24C07F
:100460008091570290915802A0915902B0915A027E
:100470008730904BA740B04BB9F4109257021092BE
:1004800058021092590210925A0214BE84B7877F04
:1004900084BF88E10FB6F8948093600010926000EA
:1004A0000FBEE0E0FFE3099511E0A0E0B1E0EAE76C
:1004B000F6E402C005900D92A433B107D9F722E00B
:1004C000A4E3B1E001C01D92A735B207E1F70E9495
:1004D000871C0C943B230C9400001092B9008AE016
:1004E0008093B800089594EA9093BC009091BC006A
:1004F00097FFFCCF9091B900987F983021F0903110
:1005000011F081E008958093BB0084E88093BC00E3
:100510008091BC0087FFFCCF8091B900887F883133
:1005200011F0803471F780E0089584E98093BC0075
:100530008091BC0084FDFCCF08958093BB0084E8CB
:100540008093BC008091BC0087FFFCCF9091B900E4
:10055000987F81E0983209F480E0089584E88093E0
:10056000BC008091BC0087FFFCCF8091BB00089548
:1005700080B38C7080BB81B3836F81BB0895809101
:100580000101811115C080E40E9473028093010172
:1005900081110CC082E10E949D02809301018111B2
:1005A00005C08FEF0E949D02809301010E94950279
:1005B00084B1807F84B985B1807F85B98AB1837F1A
:1005C0008AB98BB1837F8BB93E98469808950C9475
:1005D00026040E944908809301010E94BF020E94E4
:1005E000B802E3E4F1E0A5E3B1E011921D9281E0ED
:1005F000E135F807D1F70C9433080E94490880933D
:1006000001010E94BF020E94B802E3E4F1E0A5E309
:10061000B1E011921D9281E0E135F807D1F708951C
:100620008F929F92BF92CF92DF92EF92FF920F93A1
:100630001F93CF93DF931F92CDB7DEB78091010157
:10064000882379F0809134018F5F80933401811188
:1006500008C00E94490880930101811102C00E94D4
:10066000DB0705E311E0812C912CEE24E394F12CBF
:10067000DD24D39492E0C92E282D273030F58091C7
:100680000101811142C080E489820E94730280933B
:1006900001012981811114C082E10E949D02809391
:1006A0000101298181110CC0C701082C01C0880FEC
:1006B0000A94EAF780950E949D02809301012981A6
:1006C00029830E949502298120C02A30A1F028F4B4
:1006D000283059F0293061F005C02C3089F070F0D5
:1006E0002D3089F0209A289810C0219A29980DC0A1
:1006F000229A2A980AC0239A2B9807C0529A01C0BE
:10070000539A5B9802C03E9A469830EA3A95F1F7C0
:10071000273018F580910101811144C080E40E94C6
:10072000730280930101882311F0B12C12C083E180
:100730000E949D02809301018111F7CF81E40E9404
:100740007302809301018111F0CF0E94AE02B82E96
:10075000B0940E9495028B2D26C08FB181708D259B
:10076000799B02C090E001C092E0892B7C9B02C083
:1007700090E001C094E0892B7D9B02C090E001C015
:1007800098E0892B7E9B02C090E001C090E1892B0C
:100790009FB19095991F9927991F9295990F907ED7
:1007A000892B01C080E0F8019081981719F08083AF
:1007B000C09200010E94BF02FFEF8F1A9F0A0F5FD5
:1007C0001F4F3EE08316910409F056CF809100013F
:1007D0008823A1F0815080930001882329F085E0CF
:1007E0008A95F1F700000AC0A3E4B1E0E5E3F1E087
:1007F00081918D9331E0E334F307D1F70E946B05CB
:1008000081E00F90DF91CF911F910F91FF90EF90BA
:10081000DF90CF90BF909F908F900895E82FF0E0E9
:10082000ED5BFE4F80810895089561110BC0FC01BE
:100830008281882321F085EE0E94480A03C085EE5C
:100840000E941B0B80E090E0089508956091E801FC
:100850007091E9018091EA019091EB010E94F114FD
:1008600056985E9825982D9826982E9827982F9818
:10087000813019F0823021F00895259A2D9A08953B
:10088000269A2E9A089581E0089581E008950C94A7
:1008900045040E94D80D2FEF84E39CE02150804056
:1008A0009040E1F700C000000C944B16FF920F93AC
:1008B0001F93CF93DF93EC01088119818091780118
:1008C000811113C08A81882349F0C8010E945913FD
:1008D000F82E682FC8010E94FD1204C0C8010E94B2
:1008E0002C13F82EB8018F2D04C0C8010E94591393
:1008F000B8010E9400078C01BE010E9447048823B2
:1009000009F4E2C0BE01C8010E948F07882309F4E0
:10091000DBC0BE01C8010E940409882309F4D4C0C9
:10092000053180E7180708F09FC0023080E71807FC
:1009300008F477C08A81882309F47FC00E945E157D
:10094000811102C00E9444150E94711590E090939D
:10095000490280934802F801E350F047E231F10583
:1009600020F4EA5AFF4F0C94EB22809148028160F8
:1009700003C0809148028260809348024BC08091FE
:1009800048028460F9CF8091480213C080914802E8
:100990008061F2CF809148028062EECF8091480260
:1009A0008064EACF809148028068E6CF8091480257
:1009B00084608860E1CF809148028E7FDDCF809196
:1009C00048028D7FD9CF809148028B7FD5CF80910F
:1009D000480213C0809148028F7ECECF809148029A
:1009E0008F7DCACF809148028F7BC6CF809148020D
:1009F0008F77C2CF809148028B7F877FBDCF909148
:100A0000480297FB882780F921E0822780FB97F92D
:100A100090934802809148020E9475150E94D80D5B
:100A200053C0011580E7180781F00130104799F095
:100A300081E08093510180935201CE01DF91CF91EB
:100A40001F910F91FF900C9443048A818823E1F158
:100A50000E94490439C08A818823B1F1809115022E
:100A600081608093150230C00C3380E7180799F439
:100A70008A81882321F01092510182E015C0809173
:100A80005101811106C086E20E94480A86E20E9456
:100A90001B0B82E017C00D33104751F68A81882363
:100AA00031F01092520180E20E946A0B0DC08091D9
:100AB0005201811106C087E20E94480A87E20E9423
:100AC0001B0B80E20E94710B80E0DF91CF911F91A0
:100AD0000F91FF9008950C94E70208950C946D0512
:100AE0000C946E0526E0729FF001112444E5849F6A
:100AF000E00DF11D1124E60FF11DEE0FFF1FE25B6B
:100B0000FE4F859194910E941207811520E492076F
:100B1000B0F5811540E3940708F0E5C0803E9105EB
:100B2000D8F4803C910508F06BC0883A910578F4C0
:100B3000853A910508F06AC08130910509F45EC1DB
:100B400008F415C18430910508F058C110C18D3BDF
:100B5000910508F466C00BC18F3F910509F048F478
:100B6000803F910508F0B4C0883E910508F446C165
:100B7000FEC0811520E2920708F0ACC008958115EF
:100B800043E5940790F4811522E5920708F0CFC061
:100B9000811541E5940708F0C5C0811520E592074D
:100BA00008F0A4C09F70906A0895811545E59407E8
:100BB000D0F4811524E5920708F0CEC0282F2695A1
:100BC000269540E2249F90011124AC0143705527E3
:100BD00081E090E002C0880F991F4A95E2F7822BCE
:100BE000932B9A680895811546E5940708F4B9C0D7
:100BF0009C0130562115304108F0B9C09F70B5C036
:100C0000FC01EE0FFF1FE653F0406AC0853A9105E4
:100C100009F4B0C0863A910509F4AFC083E890E4C6
:100C20000895883A910509F4ABC0893A910509F411
:100C3000AAC08A3A910509F4A9C08B3A910509F432
:100C4000A8C08C3A910509F4A7C08B3B910509F423
:100C5000A6C08C3B910509F4A5C08D3A910509F415
:100C6000A4C0803B910509F4A3C08E3A910509F414
:100C7000A2C08F3A910509F4A1C0813B910509F406
:100C8000A0C0823B910509F49FC0833B910509F404
:100C90009EC0843B910509F49DC0853B910509F4F4
:100CA0009CC0863B910509F49BC0873B910509F4E4
:100CB0009AC0883B910509F499C0893B910509F4D4
:100CC00098C08A3B910509F097C08AE296E408959E
:100CD000906508959F70880F991F865B9E4FFC0159
:100CE0008591949108959927906C0895482F4370A9
:100CF00021E030E002C0220F331F4A95E2F73C6842
:100D0000AC0164E0569547956A95E1F74370342B42
:100D10008F708695869540E2849FC0011124822BB6
:100D2000932B0895982F8827816F906A0895282F14
:100D30002695269540E2249F90011124AC01437032
:100D4000552781E090E002C0880F991F4A95E2F78D
:100D5000822B932B9C680895982F8827846F906A24
:100D600008958F719927982F88279062089580E0C1
:100D700090E0089581E890E4089582E890E4089571
:100D800082EE94E4089589EE94E408958AEE94E462
:100D9000089585EB94E4089586EB94E4089583EB3D
:100DA00094E4089584EB94E4089587EB94E4089523
:100DB0008CEC94E408958DEC94E4089583E895E434
:100DC00008958AE895E4089582E995E4089584E910
:100DD00095E4089581E296E4089583E296E4089507
:100DE00084E296E4089585E296E4089586E296E426
:100DF000089587E296E4089580E094E408950895C4
:100E000096E0799FF001112494E5899FE00DF11D92
:100E10001124E60FF11DEE0FFF1FE25BFE4F8591DF
:100E2000949108958238910549F1B0F48133910588
:100E300009F459C048F48932910509F44FC08A3247
:100E4000910509F455C008958533910509F441C011
:100E50008933910599F00895833E910531F138F475
:100E6000803E910591F0823E9105A9F00895863E5D
:100E7000910501F1873E910539F1089520914802CD
:100E800020FD3BC021FD39C008958091480280FFBC
:100E900034C089E341C08091480282FF32C0809112
:100EA000480284FF2CC080E037C08091480282FD58
:100EB00028C0F5CF8091480283FF25C08091480269
:100EC00084FDF1CF87EE28C08091480283FD1BC0CE
:100ED000F5CF8091480285FF18C019C08091480263
:100EE00085FF15C012C08091480286FF12C013C052
:100EF0008091480286FF0FC00CC080EE0DC083EECB
:100F00000BC082EE09C086EE07C085E305C089E20A
:100F100003C081E301C08AE290E008950895CF9371
:100F2000DF93EC01FB018281811102C081E040C0AE
:100F300080916001811125C0C531D047B9F70E9469
:100F40008E0781E0809360010E94F11590935F010C
:100F500080935E011092530110925501109254013A
:100F60001092570110925601109259011092580197
:100F700010925B0110925A0110925D0110925C0177
:100F800016C080915E0190915F010E94FD15883C22
:100F9000910560F680915301E82FF0E0EE0FFF1FFE
:100FA000EC5AFE4FD183C0838F5F8093530180E062
:100FB000DF91CF91089556985E9825982D982698A0
:100FC0002E9827982F988FEF90E090938900809328
:100FD000880090938B0080938A0090938D0080937B
:100FE0008C00259A2D9A2FEF80E792E021508040C7
:100FF0009040E1F700C00000269A2E9A2FEF80E77C
:1010000092E0215080409040E1F700C00000279A14
:101010002F9A2FEF80E792E0215080409040E1F737
:1010200000C0000025982D982FEF80E792E0215016
:1010300080409040E1F700C0000026982E982FEFE6
:1010400080E792E0215080409040E1F700C000002E
:1010500027982F9856985E9825982D9826982E9820
:1010600027982F98089589EA8093800089E08093DB
:10107000810024982C983F988AB18F748AB96E9811
:10108000479A8BB1806B8BB9769A0E94DB070C94E0
:10109000250480E2809301018091610181110EC0DD
:1010A0000E946D0281E0809361012FEF83ED90E358
:1010B000215080409040E1F700C0000080E40E9491
:1010C00073028093010181112EC00E949D028093C2
:1010D0000101811128C00E949D02809301018111AC
:1010E00022C08FE30E949D028093010181111BC0E9
:1010F0000E94950280E40E94730280930101811195
:1011000012C08CE00E949D028093010181110BC0EE
:101110000E949D0280930101811105C08FE30E940E
:101120009D02809301010E94950280910101089522
:10113000282F882339F090E02A3010F44D96089536
:101140000697089587E290E00895809162018130CA
:1011500079F050F08230F1F482EE0E94480A87E57F
:101160000E94480A87E514C082EE0E94480A12C015
:1011700080EE0E94480A81EE0E94480A88E10E949F
:10118000480A88E10E941B0B81EE0E941B0B80EE37
:101190000E941B0B8FE39CE90197F1F700C0000050
:1011A000089580916201813029F010F0823041F47D
:1011B00082EE04C08CE20E94480A8CE20C941B0B65
:1011C0000895FF920F931F93CF93DF938C01CCE090
:1011D000D0E0C8010C2E02C0969587950A94E2F7DC
:1011E0008F700E949808F82E0E94480A8F2D0E9446
:1011F0001B0B2497CC3F8FEFD80759F7DF91CF9186
:101200001F910F91FF900895CF93DF93EC01C130B0
:1012100080E8D80760F0FB018281882341F00E94BA
:10122000A508CE019F770E94E1080E94D10881E0C5
:10123000DF91CF910895909368018093670108959D
:10124000E0916701F0916801309721F00190F08101
:10125000E02D099480E00895E0916701F091680124
:10126000309721F00280F381E02D09940895E091F8
:101270006701F0916801309721F00480F581E02D3D
:1012800009940895209165013091660182179307B2
:1012900071F09093660180936501E0916701F09190
:1012A0006801309721F00680F781E02D09940895B8
:1012B00020916301309164018217930771F090933C
:1012C000640180936301E0916701F09168013097B8
:1012D00021F00084F185E02D0994089508950C947F
:1012E0006E090E94E8150E94E9020C946E16CF92D6
:1012F000DF92EF92FF920F931F93CF93DF93CDB7BF
:10130000DEB72B970FB6F894DEBF0FBECDBF0E949D
:1013100010033AE6E32E31E0F32E00E010E0C02E99
:10132000802F0E940E04F701D1907F01D826B1F4DE
:101330000F5F1F4F0E30110591F78FEF89838A835E
:101340001B820E94F1158160782F9D838C834981D7
:101350005A816B818D810E941A0A41C090911502B9
:1013600091FF04C08B870E9414048B8520E030E03D
:101370004D2D50E0922FBA01022E02C0759567954F
:101380000A94E2F760FF25C02E83CF82EE24E39417
:10139000F12C02C0EE0CFF1C9A95E2F790E08E2132
:1013A0009F2121E0892B09F420E028870E94F11574
:1013B0008160782F9A8789874E815F8168858A85C9
:1013C0000E941A0AF801E659FE4F80818E2580831B
:1013D00006C02F5F3F4F2630310561F6A9CF0E942E
:1013E0000018109169010E9420091817A1F00E94AD
:1013F0002009809369012B960FB6F894DEBF0FBECB
:10140000CDBFDF91CF911F910F91FF90EF90DF90B3
:10141000CF900C9470052B960FB6F894DEBF0FBEDC
:10142000CDBFDF91CF911F910F91FF90EF90DF9093
:10143000CF900895CF93DF93CDB7DEB72B970FB63C
:10144000F894DEBF0FBECDBF4F83588769877A8778
:101450008B87DE01119686E0FD0111928A95E9F7EE
:1014600085E0FE01379601900D928A95E1F749815A
:101470005A816B817C818D819E810E94A2102B9666
:101480000FB6F894DEBF0FBECDBFDF91CF910895A8
:10149000CF93C82F882309F4CCC0823859F40E9416
:1014A000200981FDC6C089E30E94F8130E94C2147E
:1014B00089E30CC0833879F40E94200980FDB9C00B
:1014C00083E50E94F8130E94C21483E50E94381439
:1014D000CF910C94C214843859F40E94200982FDE3
:1014E000A8C087E40E94F8130E94C21487E4EECFDC
:1014F0008CEF8C0F813A48F48C2F0E94371A81119F
:1015000098C08C2F0E94F813E3CF80E28C0F8830B4
:1015100048F4C77081E001C0880FCA95EAF70E94BD
:101520007914D6CF8BE58C0F833078F4C53A29F047
:10153000C63A31F482E890E005C081E890E002C04C
:1015400083E890E0CF910C94420988E58C0F8531B7
:1015500008F06FC0C83A61F1C93A69F1CA3A71F14D
:10156000CB3A79F1CC3A81F1CB3B89F1CC3B91F18B
:10157000CD3A99F1C03BA1F1CE3AA9F1CF3AB1F100
:10158000C13BB9F1C23BC1F1C33BC9F1C43BD1F18D
:10159000C53BD9F1C63BE1F1C73BE9F1C83BF1F1ED
:1015A000C93BF9F1CA3B09F03FC08AE292E03EC074
:1015B00082EE90E03BC089EE90E038C08AEE90E089
:1015C00035C085EB90E032C086EB90E02FC083EB16
:1015D00090E02CC084EB90E029C087EB90E026C01F
:1015E0008CEC90E023C08DEC90E020C083E891E08B
:1015F0001DC08AE891E01AC082E991E017C084E931
:1016000091E014C081E292E011C083E292E00EC04A
:1016100084E292E00BC085E292E008C086E292E0AC
:1016200005C087E292E002C080E090E0CF910C9488
:101630005809CF910895882309F44BC0823859F492
:101640000E94200981FF45C089E30E94F8130E948F
:10165000C21489E30CC0833871F40E94200980FF12
:1016600038C083E50E94F8130E94C21483E50E94EB
:1016700038140C94C214843859F40E94200982FF53
:1016800028C087E40E94F8130E94C21487E4EFCFB9
:101690009CEF980F913A58F390E2980F983050F4DD
:1016A000877091E001C0990F8A95EAF7892F0E940F
:1016B0007F14DFCF9BE5980F933020F480E090E01B
:1016C0000C944209885A853120F480E090E00C9413
:1016D00058090895882321F00E9479140C94C214AB
:1016E0000895882321F00E947F140C94C214089559
:1016F0008F929F92AF92BF92CF92DF92EF92FF9222
:101700000F931F93CF93DF931F92CDB7DEB74C019A
:10171000A62E472FFC01E580E2948FE0E822F280BC
:10172000FF2021F079830E949614498149830E9409
:10173000F1134981882381F0FF2071F080E28A0D46
:10174000883050F082E00E94DA130E94F113BB242B
:10175000B394B826498101C0B12CE42FE295EF7013
:10176000F0E0E859FF4F0C94EB22842F807F142F78
:101770001F70882311F01295107FFF2099F011231C
:1017800009F491C180E28A0D883010F0A11004C0E4
:10179000812F0E94791403C0812F0E9489140E9416
:1017A000C21481C18A2D0E941B0B112309F492C11E
:1017B00080E28A0D883010F0A11004C0812F0E94B1
:1017C0007F1403C0812F0E948F140E94C21482C113
:1017D000242F207F842F8F70203211F08295807FFC
:1017E000AA2021F0F1E0AF16B9F020C0FF2049F0A7
:1017F000EE2009F40FC191E0E9120CC10E94A91476
:1018000069C1EE2021F0E1E0EE1609F463C189839D
:101810000E94AC14898104C1FF2029F0F1E0FE157B
:1018200008F458C1F7C0E11055C1FAC0FF2021F0FB
:10183000EE2009F4EFC037C1EE2009F4F1C039C140
:10184000242F26952695237030E02115310521F0AF
:101850002130310561F03EC1FF2021F08A2D942F07
:10186000937002C080E090E00E94420933C1FF20E3
:1018700021F08A2D942F937002C080E090E00E94A6
:10188000580928C18A2DFF2019F00E94081702C0AC
:101890000E9470170E94F5171DC1842F837009F0F4
:1018A0004EC0F11017C12A2D229526952770220FC0
:1018B000220F8A2D8F70C82ED12CE12CF12C022EF4
:1018C00004C0CC0CDD1CEE1CFF1C0A94D2F7A4FE55
:1018D00010C06FE070E080E090E004C0660F771FFA
:1018E000881F991F2A95D2F76095709580959095DD
:1018F00003C060E070E0CB01242F2695269523706D
:1019000030E02230310569F02330310589F06C294F
:101910007D298E299F292130310571F00E94F41113
:10192000D9C06C297D298E299F290E940E12D2C010
:101930000E94F411C701B6010E94DA11CBC0FF204A
:1019400019F0842F817001C08695882309F4C2C0E4
:101950002A2D229526952770220F220F8A2D8F700F
:10196000C82ED12CE12CF12C022E04C0CC0CDD1C95
:10197000EE1CFF1C0A94D2F7A4FE10C06FE070E0CA
:1019800080E090E004C0660F771F881F991F2A959A
:10199000D2F7609570958095909503C060E070E0F7
:1019A000CB01242F26952695237030E02230310577
:1019B00069F02330310589F06C297D298E299F2912
:1019C0002130310571F00E94C81284C06C297D2934
:1019D0008E299F290E94E2127DC00E94C812C70171
:1019E000B6010E94AE1276C00A2D10E0F801E05E4A
:1019F000F109E531F10508F052C0E858FF4F0C94A9
:101A0000EB221A2D1F70842F8F71FF2031F00E945E
:101A10004712812F0E946A0B5DC00E946812812FBD
:101A20000E94710B57C0FF2039F0E11053C0842F82
:101A30008F710E948D124EC081E08E1508F44AC04D
:101A4000F6CFFF2039F0842F8F710E94471242C0D9
:101A5000FF20C9F3842F8F710E9468123BC0FF20C2
:101A600029F0842F8F710E94321234C00E942812F4
:101A700031C0FF2051F0142F1F71812F0E94471297
:101A800063E0812F0E94D11325C081E00E94DA1308
:101A900091E09E15F8F482E00E94DA131BC0FF204B
:101AA00031F0EE2081F28A2D0E94480A13C0EE2008
:101AB00089F28A2D0E941B0B0DC04F706A2DC40144
:101AC0000E9415040E944F1105C04F706A2DC40179
:101AD0000E94FF06BB20F1F00E94CD1380FD1AC0CA
:101AE000F40112820E94C7130E944712C4010E948F
:101AF000980D0E94C7130F90DF91CF911F910F9106
:101B0000FF90EF90DF90CF90BF90AF909F908F901D
:101B10000C9468120F90DF91CF911F910F91FF905D
:101B2000EF90DF90CF90BF90AF909F908F900895EF
:101B30000F931F93CF93DF93EC01288139818B8121
:101B40009C81892B31F03F3F11F080E003C02F3F93
:101B5000E1F781E0811113C0CE010E945604882371
:101B600071F0688179818A810E94A4138C010E949E
:101B7000FC120E94CF11B801CE010E94780BDF91B8
:101B8000CF911F910F9108950E9496140E94A61460
:101B90000E946B140E94C2140E94A1180E94F517A3
:101BA00080E090E00E94420980E090E00C945809A7
:101BB0000E9486140C94C40D0E949913E92FE2959B
:101BC000EF70F0E03297EE30F105B8F4E357FF4FD5
:101BD0000C94EB22803F59F018F4803E70F407C05B
:101BE000843F59F404C0803E10F0813F31F481E01D
:101BF000089593FB882780F9089580E00895CF9396
:101C0000DF9300D000D01F92CDB7DEB70F900F90BA
:101C10000F900F900F90DF91CF910895CF93DF93A6
:101C200000D000D000D0CDB7DEB726960FB6F8941E
:101C3000DEBF0FBECDBFDF91CF9108951F93CF932D
:101C4000DF93C091790116E080917A01C81799F06D
:101C5000D0E01C9FF0011D9FF00D1124E558FE4FB0
:101C60004081518162817381848195810E940E0E31
:101C70002196C770E9CFDF91CF911F9108954091D0
:101C8000AB015091AC016091AD017091AE018091BA
:101C9000AF019091B0010C940E0ECF938091B001E2
:101CA00082958F7009F05FC08091AD01882309F49F
:101CB0005AC020917901A0917A016091AB01709195
:101CC000AC018091AE019091AF0131E06F3F09F01E
:101CD00030E0B32FC6E02A1709F445C0009721F081
:101CE0007F3F21F44B2F03C041E001C040E030E0D2
:101CF00040FD35C0C29FF001C39FF00D1124E5588F
:101D0000FE4F418174132BC04081641328C042816F
:101D1000411125C0438154814817590710F441509F
:101D20005109481B590B483C5105C8F48091B0013A
:101D30008F7080618093B00186E0829FF001839F65
:101D4000F00D1124E058FE4F80818F7080618083F8
:101D50008BEA91E00E94980DCF910C941E0E2F5F9C
:101D60003F4F2770B8CFCF910895CF92DF92EF9277
:101D7000FF920F931F93CF93DF93CDB7DEB7629798
:101D80000FB6F894DEBF0FBECDBF8C0185E0F80121
:101D9000DE011D9601900D928A95E1F7D8014C91D4
:101DA00011965C91119712966C9112971396ED9083
:101DB000FC9014977091AB01E091AC012091AE01C1
:101DC0003091AF012115310531F0EF3F31F481E061
:101DD0007F3F19F403C081E001C080E0B82FB170EB
:101DE000CB2E80FD6CC1D090AD01DD2009F4F5C093
:101DF000F091B001E216F30638F0C701821B930B95
:101E0000883C910548F09BC0209530952E0D3F1DD4
:101E1000283C310508F093C08F2F807F09F052C015
:101E2000E51314C0741312C0D62E61110FC0FF70D9
:101E3000F061F093B0010E943F0E8BEA91E00E94A6
:101E4000980D8091B001F80185836CC1EF2831F0C5
:101E50005F3F31F481E04F3F19F403C081E001C0DE
:101E600080E080FD03C081E0862701C080E0F82F7C
:101E7000F170FF2E80FF1CC08091790120917A01C2
:101E800036E0821709F428C190E0389FF001399FAD
:101E9000F00D1124E558FE4F7181571306C0708173
:101EA000471303C07281671303C001968770E9CF9F
:101EB000D62E662309F436C18091B00181608093EB
:101EC000B00153C0E51308C0741306C0611104C00B
:101ED000D8011596FC93AEC04D875E878D859E8593
:101EE0006A8B0E94DC0D6A89882329F1D62E66232D
:101EF00011F12091B001822F82958F7090E00297AE
:101F00000CF460C08091AB019091AC0198878F83F5
:101F10001986FB86EA862C87CE01079651C0E51705
:101F200031F14D875E878D859E856A8B0E94DC0D21
:101F30006A8981112EC0C8010E94980DA4C08F2FFC
:101F4000807F69F77E2DF98AE88A89890E94FF0DD2
:101F50008BEA91E00E94980DEBEAF1E086E0DF0168
:101F60001D928A95E9F70E943F0ED12CDBC07413B5
:101F7000D8CF6111D6CFD8011596FC93C8010E9425
:101F8000980DEBEAF1E086E0DF011D928A95E9F712
:101F9000C9C0D62E662379F22091B001822F829596
:101FA0008F7090E0029774F08091AB019091AC013A
:101FB0009A8389831B82FD82EC822E83CE01019657
:101FC0000E94980D86E0F801ABEAB1E001900D9215
:101FD0008A95E1F70E944D0E6FC0E216F30628F0D5
:101FE000C701821B930B9C0104C0209530952E0DD8
:101FF0003F1D283C310508F052C0D62E662309F457
:102000009ACFE5132CC074132AC08091B00180FDD3
:102010001DC0982F92959F70C9F0D80115968C938A
:1020200015979F3039F09F5F9295907F8F70892B25
:1020300015968C93C8010E94980D86E0F801ABEAD2
:10204000B1E001900D928A95E1F736C086E0F80183
:10205000ABEAB1E001900D928A95E1F763C04D873C
:102060005E878D859E850E94DC0D882379F086E051
:10207000F801ABEAB1E001900D928A95E1F70E9478
:102080004D0E0E943F0EDD24D3944CC08091B001D0
:1020900081608093B001C8010E94980D43C07E2DDD
:1020A000F98AE88A89890E94FF0DEBEAF1E086E06F
:1020B000DF011D928A95E9F70E943F0E33C0662327
:1020C00009F439CF4D875E878D859E850E94DC0D92
:1020D000882309F430CFCBCF4D875E878D859E85D1
:1020E0000E949913292F22952F7030E0223031055C
:1020F0002CF49F7041F0811106C00CC024303105D2
:102100002CF49F7049F4805E883020F0C8010E9452
:10211000980DCF2CDC2C06C0D80115969C91907F91
:1021200091F7F8CF8D2D62960FB6F894DEBF0FBEF3
:10213000CDBFDF91CF911F910F91FF90EF90DF9076
:10214000CF9008951F93CF93DF93CDB7DEB72C9731
:102150000FB6F894DEBF0FBECDBF4F835887698797
:102160007A878B879C87CE0107960E94B50E8823BD
:10217000C1F02F8138858A859B85892B31F03F3FBF
:1021800011F080E003C02F3FE1F781E0811147C0EB
:102190004F81588569857A858B859C850E940E0EB6
:1021A0003EC086E0FE013796DE01119601900D9249
:1021B0008A95E1F7FF81E8854A855B8541155105E0
:1021C00031F0EF3F31F481E0FF3F19F403C081E0CB
:1021D00001C080E080FD23C020917A0130E0C90178
:1021E0000196877099276091790170E086179707AB
:1021F000F1F1F983EA835D834C8396E0929FD001ED
:10220000939FB00D1124A558BE4FFE013196019049
:102210000D929A95E1F780937A010E941E0E16E0C6
:102220008091790190917A01891779F1189FC00105
:10223000112485589E4F0E94B50E882331F1E091FC
:1022400079011E9FF0011124E558FE4F4081518114
:1022500062817381848195810E940E0E8091790143
:1022600090E001968770992780937901D9CF0E94D9
:10227000D80D10927A0110927901EBEAF1E086E034
:10228000DF011D928A95E9F7CACF2C960FB6F89414
:10229000DEBF0FBECDBFDF91CF911F910895EF92AA
:1022A000FF920F931F93CF93DF93FC01009709F4E4
:1022B0006FC0F12CEE24E394EF01219684918437D2
:1022C00040F4843008F055C0813081F0823021F133
:1022D0005FC0853709F447C0C0F19CE7980F90377D
:1022E00008F056C08F770E941B0B45C08F010E5F10
:1022F0001F4FFE01849190E2980F983050F4877040
:10230000FE2D01C0FF0F8A95EAF78F2F0E949914C6
:1023100015C00E94480A14C08F010E5F1F4FFE01B6
:10232000849190E2980F983068F48770FE2D01C078
:10233000FF0F8A95EAF78F2F0E949F140E94C21404
:10234000E80119C00E941B0BFBCFCF010296FE01D2
:10235000C491CC2361F0EFE9FFE03197F1F700C0C1
:102360000000C150F6CFCF010296FE01F490EC01BF
:1023700002C00E94480A8F2D882341F0EFE9FFE058
:102380003197F1F700C000008150F6CFFE0194CFE5
:10239000DF91CF911F910F91FF90EF9008950895D5
:1023A0006093EC017093ED018093EE019093EF0147
:1023B0000C94C40D0F931F930091EC011091ED014B
:1023C0002091EE013091EF01062B172B282B392B92
:1023D0000093EC011093ED012093EE013093EF0197
:1023E0001F910F910C94C40D0F931F930091EC015A
:1023F0001091ED012091EE013091EF01062317239A
:10240000282339230093EC011093ED012093EE0172
:102410003093EF011F910F910C94C40D0F931F93F4
:102420000091EC011091ED012091EE013091EF014E
:1024300006271727282739270093EC011093ED0171
:102440002093EE013093EF011F910F910C94C40D76
:102450001092E8011092E9011092EA011092EB014A
:102460000C94C40D41E050E060E070E004C0440F03
:10247000551F661F771F8A95D2F74093E801509346
:10248000E9016093EA017093EB010C94C40D41E003
:1024900050E060E070E004C0440F551F661F771FD6
:1024A0008A95D2F78091E8019091E901A091EA0123
:1024B000B091EB01842B952BA62BB72B8093E801D1
:1024C0009093E901A093EA01B093EB010C94C40D41
:1024D00041E050E060E070E004C0440F551F661F0B
:1024E000771F8A95D2F740955095609570958091A9
:1024F000E8019091E901A091EA01B091EB018423F8
:102500009523A623B7238093E8019093E901A09334
:10251000EA01B093EB010C94C40D41E050E060E09F
:1025200070E004C0440F551F661F771F8A95D2F7CD
:102530008091E8019091E901A091EA01B091EB014D
:1025400084279527A627B7278093E8019093E90170
:10255000A093EA01B093EB010C94C40D0F931F9369
:102560000091E8011091E9012091EA013091EB011D
:10257000062B172B282B392B0093E8011093E90128
:102580002093EA013093EB011F910F910C94C40D3D
:102590000F931F930091E8011091E9012091EA0146
:1025A0003091EB0106231723282339230093E801F8
:1025B0001093E9012093EA013093EB011F910F91F1
:1025C0000C94C40D0F931F930091E8011091E90141
:1025D0002091EA013091EB01062717272827392798
:1025E0000093E8011093E9012093EA013093EB0195
:1025F0001F910F910C94C40D0895292F220F290FBC
:10260000220F280F422F4695469546952770B1E038
:1026100001C0BB0F2A95EAF785E0489FA00111246D
:102620004F545E4F80E090E070E0FA01E80FF91F30
:10263000A0819B01082E02C0369527950A94E2F7E7
:102640002170332721952A272B232A2720830196BF
:102650008530910551F70895292F220F290F220F58
:10266000280F622F669566956695922F977085E084
:10267000689FB00111246F547E4F40E050E080E02D
:10268000FB01E40FF51F208130E0092E02C03695D2
:1026900027950A94E2F721703327042E01C0220FF8
:1026A0000A94EAF7822B4F5F5F4F4530510541F79F
:1026B0000895CF92DF92EF92FF920F931F93CF93E3
:1026C000DF93EC01C090EC01D090ED01E090EE01C1
:1026D000F090EF018091E8019091E901A091EA0169
:1026E000B091EB01C82AD92AEA2AFB2A0FE110E0AF
:1026F000B701A601002E04C07695679557954795BA
:102700000A94D2F740FD05C00150110988F780E016
:1027100007C0BE01802F0E9472050197A9F3802F88
:10272000DF91CF911F910F91FF90EF90DF90CF90AD
:102730000895CF93DF93EC010E945913BE010E94CC
:102740007205DF91CF9108951F93CF93DF93EB0133
:1027500090917801992321F0CB010E94991313C025
:10276000882349F0CB010E945913182F682FCE01FE
:102770000E94FD1204C0CB010E942C13182FBE0131
:10278000812F0E947205DF91CF911F910895809152
:10279000F00185958595859508958091F001877064
:1027A000089598E0899F90011124622B6093F001B5
:1027B0000C9447124091F001809584238093F0019E
:1027C000982F977069F450E0282F332727FD309514
:1027D0004217530729F08595859585950C946812C5
:1027E00008959091F001977081E009F480E00895D8
:1027F000909114019923D9F09091480297FF17C046
:10280000982F9695969596959F3188F5E0910201BF
:10281000F0910301E90FF11D877021E030E001C064
:10282000220F8A95EAF78181822B81830895409156
:1028300002015091030120E030E09FEFFA01E20F26
:10284000F31F6281681799F09F3F19F4611101C06D
:10285000922F2F5F3F4F2E31310581F79F3F39F087
:10286000FA01E90FF11D97FDFA9582830895089505
:10287000909114019923E1F09091480297FF18C0BC
:10288000982F9695969596959F3120F5E0910201A7
:10289000F0910301E90FF11D877021E030E001C0E4
:1028A000220F8A95EAF720958181282321830895B4
:1028B000409102015091030120E030E0FA01E20F63
:1028C000F31F9281981301C012822F5F3F4F2E3168
:1028D0003105A1F7089581E090E0E0910201F091C7
:1028E0000301E80FF91F1082019680329105A9F7C4
:1028F000089590911402982B909314020895809556
:102900009091140298239093140208951092140247
:10291000089590911302982B909313020895809537
:10292000909113029823909313020895109213022A
:10293000089590911202982B909312020895809519
:10294000909112029823909312020895109212020D
:1029500008958093F10108951092F1010895409136
:1029600002015091030120E030E080E0FA01E20F23
:10297000F31F918191118F5F2F5F3F4F2F313105F1
:10298000A9F70895E0910201F091030180911402EA
:102990008083E0910201F091030180819091130204
:1029A000892B8083E0910201F09103018081909155
:1029B0001202892B80839091F101992361F0E091BB
:1029C0000201F09103018081892B80830E94AF1462
:1029D00081111092F10180910201909103010C94F8
:1029E0002C09CF92DF92EF92FF920F931F936C010D
:1029F000EE24FF24C114D104E104F10421F46B019D
:102A00007C0180E001C080E133272F2D1E2D0D2D8C
:102A1000011511052105310519F0885F680179015B
:102A200097018601A4E03695279517950795AA95F5
:102A3000D1F7011511052105310519F08C5F6801E9
:102A4000790197018601F2E036952795179507954C
:102A5000FA95D1F7011511052105310519F08E5FA1
:102A600068017901B701A601769567955795479555
:102A7000452B462B472B09F08F5F1F910F91FF903D
:102A8000EF90DF90CF9008956DEE7EEF80E090E0C4
:102A90000E94252360E082E090E00E94132360E022
:102AA00083E090E00E94132360E084E090E00E94C5
:102AB000132360E085E090E00C94132380E090E025
:102AC0000E940D2321E08D3E9E4F09F020E0822FD1
:102AD000089582E090E00C94052383E090E00C944C
:102AE000052384E090E00C940523682F84E090E0B7
:102AF0000C94132380914E02843021F1109216021F
:102B000020E488E190E00FB6F894A89580936000E7
:102B10000FBE2093600080E00E94700583B7817F24
:102B2000846083BF83B7816083BF7894889583B7BF
:102B30008E7F83BF88E10FB6F89480936000109277
:102B400060000FBE08950895CF930E94FD020E9479
:102B500010030E94A315C0E08C2F0E940E04811167
:102B600005C0CF5FCE30C1F780E001C081E0CF91DA
:102B700008950E94D80D0E9420090C9470051F92A0
:102B80000F920FB60F9211248F939F93AF93BF9321
:102B900080911602811113C0809117029091180242
:102BA000A0911902B0911A024196A11DB11D809306
:102BB000170290931802A0931902B0931A02BF91C2
:102BC000AF919F918F910F900FBE0F901F9018950E
:102BD00082E084BD93E095BD9AEF97BD80936E002F
:102BE00008952FB7F8948091170290911802A09140
:102BF0001902B0911A022FBF0895CF92DF92EF927F
:102C0000FF920F931F932FB7F894409117025091A2
:102C100018026091190270911A022FBF6A017B019C
:102C2000EE24FF248C0120E030E0C016D106E2063D
:102C3000F30610F441505109481B590BCA011F916A
:102C40000F91FF90EF90DF90CF9008951F920F9219
:102C50000FB60F9211248F939F93AF93BF938091E0
:102C6000170290911802A0911902B0911A020196D0
:102C7000A11DB11D8093170290931802A093190211
:102C8000B0931A02BF91AF919F918F910F900FBE99
:102C90000F901F9018950E94C01EF8942FEF87EA9E
:102CA00091E6215080409040E1F700C0000087E0AD
:102CB00090EBDC018093570290935802A093590245
:102CC000B0935A022CE088E190E00FB6F894A895F2
:102CD000809360000FBE20936000FFCF0E945E15BE
:102CE000811102C00E9444150E946915809315024B
:102CF0000E94711590E090934902809348020E94CF
:102D00006D15682F70E080E090E00C94D0118091F8
:102D10001D0280FF0BC06091070185E0689FB00134
:102D2000112475956795759567952AC081FF09C02F
:102D30006091070185E0689FB00111247595679542
:102D40001FC082FF07C06091070185E0689FB00146
:102D5000112416C040911E024423C9F0609106015F
:102D6000461788F72091070185E0289F90011124DC
:102D7000429FC001439F900D112470E00E94D72212
:102D80006038710540F46115710539F002C065E0E5
:102D900070E0862F08958FE7089581E0089580916F
:102DA0001D0280FF08C06091050170E07595679570
:102DB0007595679521C081FF06C06091050170E09F
:102DC0007595679519C082FF04C06091050170E098
:102DD00010C080911E028823C1F060910401861703
:102DE000A0F790910501989FC001112470E00E9406
:102DF000D7226038710528F46115710521F0862FFE
:102E000008958FE7089581E0089561E070E0F4CFC0
:102E1000803F21F40E948716819504C0813F29F4E8
:102E20000E948716809321020895823F21F40E9418
:102E30008716819504C0833F29F40E9487168093EA
:102E400020020895893F19F40E94CF1605C08A3FD9
:102E500031F40E94CF1681958093220208958B3F12
:102E600021F40E94CF16819504C08C3F29F40E9462
:102E7000CF16809323020895843F21F480911F028E
:102E8000816017C0853F21F480911F02826011C0CC
:102E9000863F21F480911F0284600BC0873F21F49C
:102EA00080911F02886005C0883F31F480911F0225
:102EB000806180931F0208958D3F21F480911D024F
:102EC00081600BC08E3F21F480911D02826005C09D
:102ED0008F3F29F480911D02846080931D02089524
:102EE000803F39F48091210287FF6CC0109221024B
:102EF00069C0813F29F4809121021816BCF362C099
:102F000090912002823F29F497FF5CC0109220022A
:102F100059C0833F19F41916CCF354C0893F41F4CA
:102F20008091220218160CF04DC0109222024AC065
:102F30008A3F29F48091220287FF44C0F6CF8B3F5D
:102F400039F48091230287FF3DC0109223023AC0DA
:102F50008C3F29F4809123021816BCF333C0843FC0
:102F600021F480911F028E7F17C0853F21F480914C
:102F70001F028D7F11C0863F21F480911F028B7F3D
:102F80000BC0873F21F480911F02877F05C0883FD7
:102F900031F480911F028F7E80931F0213C08D3FFA
:102FA00021F480911D028E7F0BC08E3F21F4809111
:102FB0001D028D7F05C08F3F29F480911D028B7FFC
:102FC00080931D028091200281110EC08091210208
:102FD00081110AC080912202811106C080912302D2
:102FE000811102C010921E0208958FE192E00E94AA
:102FF00037090E94F11590931C0280931B020895DB
:103000001F93CF93DF9380911B0290911C020E942B
:10301000FD1540911E02442321F02091080130E06B
:1030200006C0209109015AE0259F900111248217C2
:10303000930708F482C08091200210912102D09160
:103040002202C0912302811107C0111105C0D111C4
:1030500003C0CC2309F471C04F3F19F04F5F409378
:103060001E02181624F40E94871680932002809175
:10307000200287FF05C00E94871681958093200259
:10308000111624F40E948716809321028091210258
:1030900087FF05C00E948716819580932102609169
:1030A0002002662339F110912102112319F17727AB
:1030B00067FD7095872F972F0E94E82123E333E364
:1030C00043E35FE30E944C220E94B52160932002FB
:1030D000612F772767FD7095872F972F0E94E82132
:1030E00023E333E343E35FE30E944C220E94B521D4
:1030F000609321021D1624F40E94CF1680932202B1
:103100008091220287FF05C00E94CF16819580938F
:1031100022021C1624F40E94CF1680932302809171
:10312000230287FF05C00E94CF168195809323025A
:10313000DF91CF911F910C94F517DF91CF911F91E3
:103140000895EFE1F2E085E0DF011D928A95E9F74D
:1031500010921E0210921D020895833081F128F40E
:10316000813059F08230D1F00895853009F449C09A
:10317000B8F1863009F456C0089520910901862FD0
:1031800090E0820F911D8F3F910520F4620F6093B4
:10319000090108958FEF8093090108952091080196
:1031A000862F90E0820F911D8F3F910520F4620FD2
:1031B0006093080108958FEF80930801089520918E
:1031C0000701862F90E0820F911D8F3F910520F41B
:1031D000620F6093070108958FEF809307010895B0
:1031E00020910601862F90E0820F911D8F3F91055F
:1031F00020F4620F6093060108958FEF809306011B
:10320000089520910501862F90E0820F911D8F3F38
:10321000910520F4620F6093050108958FEF80936C
:103220000501089520910401862F90E0820F911DE1
:103230008F3F910520F4620F6093040108958FEF92
:10324000809304010895833011F128F4813049F00E
:10325000823091F00895853081F120F18630C1F1FE
:10326000089580910901681720F4861B8093090155
:10327000089510920901089580910801681720F4BB
:10328000861B80930801089510920801089580918B
:103290000701681720F4861B809307010895109298
:1032A0000701089580910601681720F4861B80931A
:1032B000060108951092060108958091050168178E
:1032C00020F4861B8093050108951092050108954E
:1032D00080910401681720F4861B809304010895EF
:1032E000109204010895873220F58E3108F098C0BD
:1032F000803109F474C070F4873009F44CC018F4BC
:10330000863089F12EC08B3009F4A0C08E3009F4CC
:103310005CC027C0863109F499C020F4813109F4DA
:103320006FC01FC0893109F491C08B3109F443C0CB
:1033300018C0883309F48AC050F4893209F47EC079
:10334000853309F47BC0873209F478C00AC083341E
:1033500009F474C020F48A3308F060C002C08834D5
:1033600061F080E0089580911502817F8E7F8093C7
:10337000150281E08093250208950E94D80D2FEF59
:1033800083ED90E3215080409040E1F700C00000C1
:103390000E944B165BC090911502892F8095817019
:1033A00080FB90F919F09660986027C0997F977F0D
:1033B000909315024BC09091150291FB882780F9DC
:1033C00021E0822780FB91F913C09091150292FBB6
:1033D000882780F921E0822780FB92F909C090912B
:1033E000150293FB882780F921E0822780FB93F95F
:1033F00090931502882351F19160909315020895DE
:103400000E94D80D9091480297FB882780F921E00F
:10341000822780FB97F99093480218C027EC01C0DF
:1034200023EE280F61E070E080E090E004C0660FBA
:10343000771F881F991F2A95D2F704C061E070E0BA
:1034400080E090E00E94D0110E94D80D81E00895A4
:1034500080E0089580E008958E518A3030F4E82F9E
:10346000F0E0EB5EFE4F8081089580E00895CF93F9
:10347000C82F80912502813079F018F08230D1F187
:1034800083C0E0910201F09103018081813169F0F4
:10349000823209F07BC009C0E0910201F091030182
:1034A0008081813111F0823249F48C2F0E94281AD8
:1034B00081111DC08C2F0E9473191AC08C2F0E947D
:1034C0002A1A811114C0C43179F048F4CB3079F054
:1034D000C03109F05FC082E08093250208C0C93284
:1034E00019F0C83321F056C01092250253C081E074
:1034F000817052C0C93281F110F5C43169F1A8F46C
:10350000C73009F045C08AE08093090194E19093A7
:10351000080193E0909307018093060188E080936F
:10352000050188E28093040133C082EE8C0F86305F
:1035300078F58C2F0E942C1A8093240229C0CE3457
:10354000E9F020F4CB3421F56AE013C0C13579F0FD
:10355000C235F1F461E00DC080912402882319F096
:103560001092240215C081E08093250215C061E00D
:1035700006C0809124020E94AD180AC06AE08091C2
:1035800024020E94231904C01092250280E004C086
:1035900081E002C080E0ACCFCF91089580914602D7
:1035A0000895CF93DF9300D01F92CDB7DEB720915F
:1035B0004E02243019F523E029839B838A832093CC
:1035C000E9008FEF9091E800815095FD06C095EDE0
:1035D0009A95F1F700008111F5CF8091E80085FF01
:1035E0000DC040E050E063E070E0CE0101960E9423
:1035F0002E1D8091E8008E778093E8000F900F9049
:103600000F90DF91CF910895CF93DF9300D01F9259
:10361000CDB7DEB720914E02243021F522E0298378
:103620009B838A8383E08093E9008FEF9091E80089
:10363000815095FD06C095ED9A95F1F70000811136
:10364000F5CF8091E80085FF0DC040E050E063E0D9
:1036500070E0CE0101960E942E1D8091E8008E77C9
:103660008093E8000F900F900F90DF91CF91089515
:1036700020914E022430F1F422E02093E9002FEF54
:103680003091E800215035FD06C035ED3A95F1F74F
:1036900000002111F5CF2091E80025FF0BC040E08C
:1036A00050E065E070E00E942E1D8091E8008E776A
:1036B0008093E8000895CF93DF93EC0180914E0250
:1036C000843009F046C0909114019923D9F090916B
:1036D000480297FF17C08093E9008FEF9091E800B0
:1036E000815095FD06C095E19A95F1F70000811192
:1036F000F5CF8091E80085FF2CC040E050E060E20B
:1037000070E017C081E08093E9008FEF9091E800AE
:10371000815095FD06C095ED9A95F1F70000811155
:10372000F5CF8091E80085FF14C040E050E068E0EC
:1037300070E0CE010E942E1D8091E8008E7780936C
:10374000E80080E2FE01A6E2B2E001900D928A95C7
:10375000E1F7DF91CF91089580914D02811109C069
:103760000E94C01E0E941D1F8091E2008460809311
:10377000E200089510924D020895089508950C9462
:10378000B91542E061EC81E00E943A1E42E061EC32
:1037900082E00E943A1E42E061EC83E00E943A1E01
:1037A00042E261EC84E00C943A1E80915002833036
:1037B00009F455C030F4813071F0823009F48EC0C4
:1037C00008958A3009F47AC08B3009F460C08930DA
:1037D00009F09CC020C080914F02813A09F096C048
:1037E0008091E800877F8093E80080915302909158
:1037F0005402892B21F060E080E090E003C060E299
:1038000086E292E070E00E94771D8091E8008B775D
:103810008093E800089580914F02813209F076C0CC
:103820008091530290915402009719F0039709F088
:103830006DC08091E800877F8093E8008091E80068
:1038400082FD05C080914E028111F8CF5FC080914A
:10385000F100809346028091E8008B7753C08091FD
:103860004F02813A09F052C0809153029091540264
:10387000892B09F04BC08091E800877F8093E80096
:103880008091E80080FFFCCF8091140136C08091C8
:103890004F028132D9F58091530290915402892BC5
:1038A000A9F58091E800877F8093E8000E946F1E51
:1038B00080915102809314010C94D80D80914F0295
:1038C000813221F58091E800877F8093E8000E9493
:1038D0006F1E8091520280934702089580914F029B
:1038E000813AA1F48091E800877F8093E80080917D
:1038F000E80080FFFCCF809147028093F100809127
:10390000E8008E778093E8000C946F1E089584B7CA
:10391000877F84BF88E10FB6F8948093600010928F
:1039200060000FBE80E880936100109261000E94E9
:103930006F090E94C01E0E941D1F8091E2008460DA
:103940008093E20078940E9498210E9471098AE095
:1039500091E00E941B0980914E02853069F40E941B
:103960007A1580914C028823B1F30E94A415882314
:1039700091F30E94181DEFCF0E947709ECCF292FF9
:10398000332723303105A9F06CF42130310509F4D7
:1039900042C02230310509F043C08DE690E022EDAF
:1039A00032E042C021323105C9F02232310519F12D
:1039B00037C099278130910541F08230910541F05F
:1039C000892B71F5EEECF2E005C0E6EBF2E002C007
:1039D000EEE9F2E0849190E09F0126C0643000F5AA
:1039E000E62FF0E0EE0FFF1FE55DFE4F20813181F5
:1039F00089E090E019C0643098F4E62FF0E0DF0130
:103A0000AA0FBB1FAD5DBE4F2D913C91E15EFE4FF5
:103A1000808190E009C082E190E02FE333E004C0B0
:103A200080E090E020E030E0FA01318320830895C7
:103A300080E189BD82E189BD09B400FEFDCF80919E
:103A4000D8008F7D8093D8008091E00082608093C1
:103A5000E0008091E00081FDFCCF0895CF92DF92DD
:103A6000EF92FF920F931F93CF93DF937C018B0113
:103A7000EA010E94901E811131C0209731F08881A7
:103A80009981081B190BE80EF91EC12CD12C0115C8
:103A9000110519F18091E80085FD14C08091E800BE
:103AA0008E778093E800209741F0888199818C0D72
:103AB0009D1D9983888385E011C00E94901E8823F4
:103AC00031F30CC0F70181917F018093F100015027
:103AD0001109FFEFCF1ADF0ADACF80E0DF91CF9133
:103AE0001F910F91FF90EF90DF90CF90089520915C
:103AF0005502309156022617370748F061157105B7
:103B000039F42091E8002E772093E80001C0B90134
:103B1000FC0120E061157105B9F180914E02882306
:103B200009F440C0853009F43FC08091E80083FD6E
:103B30003DC08091E80082FF06C08091E80082FFCE
:103B400026C080E008958091E80080FFE3CF2091B7
:103B5000F3008091F20090E0922B6115710551F015
:103B60008830910538F421912093F100615071095A
:103B70000196F3CF21E0089709F020E08091E8005A
:103B80008E778093E800C6CF2111C7CFD6CF809122
:103B90004E02882339F0853039F08091E80083FFA8
:103BA000CCCF04C082E0089583E0089581E00895B9
:103BB00020915502309156022617370748F06115BB
:103BC000710539F42091E8002E772093E80001C0B8
:103BD000B901FC0120E061157105C1F180914E022F
:103BE000882309F441C0853009F440C08091E80081
:103BF00083FD3EC08091E80082FF06C08091E8000E
:103C000082FF27C080E008958091E80080FFE3CF25
:103C10002091F3008091F20090E0922B61157105E4
:103C200059F08830910540F424912093F1003196A9
:103C3000615071090196F2CF21E0089709F020E068
:103C40008091E8008E778093E800C5CF2111C6CF20
:103C5000D5CF80914E02882339F0853039F080919C
:103C6000E80083FFCBCF04C082E0089583E008958D
:103C700081E00895982F973058F59093E9009817B0
:103C800039F07091EC002091ED005091F00003C0EC
:103C9000242F762F50E021FF19C03091EB003E7F9A
:103CA0003093EB003091ED003D7F3093ED0030918B
:103CB000EB0031603093EB007093EC002093ED004B
:103CC0005093F0002091EE0027FF07C09F5FD3CFF5
:103CD0008F708093E90081E0089580E008958091DD
:103CE0004F0287FD05C08091E80080FF0EC012C022
:103CF0008091E80082FD05C080914E028111F8CFCD
:103D000008958091E8008B7708C080914E02811160
:103D1000EACF08958091E8008E778093E8000895B7
:103D20008091E4009091E50045E62091EC0020FFB1
:103D300021C02091E80020FD21C020914E022223C5
:103D400089F0253089F02091EB0025FD0FC02091EE
:103D5000E4003091E5002817390739F3415041F06C
:103D6000C901E3CF82E0089583E0089581E00895DA
:103D700084E008952091E80022FFDFCF80E00895DD
:103D80000E942E1F0E94361FE0EEF0E080818160CD
:103D90008083E8EDF0E080818F77808319BCA7ED08
:103DA000B0E08C918E7F8C9380818F7E8083109287
:103DB0004D0208950F931F93CF93DF930E942E1F00
:103DC0000E94361FC8EDD0E088818F778883888174
:103DD0008068888388818F7D888319BC10924E0209
:103DE00010924A0210924C0210924B0200EE10E028
:103DF000F80180818B7F808388818160888342E0A5
:103E000060E080E00E943A1EE1EEF0E080818E7F6B
:103E10008083E2EEF0E08081816080838081886031
:103E20008083F80180818E7F808388818061888390
:103E3000DF91CF911F910F910895E8EDF0E080811F
:103E40008F7E8083E7EDF0E080818160808384E075
:103E500082BF81E080934D020C94DA1EE8EDF0E021
:103E600080818E7F80831092E20008951092DA00A4
:103E70001092E10008951F920F920FB60F92112435
:103E80002F933F934F935F936F937F938F939F9362
:103E9000AF93BF93EF93FF938091E10082FF0BC03C
:103EA0008091E20082FF07C08091E1008B7F8093C8
:103EB000E1000E9497218091DA0080FF1FC080916D
:103EC000D80080FF1BC08091DA008E7F8093DA00DB
:103ED0008091D90080FF0DC080E189BD82E189BD5C
:103EE00009B400FEFDCF81E080934E020E94AC1B1E
:103EF00005C019BC10924E020E94BA1B8091E100CD
:103F000080FF19C08091E20080FF15C08091E2001F
:103F10008E7F8093E2008091E20080618093E200D6
:103F20008091D80080628093D80019BC85E080938E
:103F30004E020E94BE1B8091E10084FF30C0809140
:103F4000E20084FF2CC080E189BD82E189BD09B413
:103F500000FEFDCF8091D8008F7D8093D8008091A6
:103F6000E1008F7E8093E1008091E2008F7E80935C
:103F7000E2008091E20081608093E20080914A0239
:103F8000882311F084E007C08091E30087FF02C01E
:103F900083E001C081E080934E020E94BF1B8091AC
:103FA000E10083FF29C08091E20083FF25C080915A
:103FB000E100877F8093E10082E080934E021092BF
:103FC0004A028091E1008E7F8093E1008091E200BF
:103FD0008E7F8093E2008091E20080618093E20016
:103FE00042E060E080E00E943A1E8091F00088602C
:103FF0008093F0000E94BD1BFF91EF91BF91AF91A4
:104000009F918F917F916F915F914F913F912F91F0
:104010000F900FBE0F901F9018951F920F920FB622
:104020000F9211242F933F934F935F936F937F933E
:104030008F939F93AF93BF93CF93EF93FF93C091D1
:10404000E900CF708091EC001092E9008091F000BF
:10405000877F8093F00078940E9449201092E900B5
:104060008091F00088608093F000C093E900FF9198
:10407000EF91CF91BF91AF919F918F917F916F9170
:104080005F914F913F912F910F900FBE0F901F9016
:1040900018951F93CF93DF93CDB7DEB7AA970FB6CE
:1040A000F894DEBF0FBECDBFEFE4F2E08091F100E7
:1040B000819322E0E735F207C9F70E94D51B809172
:1040C000E80083FF1CC120914F0230915002832FE2
:1040D00090E08A30910508F012C1FC01E556FF4FCF
:1040E0000C94EB22203881F0223809F008C180912D
:1040F00053028F708093E9008091EB0085FB882745
:1041000080F91092E90006C080914B0290914C0218
:10411000911182609091E800977F9093E8008093DE
:10412000F1001092F100C5C0822F8D7F09F0E7C029
:10413000222319F0223061F0E2C0809151028130D7
:1041400009F0DDC0333009F080E080934C0228C0D4
:1041500080915102811124C0209153022F7009F4E3
:10416000CEC02093E9008091EB0080FF19C08091C0
:10417000EB00333011F4806211C080618093EB005A
:1041800081E090E0022E01C0880F0A94EAF7809344
:10419000EA001092EA008091EB0088608093EB00C7
:1041A0001092E9008091E800877F86C02111A7C0A6
:1041B000109151021F778091E3008078812B8093CA
:1041C000E3008091E800877F8093E8000E946F1EE3
:1041D0008091E80080FFFCCF8091E30080688093AD
:1041E000E300112311F083E001C082E080934E02CE
:1041F00086C02058223008F082C0809151029091F0
:1042000052028C3D23E0920779F583E08A838AE2AB
:1042100089834FB7F894DE01139620E03EE051E227
:10422000E32FF0E050935700E49120FF03C0E295A4
:10423000EF703F5FEF708E2F90E0EA3010F0C7967E
:1042400001C0C0968D939D932F5F243149F74FBFD6
:104250008091E800877F8093E8006AE270E0CE01F9
:1042600001960E94771D14C0AE014F5F5F4F6091B1
:1042700053020E94BF1C009709F441C02091E8003E
:10428000277F2093E800BC0189819A810E94D81D74
:104290008091E8008B778093E80031C0203879F571
:1042A0008091E800877F8093E80080914A028093A4
:1042B000F1008091E8008E778093E8000E946F1EE5
:1042C0001EC021111CC0909151029230C0F4809107
:1042D000E800877F8093E80090934A020E946F1E57
:1042E00080914A02811104C08091E30087FF02C0DF
:1042F00084E001C081E080934E020E94C11B809146
:10430000E80083FF0AC08091E800877F8093E8007F
:104310008091EB0080628093EB00AA960FB6F89430
:10432000DEBF0FBECDBFDF91CF911F9108950895DD
:10433000CF9380914E028823B1F08091E9008F7075
:104340009091EC0090FF02C090E801C090E0C92F6E
:10435000C82B1092E9008091E80083FD0E9449205B
:10436000CF70C093E900CF91089504D06894B11143
:104370008DC0089570D088F09F5790F0B92F99277D
:10438000B751A0F0D1F0660F771F881F991F1AF060
:10439000BA95C9F712C0B13081F077D0B1E0089575
:1043A00074C0672F782F8827B85F39F0B93FCCF3F6
:1043B000869577956795B395D9F73EF49095809556
:1043C000709561957F4F8F4F9F4F0895E89409C076
:1043D00097FB3EF490958095709561957F4F8F4F38
:1043E0009F4F9923A9F0F92F96E9BB279395F6954E
:1043F000879577956795B795F111F8CFFAF4BB0FCC
:1044000011F460FF1BC06F5F7F4F8F4F9F4F16C02F
:10441000882311F096E911C0772321F09EE8872FB9
:10442000762F05C0662371F096E8862F70E060E075
:104430002AF09A95660F771F881FDAF7880F9695EE
:10444000879597F9089557FD9058440F551F59F0D7
:104450005F3F71F04795880F97FB991F61F09F3F71
:1044600079F087950895121613061406551FF2CF9A
:104470004695F1DF08C0161617061806991FF1CFEA
:1044800086957105610508940895E894BB27662711
:104490007727CB0197F908950BD078C069D028F021
:1044A0006ED018F0952309F05AC05FC01124EECFEA
:1044B000CADFA0F3959FD1F3950F50E0551F629F7F
:1044C000F001729FBB27F00DB11D639FAA27F00D6D
:1044D000B11DAA1F649F6627B00DA11D661F829F94
:1044E0002227B00DA11D621F739FB00DA11D621F79
:1044F000839FA00D611D221F749F3327A00D611D96
:10450000231F849F600D211D822F762F6A2F112477
:104510009F5750408AF0E1F088234AF0EE0FFF1FCA
:10452000BB1F661F771F881F91505040A9F79E3F01
:10453000510570F014C0AACF5F3FECF3983EDCF356
:10454000869577956795B795F795E7959F5FC1F73E
:10455000FE2B880F911D9695879597F9089597F9E9
:104560009F6780E870E060E008959FEF80EC089519
:1045700000240A9416161706180609060895002442
:104580000A9412161306140605060895092E0394BC
:10459000000C11F4882352F0BB0F40F4BF2B11F430
:1045A00060FF04C06F5F7F4F8F4F9F4F089597FB51
:1045B000072E16F4009407D077FD09D00E94F1224F
:1045C00007FC05D03EF4909581959F4F0895709516
:1045D00061957F4F0895EE0FFF1F0590F491E02D38
:1045E0000994AA1BBB1B51E107C0AA1FBB1FA6173A
:1045F000B70710F0A61BB70B881F991F5A95A9F78C
:1046000080959095BC01CD010895F999FECF92BD9A
:1046100081BDF89A992780B50895A8E1B0E042E0FD
:1046200050E00C942D23262FF999FECF92BD81BD29
:10463000F89A019700B4021639F01FBA20BD0FB6E0
:10464000F894FA9AF99A0FBE08950196272F0E94BE
:1046500014230C941323DC01CB01FC01F999FECF48
:1046600006C0F2BDE1BDF89A319600B40D924150FA
:0A4670005040B8F70895F894FFCF0A
:10467A000220F20128080A03140ACE1A5B1B381B0F
:10468A00041BD11A010102030405060708090040A8
:10469A004D36390D04C0038A035103E402FD0216A4
:0446AA00032F0300D7
:00000001FF
