:100000000C94C5010C94E2010C94E2010C94E20101
:100010000C94E2010C94E2010C94E2010C94E201D4
:100020000C94E2010C94E2010C94BE170C94FA16A5
:100030000C94390F0C94E2010C94E2010C94E2014F
:100040000C94E2010C94E2010C94E2010C94E201A4
:100050000C94E2010C94070F0C94E2010C94E20161
:100060000C94E2010C94E2010C94E2010C94E20184
:100070000C94E2010C94E2010C94E2010C94E20174
:100080000C94E2010C94E2010C94E2010C94E20164
:100090000C94E2010C94E2010C94E2010C94E20154
:1000A0000C94E2010C94E2010C94E20174057405D5
:1000B000AE05AE05F905FC079C07FC071506F3061F
:1000C00004070407C508C808CB08CE08D108D4081F
:1000D000D708460C4B0C550C490C4E0C530C510CCC
:1000E00009153015D2163015D21678159B15D21673
:1000F0009616A916751B751B881B881B7E1B881BF3
:10010000881B881B751B751B831B881B881B831B07
:1001100035002B000041E100E00000001E0014004B
:1001200004001D00010001001F001A0016001B0042
:100130000100E20020000800070006000100E300C3
:1001400021001500090019002900010022001700F4
:100150000A0005000000010001002F0000002D0032
:10016000000001000100300000002E00000001002E
:1001700023001C000B0011000000010024001800E7
:100180000D0010000100010025000C000E003600DB
:1001900001002C00260012000F00370001002A0089
:1001A000270013003300380001004C002A00310002
:1001B00028003400010000000100010001000100DE
:1001C000010000003A0001000100010001000100EF
:1001D0003B000100E1000100010001003C000100C2
:1001E000E0000100010001003D00010001000100EC
:1001F000010001003E0001000100010000000100BB
:1002000001000100000001000000010001000100E8
:1002100000000100000001003F00A8005000AC00F9
:10022000000001004000AA005100AB0001000100E5
:100230004100A90052000100370001004200AE0059
:100240004F00010001000100430001000100010016
:100250000100010044004500010001000100000010
:1002600005010980A10185031A81002A8300160176
:1002700000260300950175108100C0050C0901A13D
:100280000185041A01002A9C02160100269C029591
:100290000175108100C005010906A101850505074A
:1002A00019E029E715002501950875018102050768
:1002B000190029EF1500250195F075018102050847
:1002C00019012905950575019102950175039101A3
:1002D000C005010906A101050719E029E715002558
:1002E00001950875018102950175088101050719BD
:1002F0000029FF150026FF009506750881000508F6
:100300001901290595057501910295017503910162
:10031000C009023B00020100A0FA09040000010329
:10032000010100092111010001224000070581039C
:1003300008000A090401000103000000092111015D
:1003400000012271000705820320000A120110013A
:1003500000000008EDFE0713010001020301040381
:100360003000000016034500720067006F00640053
:100370006F007800200045005A00000008035A0072
:100380005300410000000403090411241FBECFEFF5
:10039000DAE0DEBFCDBF11E0A0E0B1E0EEE0FEE3C9
:1003A00002C005900D92AC3EB107D9F723E0ACEE48
:1003B000B1E001C01D92A731B207E1F70E94BF1959
:1003C0000C94051F0C9400004F925F926F927F92E5
:1003D0009F92AF92BF92CF92DF92EF92FF920F93D4
:1003E0001F93CF93DF9300D000D01F92CDB7DEB71D
:1003F000FC010081F18083819481892B39F01FEF0A
:10040000F11206C091E00F3F19F403C091E001C062
:1004100090E090FD24C66F0185E0DE011196019009
:100420000D928A95E1F7F601228189819A81222332
:1004300049F00E949010182F682F89819A810E949C
:100440000A1103C00E94DD10182F24E5129FF0014D
:10045000112436E0F39EE00DF11D1124E00FF11D93
:10046000EE0FFF1FE05FFE4F0591149109308DE5FF
:10047000180709F040C0F60182818823E1F19091CC
:10048000DE0281E0890F8770987F853020F4892B08
:100490008093DE0202C09093DE028091DE028770BC
:1004A000FFEF8F9FC00111249595879595958795AE
:1004B0009927909389008093880090938B00809374
:1004C0008A0090938D0080938C004091DE025091C1
:1004D000DF026091E0027091E1028FE090E00E9403
:1004E000A81D609198027091990280919A02909152
:1004F0009B020E94E70BF6018281882319F1033EDB
:10050000FCE51F07C1F050F4013E3CE5130781F004
:10051000023E8CE51807B1F481E010C0043E9CE572
:10052000190759F0053EECE51E0761F484E006C0AA
:100530001092DA0205C082E001C083E08093DA0203
:100540000E943D0A17FF71C0F6018281882309F4D9
:100550006CC080919F028093EC0110929F02809169
:10056000DA02813071F048F08230C1F08430E1F479
:1005700086EE0E94B91C88E115C082EE0E94351CEF
:1005800013C083E00E94BA1B88E10E94351C88E1F9
:100590000E94D91B83E00E94AF1B06C082EE0E941E
:1005A000351C87E50E94B91C8FE39CE90197F1F7A0
:1005B00000C000005801E894B7F82CE0E22EF12CBE
:1005C000C5010E2C02C0969587950A94E2F7282F54
:1005D0002F7041F0822F90E02A3010F44D9604C025
:1005E000069702C087E290E00E94B91C94E0E91AE5
:1005F000F108ECEFEE16EFEFFE0611F78091DA024C
:10060000813039F040F0823031F0843051F488E2AA
:1006100006C08CE204C082EE0E94D91B02C00E9478
:10062000B91C8091EC0180939F02033FFCE51F07FA
:10063000C1F180F4083D3CE51307C9F0093D8CE5A4
:100640001807D9F1073D9CE51907D1F526E241EEDF
:1006500061EE10C0053FECE51E0759F130F1063F91
:100660002CE5120769F527E245EE66EE03C027E2A6
:1006700045EE65EEC6010F900F900F900F900F9012
:10068000DF91CF911F910F91FF90EF90DF90CF906E
:10069000BF90AF909F907F906F905F904F900C9421
:1006A0005B0D26E241EE60EEE5CF27E245EE64EE1B
:1006B000E1CF26E241EE62EEDDCF28E241E0D9CF84
:1006C000F6018281882309F44CC11092ED010230B9
:1006D000FCE51F0708F42FC106312CE5120738F09E
:1006E00098012A5F3C452730310508F024C10E945B
:1006F000BF0F9093F1028093F0020F303CE5130797
:1007000009F4CFC008F042C008309CE5190709F48D
:10071000A8C0F0F40430FCE51F0709F490C068F4A9
:1007200002303CE5130709F486C003301C4509F08C
:10073000DFC08091F0028260D9C006309CE51907C5
:1007400009F487C008F089C08091F0028860CEC0AB
:100750000B30FCE51F0709F495C068F409303CE54F
:10076000130709F482C00A301C4509F0C1C080910A
:10077000F002886080C00D309CE5190709F486C03E
:1007800008F087C08091F0028D7FB0C00A3FFCE581
:100790001F0709F457C050F502313CE5130709F46F
:1007A00088C068F400319CE5190709F47EC0013166
:1007B0001C4509F09DC08091F0028F7B97C00431E9
:1007C000FCE51F0709F487C008F479C005311C4512
:1007D00009F08EC08091F00282FB222720F991E07F
:1007E000922790FB82F990FB83F980C00D3F8CE546
:1007F000180709F452C058F40B3FECE51E0729F125
:100800000C3F1C4509F074C08091F10260C00F3F9D
:100810002CE5120709F458C080F101151D4509F0B7
:1008200067C08091F102982F909591708E7F892BEF
:1008300090FB81F94DC08091F002816057C080919A
:10084000F00219C08091F1021BC08091F102826018
:100850003FC08091F002806149C08091F0028062C7
:1008600045C08091F002806441C00E949A1B809133
:10087000F00280683BC0846039C08091F1028260E0
:10088000816026C08091F0028E7F30C08091F0029E
:1008900019C08091F002877F29C08091F1028D7F7D
:1008A00017C08091F0028F7E21C08091F0028F7D71
:1008B0001DC00E949A1B8091F0028F7717C0809113
:1008C000F002877F8B7F12C08091F1028D7F8E7F37
:1008D0008093F1020DC00E949A1B8091F00287FB69
:1008E000222720F991E0922790FB87F98093F0026C
:1008F0006091F0021091F10284E090E00E94961D58
:10090000612F81E290E00E94961D0F900F900F9052
:100910000F900F90DF91CF911F910F91FF90EF906B
:10092000DF90CF90BF90AF909F907F906F905F903F
:100930004F900C949A1B0631FCE51F07B1F580918E
:100940009F028A7A91E009F490E09093EE01882367
:1009500011F065E301C069E287E092E00E948A0F2E
:100960000EC006311C4509F07BC08091EE01882342
:1009700009F473C365E387E092E00E94620F0F9071
:100980000F900F900F900F90DF91CF911F910F91CB
:10099000FF90EF90DF90CF90BF90AF909F907F90AF
:1009A0006F905F904F900C944A1001159CE51907C9
:1009B000D1F00E3D1C4509F053C00F900F900F90E1
:1009C0000F900F90DF91CF911F910F91FF90EF90BB
:1009D000DF90CF90BF90AF909F907F906F905F908F
:1009E0004F900C94D00F0E949A1BFFEF04E31CE081
:1009F000F15000401040E1F700C00000F89481E0A1
:100A00008093E00080E28093D8001092C9008FE1CB
:100A10009EE40197F1F700C000001DBA1092680033
:100A20001CBC10BE1FBA10927A0010926E00109279
:100A30006F0010927100109272001092C900109213
:100A4000BC0014B817B81AB81DB810BA1092BC0080
:100A500015B818B81BB81EB811BA0C94003FFFC2E5
:100A6000F60100811181882349F0C8010E9490108D
:100A7000F82E682FC8010E940A1104C0C8010E9404
:100A8000DD10F82EB8018F2D0E94430A8C01B82E7C
:100A9000F601E580E2949FE0E922F280F1101092E5
:100AA0009E0280919C02877079F0FF2069F080E2BD
:100AB000800F883048F082E00E94671180919C028C
:100AC0008770AA24A3948111A12C912E92948FE077
:100AD0009822892D90E08C30910508F08DC2FC01A0
:100AE000EA5AFF4F0C94DE1D812F807F1F708823F0
:100AF00011F01295107FFF20B9F0112309F406C2FE
:100B000080E2800F883010F0B11006C080919F0203
:100B1000182B10939F0205C080919E02182B1093F2
:100B20009E020E944A10F2C1802F0E94D91B1123FD
:100B300009F462C2005E1095083010F0B11006C0D2
:100B400080919F02182310939F0205C080919E02FE
:100B5000182310939E020E944A104EC2812F807F5C
:100B60001F70803211F01295107FBB2021F0F1E050
:100B7000BF16E1F028C0FF2081F08091A002EE2096
:100B800051F001E0E01207C0182B181709F434C225
:100B90001093A00231C2812B10C0EE2021F021E081
:100BA000E21609F429C20E9444101FC0FF2041F040
:100BB00031E03E1508F420C2812F0E94CF1B1CC2D9
:100BC000E1101AC212C0FF2019F0EE20A9F39EC155
:100BD000EE2059F0093309F0ABC18FEF97EEE3E057
:100BE00081509040E040E1F7A1C1812F0E94C41BD9
:100BF00003C2812F86958695837019F0813059F054
:100C0000FBC1FF2019F0C801937002C080E090E0A2
:100C10000E941B0AF7C1FF2019F0C801937002C09F
:100C200080E090E00E94050AEDC1812F837009F0F9
:100C300069C0F110E5C1902F929596959770990F24
:100C4000990F802F8F70482E512C612C712C092EFA
:100C500004C0440C551C661C771C0A94D2F704FF90
:100C600012C04FE050E060E070E004C0440F551F38
:100C7000661F771F9A95D2F7DB01CA018095909580
:100C8000A095B09503C080E090E0DC011695169524
:100C9000412F4370423019F1C8F40091A102109124
:100CA000A2022091A3023091A402413059F084297C
:100CB0009529A629B729BC01CD0160237123822380
:100CC00093230AC0402A512A622A732ABC01CD010B
:100CD00064297529862997290E94A11191C1842927
:100CE0009529A629B7290091A1021091A20220916D
:100CF000A3023091A402BC01CD0160277127822795
:100D00009327EACFFF2019F0812F817001C08695CB
:100D1000882309F475C1902F929596959770990F35
:100D2000990F802F8F70482E512C612C712C092E19
:100D300004C0440C551C661C771C0A94D2F704FFAF
:100D400012C04FE050E060E070E004C0440F551F57
:100D5000661F771F9A95D2F7DB01CA01809590959F
:100D6000A095B09503C080E090E0DC011695169543
:100D7000412F43704230D9F068F5009198021091EC
:100D8000990220919A0230919B02413059F08429B6
:100D90009529A629B729BC01CD016023712382239F
:100DA00093231EC0402A512A622A732A13C0842921
:100DB0009529A629B72900919802109199022091AE
:100DC0009A0230919B02BC01CD01602771278227D6
:100DD000932706C0BC01CD0164297529862997296E
:100DE0000E9436110DC11F70FF2039F0812F0E9423
:100DF0008011802F0E94CF1B03C1802F0E94C41B33
:100E0000812F0E944211FCC0802FF2EFBF1609F41F
:100E10003EC0FB1538F020EFB21661F031EFB3168B
:100E200089F16FC093EFB916C9F1E4EFBE1609F46A
:100E30004CC067C0FF2009F1E110DEC01F7181E0E6
:100E400090E0A0E0B0E0AC01BD0104C0440F551F2C
:100E5000661F771F1A95D2F7809198029091990298
:100E6000A0919A02B0919B028A019B010827192741
:100E70002A273B27C901B80125C021E02E1508F417
:100E8000BBC0DCCFFF2029F0812F8F712CC0FF2049
:100E9000D9F3812F8F710E944211AEC0FF2079F0EB
:100EA0001F7181E090E0A0E0B0E0BC01CD0104C082
:100EB000660F771F881F991F1A95D2F703C060E04D
:100EC00070E0CB010E94361197C0FF2079F01F71AE
:100ED000812F0E94801138E0139FC001112483608C
:100EE00080939C02812F0E94801186C081E00E9425
:100EF000671181E08E1508F07FC082E00E946711C3
:100F00007BC0FF2039F0EE2009F4BECF802F0E9475
:100F1000351C72C0EE2009F4BCCF893349F49FEF31
:100F2000E7EEF3E09150E040F040E1F700C0000050
:100F3000802F0E94D91B60C012EFB116E1F01B1583
:100F400038F020EFB21669F031EFB31611F12BC073
:100F500084EFB816C9F0B81660F095EFB91671F0C5
:100F600022C0FF2009F44EC09091280281E0892719
:100F700008C081E0F826F092280244C0F11042C077
:100F800081E0809328023EC0F1103CC010922802FC
:100F900039C0FF2029F080912702882329F329C036
:100FA000EE2011F32FC080912702EE20C1F088239C
:100FB00041F09091280281E08927809328021092C5
:100FC0002702802FFF2019F00E94351C1BC00E94B1
:100FD000D91B86E0F60111928A95E9F713C08823A0
:100FE00089F0F1100FC09091280281E08927809349
:100FF00028021092270206C088EF890D843010F471
:101000000E94310AAA2059F180919C0280FD27C0DC
:10101000F60112828595859585950E948011C601FD
:101020000E94E40180919C028595859585950F909D
:101030000F900F900F900F90DF91CF911F910F9114
:10104000FF90EF90DF90CF90BF90AF909F907F90F8
:101050006F905F904F900C94421169E28CCC0F908E
:101060000F900F900F900F90DF91CF911F910F91E4
:10107000FF90EF90DF90CF90BF90AF909F907F90C8
:101080006F905F904F9008959091F00292FF0DC085
:10109000282F2871283019F4877F846006C0282FF4
:1010A0002471243011F48B7F886093FF0DC0282FAA
:1010B0002871283119F4877E846106C0282F247195
:1010C000243111F48B7E88612091F10220FF0DC044
:1010D000382F3871383019F4877F816006C0382F77
:1010E0003171313011F48E7F886021FF0DC0282FBF
:1010F0002871283119F4877E816106C0282F21715B
:10110000213111F48E7E886194FD877E0895CF93FE
:10111000E82F873080F58091070190910801892B95
:1011200009F047C0CE2F64E670E080E40E94D21C34
:101130009093080180930701892BD1F464E670E055
:1011400082E10E94291D9093080180930701892B59
:1011500079F481E090E001C0880FCA95EAF764E66F
:1011600070E080950E94291D9093080180930701EB
:10117000CF910C947E1D90E0FC013797E730F1058C
:10118000C0F4EE59FF4F0C94DE1D209A289811C030
:10119000219A29980EC0229A2A980BC0239A2B983C
:1011A00008C0529A5A9805C0539A5B9802C03E9A5A
:1011B0004698CF910895CF93873008F03FC0809133
:1011C000070190910801892B09F041C064E670E0A5
:1011D00080E40E94D21C9093080180930701892B20
:1011E00011F0C0E027C064E670E083E10E94291D91
:1011F0009093080180930701892B99F764E670E0CA
:1012000081E40E94D21C9093080180930701892BEE
:1012100041F784E690E00E94591D97FF05C0909326
:10122000080180930701DDCFC82FC09510920801F7
:10123000109207010E947E1D8C2F0AC09FB18FB1B2
:10124000807F869586959370892B809501C080E07C
:10125000CF9108950F931F93CF93DF93CDB7DEB750
:1012600067970FB6F894DEBF0FBECDBF4B8B5C8B7C
:101270006D8B7E8B8F8B0E891F890115110531F0C7
:101280005F3F31F481E04F3F19F403C081E001C0BA
:1012900080E080FD32C0242F30E0A1E0B0E0042ED9
:1012A00001C0AA0F0A94EAF7852F90E0662319F08F
:1012B0007091280205C0FC01E750FE4F70817A232F
:1012C0007723A1F046E0489FF001499FF00D1124DB
:1012D000E20FF31FEE0FFF1FED5EFE4F40815181C5
:1012E000FC01E750FE4F9081A92B06C0FC01E7509E
:1012F000FE4FA0958081A823A08386E0FE013D9645
:10130000DF01982F1D929A95E9F74D875E876F87C9
:10131000198B088BDE01179601900D928A95E1F7E3
:10132000CE0107960E941D1281113EC086E0FE018B
:101330003796DE01119601900D928A95E1F7FF81B3
:10134000E8856A857B856115710531F0EF3F31F4E1
:1013500081E0FF3F19F403C081E001C080E080FD1F
:1013600023C020912F0230E0C90101968770992790
:101370004091600250E08417950779F1F983EA8380
:101380007D836C8396E0929FD001939FB00D1124D2
:10139000A05DBD4FFE01319601900D929A95E1F747
:1013A00080932F020E94AB1116E080916002909111
:1013B0002F028917F9F0189FC0011124805D9D4FFD
:1013C0000E941D128823B1F08091600290E0019686
:1013D0008770992780936002E8CF0E949A1B109231
:1013E0002F0210926002E9E2F2E086E0DF011D9236
:1013F0008A95E9F767960FB6F894DEBF0FBECDBFAA
:10140000DF91CF911F910F9108952091F7013091B5
:10141000F8012817390771F09093F8018093F701CC
:10142000E091F202F091F302309721F00084F1850F
:10143000E02D099408952091F5013091F6012817C7
:10144000390771F09093F6018093F501E091F20273
:10145000F091F302309721F00680F781E02D099496
:101460000895E091F202F091F302309721F001909B
:10147000F081E02D099480E008956091DA028CE01B
:1014800090E00C94961DCF93DF9324E5829FC001DA
:101490001124FC0146E0749FE00DF11D1124E60FBC
:1014A000F11DEE0FFF1FE05FFE4FC591D491CE01FD
:1014B000C238D10569F1B0F4C133D10509F475C062
:1014C00048F4C932D10509F469C0CA32D10509F41A
:1014D00073C085C0C533D10509F459C0C933D105DE
:1014E000B9F07DC0C33ED10571F138F4C03ED105DD
:1014F000B1F0C23ED10511F172C0C63ED105B9F1BD
:10150000C73ED105C9F1C43ED10509F068C024C069
:101510002091F00220FD5DC021FD5BC060C02091E4
:10152000F00220FD50C02091F10220FF4DC18091BA
:10153000F00284FD47C183EE90E046C12091F002A5
:1015400022FF42C1F4CF8091F00282FD3FC0809122
:10155000F10280FD3EC0EBCF2091F10221FF34C1AA
:101560008091F00284FD2EC187EE90E02DC1209184
:10157000F00223FF29C1F4CF8091F00283FD2CC03B
:101580008091F10281FFECCF84EE90E01DC12091AB
:10159000F00225FF19C189E290E016C12091F00206
:1015A00025FF12C185E390E00FC12091F00226FFD4
:1015B0000BC18AE290E008C12091F00226FF04C12D
:1015C00081E390E001C189E390E0FEC082EE90E00B
:1015D000FBC080EE90E0F8C086EE90E0F5C0C1154B
:1015E00052E5D50708F06BC0C11521E5D20728F0F8
:1015F0009C2F8827816F906AE7C0C83ED10570F59F
:10160000C03ED10508F0E0C0C83AD105B8F4C53AEB
:10161000D10550F08C2F855AC82FD0E0C554DE4F2D
:10162000888190E09064D0C0C130D10509F4CCC06D
:1016300008F4C8C0249708F4C5C0C6C0CF3BD10584
:1016400008F0C0C08C2F885AC82FD0E0CC0FDD1F07
:10165000C254DE4F888199819464B6C0C11540E5BB
:10166000D407F0F0CE01F4E096958795FA95E1F76E
:10167000282F23703C2F337081E090E002C0880F48
:10168000991F3A95E2F79C68922B2C2F2F70269584
:10169000269550E2259F90011124822B932B94C014
:1016A000C11550E4D50720F0CE019F70906A8CC020
:1016B0009E013A9521153F4108F486C083C0C115AB
:1016C00056E5D50708F03FC0C11585E5D80748F0B5
:1016D0008C2F0E9444088F7190E0982F8827906289
:1016E00073C0C11524E5D20728F09C2F8827846F8A
:1016F000906A6AC09E01237033279C2F9695969519
:10170000C115D34580F441E050E002C0440F551F9D
:101710002A95E2F780E2989F90011124CA01822B5A
:10172000932B9C6851C041E050E002C0440F551F0C
:101730002A95E2F780E2989F90011124CA01822B3A
:10174000932B9A6841C0C1155AE5D50778F5C115A4
:1017500089E5D80710F18C2F8F700E9444089E01F4
:1017600094E0369527959A95E1F72F7030E0322F67
:1017700022273069A901482B0EC09056811590424E
:1017800008F58D2F8F710E9444089E013327306227
:101790008F71A901582BCA0117C0C11528E5D207BE
:1017A00088F09C2F8827806F906A0EC0C1154BE58A
:1017B000D40740F0CE01C1155CE5D507F0F69927B6
:1017C000906602C080E090E0DF91CF910895CF92C3
:1017D000DF92EF92FF920F931F936C01EE24FF2490
:1017E000C114D104E104F10411F0E0E103C06B0184
:1017F0007C01E0E033272F2D1E2D0D2D0115110545
:101800002105310519F0E85F68017901970186012A
:10181000F4E03695279517950795FA95D1F70115B8
:1018200011052105310519F0EC5F68017901970177
:10183000860152E036952795179507955A95D1F769
:10184000011511052105310519F0EE5F68017901D7
:10185000970186013695279517950795012B022B41
:10186000032B09F0EF5F56985E9825982D982698DF
:101870002E9827982F980E2F10E0F8013197E73017
:10188000F105A8F4E759FF4F0C94DE1D259A2D9A17
:101890000EC0259A2D9A269A2E9A09C0259A2D9A1D
:1018A00004C0259A2D9A269A2E9A279A2F9A1F912C
:1018B0000F91FF90EF90DF90CF90089580E290E03D
:1018C00090930801809307018091F20181110EC06D
:1018D0000E94CC1C81E08093F2012FEF83ED90E316
:1018E000215080409040E1F700C0000064E670E0C5
:1018F00080E40E94D21C9093080180930701892BF9
:1019000009F04EC064E670E080E00E94291D9093CB
:10191000080180930701892B09F042C064E670E05A
:1019200080E00E94291D9093080180930701892B74
:10193000B9F564E670E08FE30E94291D90930801D9
:1019400080930701892B61F50E947E1D64E670E09B
:1019500080E40E94D21C9093080180930701892B98
:10196000F9F464E670E08CE00E94291D9093080170
:1019700080930701892BA1F464E670E080E00E9467
:10198000291D9093080180930701892B49F464E68F
:1019900070E08FE30E94291D909308018093070156
:1019A0000E947E1D809107010895CF93DF93569882
:1019B0005E9825982D9826982E9827982F98C8E8F5
:1019C000D0E08FEF90E099838883AAE8B0E0119689
:1019D0009C938E93ECE8F0E091838083259A2D9A76
:1019E0002FEF80E792E0215080409040E1F700C067
:1019F0000000269A2E9A2FEF80E792E02150804037
:101A00009040E1F700C00000279A2F9A2FEF80E75F
:101A100092E0215080409040E1F700C000002598FE
:101A20002D982FEF80E792E0215080409040E1F721
:101A300000C0000026982E982FEF80E792E02150FA
:101A400080409040E1F700C0000027982F988091D7
:101A5000DE0287702FEF829FC00111249595879534
:101A60009595879599279983888311969C938E9352
:101A70009183808356985E9825982D9826982E9865
:101A800027982F98DF91CF91089584B1807F84B9F2
:101A900085B1807F85B98AB1837F8AB98BB1837F15
:101AA0008BB93E984698089580B38C7080BB81B303
:101AB000836F81BB0895CF92DF92EF92FF920F93D5
:101AC0001F93CF93DF93C62F142F022FFC01828127
:101AD0008823E9F06093ED010E942D0F9093F401AB
:101AE0008093F30180E28C0F883008F07CC0C770CF
:101AF00081E001C0880FCA95EAF7DF91CF911F916D
:101B00000F91FF90EF90DF90CF900C94CF1B8091BE
:101B1000ED01681349C02091F3013091F4014FB7F2
:101B2000F8948091A5029091A602A091A702B0918D
:101B3000A8024FBF6C017D01EE24FF24A90160E0E3
:101B400070E0821B930BC416D506E606F70608F470
:101B50000197883C910540F5D0E2D10FC117B9F04B
:101B600080E28C0F883040F4C77081E001C0880F9C
:101B7000CA95EAF70E94C41BD83050F581E0912F36
:101B8000977001C0880F9A95EAF70E94CF1B802FAB
:101B90000E94B91CD83038F5412F477081E001C050
:101BA000880F4A95EAF70AC080E28C0F8830D8F493
:101BB000C77081E001C0880FCA95EAF7DF91CF9125
:101BC0001F910F91FF90EF90DF90CF900C94C41B6A
:101BD000802FDF91CF911F910F91FF90EF90DF90B9
:101BE000CF900C94B91CDF91CF911F910F91FF9072
:101BF000EF90DF90CF900895BF92CF92DF92EF9257
:101C0000FF920F931F93CF93DF93809107019091E1
:101C10000801892B91F08091F1018F5F8093F10190
:101C200081110BC00E945E0C90E09093080180939C
:101C30000701892B11F40E94D50C92EEE92E92E057
:101C4000F92E8701C0E0B12C87E0C82ECC0E8C2F76
:101C50000E9487088C2D0E9487088C2F0E94DB0829
:101C6000F8019081891721F08083DD24D39401C08D
:101C7000D12C8C2D0E94DB08F8019781891719F06F
:101C8000878381E001C080E0D82ABD280E94450DED
:101C9000CF5F0F5F1F4FC730B9F60E942D0F6AEF5D
:101CA00070E00E94CA1D9C01682F8091F00188237A
:101CB000E9F11092F001E091D802F091D902DF0130
:101CC0001E9690E07BEF0AEF10E080818B3FA9F039
:101CD000482F50E0681728F06901C41AD50AA601F8
:101CE00006C0E801C41BD50BAE01420F531F4E3195
:101CF000510514F0708301C091E03196EA17FB079B
:101D000021F79093F001B11002C0911111C010920F
:101D1000EF01E091D802F091D9029091F001A5EF86
:101D2000B2E0AF01425F5F4F80E007C0B110EFCF7C
:101D30008091EF018111EBCF17C0E70129917E015E
:101D40003C91321741F030813B3F21F460832C936A
:101D500091E001C081E031961196E417F50769F72B
:101D60009093F0018093EF018B2DDF91CF911F9124
:101D70000F91FF90EF90DF90CF90BF9008958091EA
:101D8000AB020895CF93DF932091CE022430E1F58A
:101D900020910601222339F02091F00227FF03C091
:101DA00060E222E002C068E021E02093E9002FEF2A
:101DB0003091E800215035FD06C035ED3A95F1F738
:101DC00000002111F5CF2091E80025FF1DC0EC0196
:101DD00080910601811105C040E050E068E070E0AC
:101DE00003C070E040E050E0CE010E94F913809102
:101DF000E8008E778093E80080E2FE01ACEAB2E072
:101E000001900D928A95E1F7DF91CF910895789432
:101E10001F920F920FB60F9211248F939F93AF933F
:101E2000BF938091A5029091A602A091A702B091C4
:101E3000A8020196A11DB11D8093A5029093A60250
:101E4000A093A702B093A802BF91AF919F918F91E9
:101E50000F900FBE0F901F9018952FB7F894809198
:101E6000A5029091A602A091A702B091A8022FBF4F
:101E700008951F920F920FB60F9211248F939F9384
:101E8000AF93BF938091F402811113C08091A5029A
:101E90009091A602A091A702B091A8024196A11D1F
:101EA000B11D8093A5029093A602A093A702B093C0
:101EB000A802BF91AF919F918F910F900FBE0F908D
:101EC0001F901895209106012223C9F02091F0025D
:101ED00027FF15C0262F2695269526952E31C8F466
:101EE000FC01E20FF11D677081E090E001C0880FF6
:101EF0006A95EAF780959281892382830895FC018F
:101F000006962281621301C012823196E817F90702
:101F1000C1F70895209106012223C1F02091F0021B
:101F200027FF14C0262F2695269526952E3130F5AD
:101F3000FC01E20FF11D677081E090E001C0880FA5
:101F40006A95EAF79281892B82830895FC01329683
:101F50002FEF30E04191641789F02F3F19F44111C0
:101F600001C0232F3F5F3630A9F72F3F39F0FC0126
:101F7000E20FF11D27FDFA95628308950895CF932E
:101F800084E090E00E94821DC82F81E290E00E94D0
:101F9000821D2C2F30E0A901582BCA01CF91089542
:101FA0006FEE7EEF80E090E00E94B41D60E082E082
:101FB00090E00E94961D60E083E090E00E94961DF4
:101FC0001092A1021092A2021092A3021092A402F7
:101FD00060E084E090E00E94961D60E081E290E085
:101FE0000E94961D60E085E090E00E94961D60E0F2
:101FF00086E090E00E94961D6FEF87E090E00E94DF
:10200000961D40E050E0BA0188E090E00E94A81DD3
:1020100060E08DE090E00E94961D40E050E0BA0143
:1020200088E190E00E94A81D60E087E190E00E94B6
:10203000961D40E050E0BA018CE190E00E94A81D9E
:1020400060E080E290E00E94961D1092DE02109205
:10205000DF021092E0021092E10284E0806180933E
:10206000DE024091DE025091DF026091E002709149
:10207000E1028FE090E00E94A81D40E050E0BA012C
:1020800083E190E00C94A81D8091A0028111109230
:10209000A002089590919F0280919E02892B209129
:1020A0009D02982F922B909307028091A002882383
:1020B000D9F0892B8093070280910601882331F0A3
:1020C0008091F00287FF02C08EE101C086E0E9E066
:1020D000F2E090E0815028F021912223D9F39F5F14
:1020E000F9CF91110E944410E091F202F091F302B5
:1020F0003097A9F080910601882359F08091F00271
:1021000087FF07C0809107028093080285E08093D3
:1021100007020280F381E02D87E092E009940895A0
:10212000BF92CF92DF92EF92FF920F931F93CF93C4
:10213000DF938C01C0909802D0909902E0909A02AF
:10214000F0909B028091A1029091A202A091A30223
:10215000B091A402C82AD92AEA2AFB2ACFE1D0E00A
:10216000D701C6010C2E04C0B695A7959795879503
:102170000A94D2F780FD04C0219790F7B12C07C0D4
:10218000BC2EB8018C2F0E94430A0197A9F38B2D16
:10219000DF91CF911F910F91FF90EF90DF90CF9043
:1021A000BF900895CF93DF93EC010E949010BE0181
:1021B0000E94430ADF91CF910895292F220F920F99
:1021C000990F890F682F669566956695982F977079
:1021D00085E0689FB001112440E050E080E0FB0101
:1021E000E40FF51FEF59FD4F208130E0092E02C0AA
:1021F000369527950A94E2F721703327042E01C003
:10220000220F0A94EAF7822B4F5F5F4F453051054A
:1022100031F70895292F220F920F990F890FE82F78
:10222000E695E695E695877051E001C0550F8A95D1
:10223000EAF785E0E89FF0011124EF59FD4F20E017
:1022400030E070E04081CB01022E02C09695879568
:102250000A94E2F7817081958427852384278193EE
:102260002F5F3F4F2530310569F708950E94E70B36
:10227000609398027093990280939A0290939B02C4
:102280000C948C1B0F931F9341E050E060E070E0D2
:1022900004C0440F551F661F771F8A95D2F74095DB
:1022A0005095609570958091980290919902A091B7
:1022B0009A02B0919B028A019B01082319232A23C9
:1022C0003B23C901B8011F910F910C943611209145
:1022D0009C028095822380939C02982F977079F4BA
:1022E00030E0482F082E000C550B2417350739F025
:1022F0008595859585950E94421110929C020895BE
:102300000F931F9341E050E060E070E004C0440F81
:10231000551F661F771F8A95D2F78091980290917A
:102320009902A0919A02B0919B028A019B01082B0D
:10233000192B2A2B3B2BC901B8011F910F910C942B
:1023400036116093A1027093A2028093A30290932E
:10235000A4020C948C1B8091600290912F0289172B
:1023600019F08F5F8770FBCF0895CF9380912E0275
:1023700082958F7009F05FC080912B02882309F449
:102380005AC080916002B0912F0270912902A091F1
:102390002A0240912C0250912D0291E07F3F09F0DA
:1023A00090E0692FC6E08B1709F445C0411551052F
:1023B00021F0AF3F21F020E003C021E001C0262F33
:1023C00090E020FD35C0C89FF001C99FF00D112499
:1023D000E05DFD4F21812A132BC02081271328C0E7
:1023E0002281211125C0238134812417350710F45F
:1023F00021503109241B350B283C3105C8F42091AC
:102400002E022F70206120932E0226E0289FF001DB
:10241000299FF00D1124EB5CFD4F80818F7080614E
:10242000808389E292E00E94E401CF910C94AB1189
:1024300001968770B8CFCF910895AF92BF92CF9297
:10244000DF92EF92FF920F931F93CF93DF93CDB75D
:10245000DEB761970FB6F894DEBF0FBECDBF8C011B
:1024600085E0F801DE011D9601900D928A95E1F755
:10247000D8013C9111962C9111971296EC905091A5
:10248000290260912A0280912C0290912D020097DE
:1024900031F06F3F31F441E05F3F19F403C041E098
:1024A00001C040E0B42FB170BB2E40FD43C1F80124
:1024B000C380D480A0902B02AA2009F4E2C04091EE
:1024C0002E02C816D90628F0D601A81BB90BCD01DB
:1024D00004C0809590958C0D9D1DFF24F394883C3D
:1024E000910548F0F12C407F09F090C089E292E01C
:1024F0000E94E40117C1842F807F09F052C062134B
:1025000012C0531310C0FE2CE1100DC04F7040617B
:1025100040932E0289E292E00E94E40180912E0213
:10252000F801858354C1CD2831F02F3F31F481E08B
:102530003F3F19F403C081E001C080E080FD03C08B
:1025400081E08E2502C080E090E0F82FF170FF2E30
:1025500080FF1CC08091600240912F0256E08417DA
:1025600009F412C190E0589FF001599FF00D112419
:10257000E05DFD4F6181261306C06081361303C004
:102580006281E61203C001968770E9CFFE2CEE202F
:1025900009F41DC180912E02816080932E02F12CDE
:1025A00016C1621308C0531306C0E11004C0809125
:1025B0002E02F80199C03D872E878D859E850E9449
:1025C000631B882369F1EE2059F120912E02822F9E
:1025D00082958F7090E0029774F08091290290911B
:1025E0002A0298878F831986DB86CA862C87CE01BC
:1025F00007960E94E40186E0F801A9E2B2E00190AA
:102600000D928A95E1F70E94B5110DC0621771F025
:102610003D872E878D859E850E94631B81111AC080
:10262000C8010E94E401FF24F394D1C05313F0CFFA
:10263000E110EECF80912E02F8018583C8010E943F
:10264000E40186E0E9E2F2E0DF011D928A95E9F714
:10265000FA2CBDC0EE2021F320912E02822F82950C
:102660008F7090E002973CF28091290290912A02AB
:102670009A8389831B82DD82CC822E83CE010196D0
:10268000B8CFC816D90638F0C81AD90AB8ECCB1694
:10269000D10450F007C0809590958C0D9D1D883C0D
:1026A000910510F0F12C3EC0FE2CEE2009F4B8CFBD
:1026B000621327C0531325C020912E0220FD18C09D
:1026C000822F82958F70482F50E04115510581F07F
:1026D000F80125834F30510541F08F5F982F929577
:1026E000907F822F8F70892B8583C8010E94E4011F
:1026F00086E0F801A9E2B2E001900D928A95E1F737
:1027000066C03D872E878D859E850E94631B811143
:1027100072CF80912E02816080932E02C8010E94A8
:10272000E40155C0E9E2F2E086E0DF011D928A95FE
:10273000E9F74DC0EE2009F473CF3D872E878D85D4
:102740009E850E94631BF82E882309F469CF86E0DA
:10275000F801A9E2B2E001900D928A95E1F780912B
:10276000290290912A020E94D21092959F70963071
:1027700041F48091280291E0892780932802909368
:1027800027020E94B51123C03D872E878D859E8527
:102790000E94D210292F22952F70223028F49F708A
:1027A00039F0811105C00BC0243028F49F7049F422
:1027B000805E883020F0C8010E94E401BF2CFB2C11
:1027C00006C0D80115969C91907F91F7F8CF8F2D78
:1027D00061960FB6F894DEBF0FBECDBFDF91CF91EB
:1027E0001F910F91FF90EF90DF90CF90BF90AF902F
:1027F0000895EF92FF920F931F93CF93DF937C0185
:102800008B010E94DA18811119C0E7010115110529
:10281000A1F08091E80085FD0AC08091E8008E77E4
:102820008093E8000E94DA18882381F307C0899119
:102830008093F10001501109E9CF80E0DF91CF9141
:102840001F910F91FF90EF9008951F93CF93DF9307
:10285000CDB7DEB7AA970FB6F894DEBF0FBECDBFD7
:10286000E0EDF2E08091F100819322E0E83DF20793
:10287000C9F78091D102833009F460C030F481300F
:1028800071F0823009F49AC0B1C08A3009F486C070
:102890008B3009F46BC0893009F0A8C020C080914A
:1028A000D002813A09F0A2C08091E800877F80932E
:1028B000E8008091D4029091D502892B21F460E246
:1028C0008CEA92E003C060E080E090E070E00E945B
:1028D00061198091E8008B778093E80087C0809130
:1028E000D002813209F082C08091D4029091D50249
:1028F000029708F07BC08091E800877F8093E80012
:102900008091E80082FD05C08091CE028111F8CF50
:102910006DC02091F3008091F20090E0922B02971D
:1029200029F48091F1008B7F813021F48091F100B6
:102930008093AB028091E8008B7754C08091D002E5
:10294000813A09F053C08091D4029091D502892B2D
:1029500009F04CC08091E800877F8093E800809167
:10296000E80080FFFCCF8091060137C08091D00243
:102970008132E1F58091D4029091D502892BB1F595
:102980008091E800877F8093E8000E940D19809174
:10299000D202809306010E949A1B28C08091D00227
:1029A000813221F58091E800877F8093E8000E94C2
:1029B0000D198091D3028093AA0218C08091D00291
:1029C000813AA1F48091E800877F8093E8008091AC
:1029D000E80080FFFCCF8091AA028093F1008091F3
:1029E000E8008E778093E8000E940D198091E8003E
:1029F00083FFD8C18091D0029091D102492F50E03D
:102A00004A30510508F0CEC1FA01E059FF4F0C944D
:102A1000DE1D803821F0823809F0C4C108C08091E1
:102A2000CC029091CD02992389F082600FC08091F1
:102A3000D4028F70873008F0B5C18093E90080918F
:102A4000EB0085FB882780F91092E9009091E8005F
:102A5000977F9093E8008093F1001092F10071C18C
:102A6000282F2D7F09F09EC1882319F0823061F054
:102A700099C18091D202813009F094C1933009F05C
:102A800080E08093CD022EC08091D20281112AC0B5
:102A90008091D4028F702FEF280F263008F082C16A
:102AA0008093E9002091EB0020FF1CC0933021F4BB
:102AB0008091EB00806214C09091EB009061909344
:102AC000EB0021E030E0A90102C0440F551F8A95B8
:102AD000E2F74093EA001092EA008091EB008860F0
:102AE0008093EB001092E9008091E800877F2CC171
:102AF000811158C11091D2021F778091E300807834
:102B0000812B8093E3008091E800877F8093E80029
:102B10000E940D198091E80080FFFCCF8091E300B6
:102B200080688093E300111102C082E001C083E05D
:102B30008093CE0237C18058823008F033C1809133
:102B4000D2029091D3028C3D53E0950779F583E052
:102B50008A838AE289834FB7F894DE01139620E0D6
:102B60003EE051E2E32FF0E050935700E49120FF64
:102B700003C0E295EF703F5FEF708E2F90E0EA3078
:102B800010F0C79601C0C0968D939D932F5F24319E
:102B900049F74FBF8091E800877F8093E8006AE2A1
:102BA00070E0CE0101960E946119BAC04091D40232
:102BB0005091D502292F332723303105B1F068F425
:102BC0002130310509F4FDC02230310509F0EAC099
:102BD0008BE390E0E1E1F3E050C02132310581F177
:102BE0002232310509F439C0DDC0992781309105C1
:102BF000B9F070F082309105D9F0039709F0D2C096
:102C0000EEE5F3E0E4918E2F90E0EEE5F3E032C0E4
:102C1000E6E8F3E0E4918E2F90E0E6E8F3E02AC0E6
:102C2000ECE7F3E0E4918E2F90E0ECE7F3E022C0D4
:102C3000E4E6F3E0E4918E2F90E0E4E6F3E01AC0DE
:102C40004115510509F4C2C04130510509F0AAC02F
:102C500089E090E0ECE3F3E010C04115510509F480
:102C6000BAC04130510509F09DC081E790E0E0E62F
:102C7000F2E003C0009709F495C02091E800277F97
:102C80002093E8002091D6023091D7028217930753
:102C900008F49C0140E02115310589F18091CE02B4
:102CA000882309F43DC08530D9F18091E80083FD87
:102CB00037C08091E80082FD2FC08091E80080FF3E
:102CC000EACF4091F3008091F20090E0942B21151F
:102CD000310559F08830910540F444914093F1005A
:102CE0003196215031090196F2CF41E0089709F061
:102CF00040E08091E8008E778093E800CCCF4111CE
:102D0000CDCF0AC08091CE02882351F0853041F0AA
:102D10008091E80083FD04C08091E80082FFF2CF3B
:102D20008091E8008B778093E8003CC08038D1F533
:102D30008091E800877F8093E8008091CF028093A4
:102D4000F1008091E8008E778093E8000E940D19D1
:102D500029C0811127C08091D2029091D302992776
:102D6000029704F58091E800877F8093E800109136
:102D7000D2021093CF020E940D19111106C080914A
:102D8000E30087FD02C081E001C084E08093CE02B1
:102D900042E061EC81E00E942C1942E261EC82E0A9
:102DA0000E942C198091E80083FF1AC08091E800EE
:102DB000877F8093E8008091EB0080628093EB0036
:102DC0000FC082E190E0ECE4F3E057CF89E090E0BF
:102DD000E3E2F3E052CF80E490E0E1EDF2E04DCFAA
:102DE000AA960FB6F894DEBF0FBECDBFDF91CF918C
:102DF0001F9108951F920F920FB60F9211242F93D7
:102E00003F934F935F936F937F938F939F93AF9372
:102E1000BF93CF93DF93EF93FF93C091E900CF70FF
:102E20008091EC00D82FD17080FDD0E81092E9009D
:102E30008091F000877F8093F00078940E942514A1
:102E40001092E9008091F00088608093F000CD2B13
:102E5000CF70C093E900FF91EF91DF91CF91BF91C7
:102E6000AF919F918F917F916F915F914F913F9122
:102E70002F910F900FBE0F901F901895E8EDF0E086
:102E800080818E7F80831092E2001092DA0010928F
:102E9000E100A0EEB0E08C9181608C9380818F770F
:102EA000808319BCA7EDB0E08C918E7F8C938081DC
:102EB0008F7E80831092A9020895CF92DF92EF92C5
:102EC000FF920F931F93CF93DF93C8EDD0E08881DB
:102ED0008F7E8883E7EDF0E080818160808384E0ED
:102EE00082BF81E08093A90288818E7F888302EE71
:102EF00010E0F80110821092DA0081EEC82ED12C79
:102F0000F601108288818F77888388818068888322
:102F100088818F7D888319BC1092CE021092CF02D7
:102F20001092CD021092CC0290EEE92EF12CF70116
:102F300080818B7F808388818160888342E060E02C
:102F400080E00E942C19F60180818E7F8083F80139
:102F5000808181608083808188608083F7018081A7
:102F60008E7F8083888180618883DF91CF911F91DC
:102F70000F91FF90EF90DF90CF9008951F920F92E6
:102F80000FB60F9211242F933F934F935F936F933C
:102F90007F938F939F93AF93BF93EF93FF93809112
:102FA000E10082FF09C08091E20082FF05C08091AC
:102FB000E1008B7F8093E1008091DA0080FF2AC0DE
:102FC0008091D80080FF26C08091DA008E7F8093A8
:102FD000DA008091D90080FF18C080E189BD82E1CC
:102FE00089BD09B400FEFDCF81E08093CE028091BF
:102FF000A90281110FC00E943E170E945D178091A7
:10300000E20084608093E20005C019BC1092CE02F9
:103010001092A9028091E10080FF17C08091E20028
:1030200080FF13C08091E2008E7F8093E200809148
:10303000E20080618093E2008091D80080628093FA
:10304000D80019BC85E08093CE028091E10084FF16
:1030500032C08091E20084FF2EC080E189BD82E110
:1030600089BD09B400FEFDCF8091D8008F7D80938B
:10307000D8008091E1008F7E8093E1008091E20092
:103080008F7E8093E2008091E20081608093E20075
:103090008091CF02882311F084E007C08091E30083
:1030A00087FD02C081E001C083E08093CE020E94D0
:1030B0009A1B0E94310A8091E10083FF27C0809112
:1030C000E20083FF23C08091E100877F8093E100CD
:1030D00082E08093CE021092CF028091E1008E7F39
:1030E0008093E1008091E2008E7F8093E2008091E6
:1030F000E20080618093E20042E060E080E00E94B4
:103100002C198091F00088608093F000FF91EF917E
:10311000BF91AF919F918F917F916F915F914F91EF
:103120003F912F910F900FBE0F901F90189508950B
:10313000CF93DF9300D01F92CDB7DEB79091CE0230
:10314000943019F589837B836A8382E08093E90058
:103150008FEF9091E800815095FD06C095ED9A950E
:10316000F1F700008111F5CF8091E80085FF0DC0D7
:1031700040E050E063E070E0CE0101960E94F91358
:103180008091E8008E778093E8000F900F900F9069
:10319000DF91CF9108952091CE02243021F4BC011B
:1031A00084E00C9498180895BC016058710983E07C
:1031B0000C9498182091E4003091E50095E6409138
:1031C000EC00842F817040FF23C08091E80080FDD7
:1031D0001DC08091CE02882399F0853099F08091AE
:1031E000EB0085FD11C04091E4005091E5002417EB
:1031F000350729F3915011F09A01E1CF84E0089549
:1032000082E0089583E0089581E0089580E00895C4
:103210004091E80042FFDDCF08958091D00287FF02
:1032200011C08091E80082FD05C08091CE0281111D
:10323000F8CF11C08091E8008B770BC08091CE024F
:10324000882349F08091E80080FFF8CF8091E80062
:103250008E778093E8000895982F973068F59093C3
:10326000E900981739F07091EC002091ED00509131
:10327000F00003C0242F762F50E021FD02C09F5F95
:10328000ECCF3091EB003E7F3093EB003091ED00BE
:103290003D7F3093ED003091EB0031603093EB00D7
:1032A0007093EC002093ED005093F0002091EE001D
:1032B00027FDE5CF80E008958F708093E90081E0DD
:1032C00008952091D6023091D7022617370748F08B
:1032D0006115710539F42091E8002E772093E800FC
:1032E00001C0B901FC0120E06115710579F18091FF
:1032F000CE028823F1F18530F1F18091E80083FD61
:103300003CC08091E80082FD2EC08091E80080FFE3
:10331000EBCF2091F3008091F20090E0922B6115A9
:10332000710551F08830910538F421912093F10016
:10333000615071090196F3CF21E0089709F020E070
:103340008091E8008E778093E800CECF2111CFCF17
:103350000AC08091CE02882361F0853061F08091AF
:10336000E80083FD0AC08091E80082FFF2CF80E090
:10337000089582E0089583E0089581E00895CF9351
:10338000DF93CDB7DEB72A970FB6F894DEBF0FBE36
:10339000CDBF84B7877F84BF0FB6F894A89580917E
:1033A0006000886180936000109260000FBE90E022
:1033B00080E80FB6F89480936100909361000FBE8F
:1033C00085B7806885BF85B7806885BF0E943E1736
:1033D0000E945D178091E20084608093E2007894FF
:1033E0008091CE028823A1F01091E9001F70909186
:1033F000EC00892F817090FD80E8182B1092E90075
:103400008091E80083FD0E9425141F701093E9004D
:1034100082E084BD93E095BD9AEF97BD80936E00E6
:103420000E945E0C90E090930801809307010E9437
:10343000450D0E94540DA2EEB2E0E5EFF2E01192CC
:103440001D9223E0E330F207D1F78EE090E00E9476
:10345000E41D8093D8029093D902FC010E962BEFC5
:103460002193E817F907E1F780E090E00E94901DB2
:103470008F3E9E4F11F00E94D00F8CE090E00E9492
:10348000821D90E0A0E0B0E08093DA029093DB022E
:10349000A093DC02B093DD0289EA8093800089E08A
:1034A0008093810024982C983F988AB18F7C8AB9A8
:1034B0006E98479A8BB180638BB9769A8FE090E0D3
:1034C0000E948A1D6093DE027093DF028093E00207
:1034D0009093E10267708FEF689FB001112475959A
:1034E0006795759567957727709389006093880035
:1034F00070938B0060938A0070938D0060938C00B2
:103500000E94D50C80E090E00E94901D8F3E9E4F5F
:1035100011F00E94D00F82E090E00E94821D809303
:1035200004030E94BF0F9093F1028093F00283E0A6
:1035300090E00E94821D682F70E080E090E00E9481
:10354000A11189E091E09093F3028093F202EE24BE
:10355000EA9480E1A82E92E1B92E28E1C22ED12C66
:1035600030E4932E8091CE02853009F047C08091DF
:10357000CE02843009F11092F4020FB6F894A895A7
:10358000C09260000FBE9092600083B7817F84601C
:1035900083BF83B7816083BF7894889583B78E7F1C
:1035A00083BF0FB6F894A8958091600088618093DE
:1035B0006000109260000FBE8091CD02882391F2CE
:1035C0000E945E0C90E090930801809307010E9496
:1035D000450D0E94540DE5EFF2E0119283E0E330D7
:1035E000F807D9F70E94FC0DE5EFF2E08191811117
:1035F00056C023E0E330F207C9F7B4CF0E94FC0DB8
:10360000E5E0F3E0A5EFB2E000E010E0302F2D910F
:103610009191922721F180E0FF24F394492F4F21CB
:10362000D1F089833A832F2181E009F480E08B83F4
:103630000E942D0F8160782F9D838C8349815A8150
:103640006B818D810E942A09F801EB5FFC4F80811C
:10365000F826F08218C08F5FFF0C8630F9F60F5FF6
:103660001F4F0E30110591F6EE82EF8218860E94F0
:103670002D0F8160782F9A8789874E815F816885B9
:103680008A850E942A090E94310A909103038917B2
:1036900009F468CF0E94310A8093030363CFA9BC69
:1036A000B9BC09B400FEFDCF8091D8008F7D809316
:1036B000D8008091E00082608093E0008091E0007B
:1036C00081FDFCCF4FCF0E94D210292F2F70E92F00
:1036D000E295EF704E2F50E0FA013297EE30F1058F
:1036E000B8F4E658FF4F0C94DE1D803F99F018F4B3
:1036F000883E70F40FC0843F59F40CC0883E50F0EF
:10370000813F31F407C0822F86958695869508956E
:1037100080E0089581E0089510929E0210929D022B
:103720000E944A1080E090E00E941B0A80E090E036
:103730000C94050A10929F0280910601882331F0B3
:103740008091F00287FF02C08EE101C086E0E9E0CF
:10375000F2E0DF011D928A95E9F70C948C1B882317
:1037600041F0809590919E02892380939E020C9453
:103770004A100895882339F090919E02892B8093F6
:103780009E020C944A100895882341F080959091F0
:103790009F02892380939F020C944A1008958823E6
:1037A00039F090919F02892B80939F020C944A10CC
:1037B0000895882309F458C0682F823869F40E945C
:1037C000310A81FF51C069E387E092E00E948A0FCD
:1037D0000E944A1069E30EC0833891F40E94310AB6
:1037E00080FF42C063E587E092E00E948A0F0E945A
:1037F0004A1063E587E092E00E94620F0C944A1041
:10380000843869F40E94310A82FF2EC067E487E0A1
:1038100092E00E948A0F0E944A1067E4EBCF8CEF7F
:10382000860F813A38F380E2860F883070F4677033
:1038300081E090E001C0880F6A95EAF78095909149
:103840009F02892380939F02D9CF8BE5860F833017
:1038500020F480E090E00C941B0A685A673120F451
:1038600080E090E00C94050A0895882309F480C054
:10387000682F8238B1F40E94310A81FD79C069E372
:1038800087E092E00E948A0F0E944A102FEF81EE9B
:1038900094E0215080409040E1F700C0000069E3CF
:1038A00017C08338D9F40E94310A80FD61C063E5F6
:1038B00087E092E00E948A0F0E944A102FEF81EE6B
:1038C00094E0215080409040E1F700C0000063E5A3
:1038D00087E092E00E94620F0C944A108438B1F4A1
:1038E0000E94310A82FD44C067E487E092E00E94B2
:1038F0008A0F0E944A102FEF81EE94E02150804001
:103900009040E1F700C0000067E4E2CF8CEF860F43
:10391000813A28F487E092E00E948A0FDDCF80E2AE
:10392000860F883068F4677081E090E001C0880FEE
:103930006A95EAF790919F02892B80939F02CCCFE2
:10394000EBE5E60FE33038F4F0E0E554FE4F80811C
:1039500090E00C941B0A685A673150F4E62FF0E0AF
:10396000EE0FFF1FE254FE4F808191810C94050AF7
:103970000895CF93C82F0E94351CC93349F42FEF07
:1039800087EE93E0215080409040E1F700C00000B6
:103990008C2FCF910C94D91B1092B9008CE080939E
:1039A000B8000895EF92FF920F931F93CF93DF9388
:1039B000182FEB011092BC0084EA8093BC000E9497
:1039C0002D0F7C018091BC0087FD0EC0CF3F8FEF93
:1039D000D807C1F30E942D0F8E199F098C179D07E0
:1039E00088F38EEF9FEF2EC08091B900887F8830DA
:1039F00041F08091B900887F803119F08FEF9FEFFF
:103A000021C01093BB0084E88093BC000E942D0F5E
:103A10008C018091BC0087FD0CC0CF3F8FEFD80791
:103A2000C1F30E942D0F801B910B8C179D0788F30B
:103A3000D8CF8091B900887F883111F08034F1F6B9
:103A400080E090E0DF91CF911F910F91FF90EF9078
:103A500008950F931F93CF93DF93EB018093BB00E7
:103A600084E88093BC000E942D0F8C018091BC00E3
:103A700087FD0EC0CF3F8FEFD807C1F30E942D0FF7
:103A8000801B910B8C179D0788F38EEF9FEF0CC066
:103A90002091B900287F81E090E0283211F480E085
:103AA00090E0919581959109DF91CF911F910F91B0
:103AB00008950F931F93CF93DF93EC0184E88093D5
:103AC000BC000E942D0F8C018091BC0087FD0EC0B0
:103AD000CF3F8FEFD807C1F30E942D0F801B910BB2
:103AE0008C179D0788F38EEF9FEF03C08091BB007A
:103AF00090E0DF91CF911F910F91089584E9809319
:103B0000BC000895F999FECF92BD81BDF89A99271E
:103B100080B50895A6E1B0E044E050E00C94BC1DEF
:103B2000A8E1B0E042E050E00C94BC1D262FF999CA
:103B3000FECF92BD81BDF89A019700B4021639F00C
:103B40001FBA20BD0FB6F894FA9AF99A0FBE0895DD
:103B50000396272F0E94971D0E94961D252F0E94D5
:103B6000971D242F0C94971D0196272F0E94971DB7
:103B70000C94961DDC01CB01FC01F999FECF06C027
:103B8000F2BDE1BDF89A319600B40D92415050401B
:103B9000B8F70895AA1BBB1B51E107C0AA1FBB1FA2
:103BA000A617B70710F0A61BB70B881F991F5A95C9
:103BB000A9F780959095BC01CD010895EE0FFF1FE8
:103BC0000590F491E02D09940F931F93CF93DF9309
:103BD0008230910510F482E090E0E0911503F091BD
:103BE000160320E030E0A0E0B0E0309719F140810A
:103BF00051810281138148175907C8F0841795072E
:103C000069F4109731F012960C93129713961C9347
:103C100027C0009315031093160322C02115310508
:103C200019F04217530718F49A01BD01EF01DF01A3
:103C3000F801DBCF21153105F9F0281B390B2430B1
:103C4000310580F48A819B816115710521F0FB01AA
:103C50009383828304C09093160380931503FE011F
:103C6000329644C0FE01E20FF31F819391932250DC
:103C70003109398328833AC020911303309114030A
:103C8000232B41F42091020130910301309314035E
:103C9000209313032091000130910101211531057A
:103CA00041F42DB73EB74091040150910501241B0A
:103CB000350BE0911303F0911403E217F307A0F41E
:103CC0002E1B3F0B2817390778F0AC014E5F5F4F72
:103CD0002417350748F04E0F5F1F5093140340938D
:103CE00013038193919302C0E0E0F0E0CF01DF91F4
:103CF000CF911F910F910895CF93DF93009709F40F
:103D000081C0FC01329713821282A0911503B091F9
:103D10001603109781F420813181820F931F209127
:103D20001303309114032817390751F5F093140346
:103D3000E093130367C0ED0120E030E0CE17DF070A
:103D400040F44A815B819E0141155105F1F0EA0181
:103D5000F5CFD383C28340815181840F951FC8174B
:103D6000D90759F488819981840F951F0296918310
:103D700080838A819B81938382832115310529F475
:103D8000F0931603E09315033DC0E901FB83EA833A
:103D900049915991C40FD51FEC17FD0761F480813B
:103DA0009181840F951F0296E9019983888382810E
:103DB00093819B838A83E0E0F0E012968D919C9141
:103DC0001397009719F0FD01DC01F7CF8D919C91BD
:103DD00011979D012E5F3F4F820F931F2091130378
:103DE000309114032817390769F4309729F4109299
:103DF00016031092150302C013821282B0931403AB
:0E3E0000A0931303DF91CF910895F894FFCFA4
:103E0E00000017032000012000BF0EC20E9718D429
:103E1E0018CB18000D010D020D030D040D050D003C
:103E2E000C010C020C030C040C050C000B010B0214
:103E3E000B030B040B050B000A010A020A030A040A
:103E4E000A050A0009010902090309040905090006
:103E5E000801080208030804080508000701070204
:103E6E0007030704070507000601060206030604FA
:103E7E0006050600050105020503050405050500F6
:103E8E0004010402040304040405040003010302F4
:103E9E0003030304030503000201020202030204EA
:103EAE0002050200010101020103010401050100E6
:103EBE000001000200030004000500818283E2007D
:103ECE00E900EA00B500B600B700CD008301CC00D2
:103EDE008A01920194012102230224022502260264
:0C3EEE0027022A02B300B4006F0070002D
:00000001FF
